:020000040000fa
:080000000002040000000000f2
:020000040000fa
:04000800e20300000f
:020000040000fa
:04000c00e20300000b
:020000040000fa
:04001000e203000007
:020000040000fa
:04001400e203000003
:020000040000fa
:04001800e2030000ff
:020000040000fa
:04001c00e2030000fb
:020000040000fa
:04002000e2030000f7
:020000040000fa
:04002400e2030000f3
:020000040000fa
:04002800e2030000ef
:020000040000fa
:04002c00e2030000eb
:020000040000fa
:04003000e2030000e7
:020000040000fa
:0400340002030000c3
:020000040000fa
:04003800e2030000df
:020000040000fa
:04003c00e2030000db
:020000040000fa
:04004000e2030000d7
:020000040000fa
:04004400e2030000d3
:020000040000fa
:04004800fa020000b8
:020000040000fa
:04004c00e2030000cb
:020000040000fa
:04005000e2030000c7
:020000040000fa
:040054009e03000007
:020000040000fa
:04005800740300002d
:020000040000fa
:04005c00500300004d
:020000040000fa
:04006000e2030000b7
:020000040000fa
:04006400e2030000b3
:020000040000fa
:04006800e2030000af
:020000040000fa
:04006c00e2030000ab
:020000040000fa
:04007000e2030000a7
:020000040000fa
:04007400e2030000a3
:020000040000fa
:04007800e20300009f
:020000040000fa
:04007c00e20300009b
:020000040000fa
:04008000e203000097
:020000040000fa
:04008400e203000093
:020000040000fa
:04008800e20300008f
:020000040000fa
:04008c00e20300008b
:020000040000fa
:04009000e203000087
:020000040000fa
:04009400260300003f
:020000040000fa
:04009800e20300007f
:020000040000fa
:04009c00e20300007b
:020000040000fa
:0400a000e203000077
:020000040000fa
:0400a400e203000073
:020000040000fa
:0400a800e20300006f
:020000040000fa
:0400ac00e20300006b
:020000040000fa
:0400b000e203000067
:020000040000fa
:0400b400e203000063
:020000040000fa
:0400b800e20300005f
:020000040000fa
:0400bc00e20300005b
:020000040000fa
:0400c000e203000057
:020000040000fa
:0400c400e203000053
:020000040000fa
:0400c800e20300004f
:020000040000fa
:0400cc00e20300004b
:020000040000fa
:0400d000e203000047
:020000040000fa
:0400d400e203000043
:020000040000fa
:0400d800e20300003f
:020000040000fa
:0400dc00e20300003b
:020000040000fa
:0400e000e203000037
:020000040000fa
:0400e400e203000033
:020000040000fa
:0400e800e20300002f
:020000040000fa
:0400ec00e20300002b
:020000040000fa
:0400f000e203000027
:020000040000fa
:0400f400e203000023
:020000040000fa
:0400f800e20300001f
:020000040000fa
:0400fc00e20300001b
:020000040000fa
:04010000e203000016
:020000040000fa
:04010400e203000012
:020000040000fa
:04010800e20300000e
:020000040000fa
:04010c00e20300000a
:020000040000fa
:04011000e203000006
:020000040000fa
:04011400e203000002
:020000040000fa
:04011800e2030000fe
:020000040000fa
:04011c00e2030000fa
:020000040000fa
:04012000e2030000f6
:020000040000fa
:04012400e2030000f2
:020000040000fa
:04012800e2030000ee
:020000040000fa
:04012c00e2030000ea
:020000040000fa
:04013000e2030000e6
:020000040000fa
:04013400e2030000e2
:020000040000fa
:04013800e2030000de
:020000040000fa
:04013c00e2030000da
:020000040000fa
:04014000e2030000d6
:020000040000fa
:04014400e2030000d2
:020000040000fa
:04014800e2030000ce
:020000040000fa
:04014c00e2030000ca
:020000040000fa
:04015000e2030000c6
:020000040000fa
:04015400e2030000c2
:020000040000fa
:04015800e2030000be
:020000040000fa
:04015c00e2030000ba
:020000040000fa
:04016000e2030000b6
:020000040000fa
:04016400e2030000b2
:020000040000fa
:04016800e2030000ae
:020000040000fa
:04016c00e2030000aa
:020000040000fa
:04017000e2030000a6
:020000040000fa
:04017400e2030000a2
:020000040000fa
:04017800e20300009e
:020000040000fa
:04017c00e20300009a
:020000040000fa
:04018000e203000096
:020000040000fa
:04018400e203000092
:020000040000fa
:04018800e20300008e
:020000040000fa
:04018c00e20300008a
:020000040000fa
:04019000e203000086
:020000040000fa
:04019400e203000082
:020000040000fa
:04019800e20300007e
:020000040000fa
:04019c00e20300007a
:020000040000fa
:0401a000e203000076
:020000040000fa
:0401a400e203000072
:020000040000fa
:0401a800e20300006e
:020000040000fa
:0401ac00e20300006a
:020000040000fa
:0401b000e203000066
:020000040000fa
:0401b400e203000062
:020000040000fa
:0401b800e20300005e
:020000040000fa
:0401bc00e20300005a
:020000040000fa
:0401c000e203000056
:020000040000fa
:0401c400e203000052
:020000040000fa
:0401c800e20300004e
:020000040000fa
:0401cc00e20300004a
:020000040000fa
:0401d000e203000046
:020000040000fa
:0401d400e203000042
:020000040000fa
:0401d800e20300003e
:020000040000fa
:0401dc00e20300003a
:020000040000fa
:0401e000e203000036
:020000040000fa
:0401e400e203000032
:020000040000fa
:0401e800e20300002e
:020000040000fa
:0401ec00e20300002a
:020000040000fa
:0401f000e203000026
:020000040000fa
:0401f400e203000022
:020000040000fa
:0401f800e20300001e
:020000040000fa
:0401fc00e20300001a
:020000040000fa
:04020000e203000015
:020000040000fa
:04020400e203000011
:020000040000fa
:04020800e20300000d
:020000040000fa
:04020c00e203000009
:020000040000fa
:04021000e203000005
:020000040000fa
:04021400e203000001
:020000040000fa
:04021800e2030000fd
:020000040000fa
:04021c00e2030000f9
:020000040000fa
:04022000e2030000f5
:020000040000fa
:04022400e2030000f1
:020000040000fa
:04022800e2030000ed
:020000040000fa
:04022c00e2030000e9
:020000040000fa
:04023000e2030000e5
:020000040000fa
:04023400e2030000e1
:020000040000fa
:04023800e2030000dd
:020000040000fa
:04023c00e2030000d9
:020000040000fa
:04024000e2030000d5
:020000040000fa
:04024400e2030000d1
:020000040000fa
:04024800e2030000cd
:020000040000fa
:04024c00e2030000c9
:020000040000fa
:04025000e2030000c5
:020000040000fa
:04025400e2030000c1
:020000040000fa
:04025800e2030000bd
:020000040000fa
:04025c00e2030000b9
:020000040000fa
:04026000e2030000b5
:020000040000fa
:04026400e2030000b1
:020000040000fa
:04026800e2030000ad
:020000040000fa
:04026c00e2030000a9
:020000040000fa
:04027000e2030000a5
:020000040000fa
:04027400e2030000a1
:020000040000fa
:04027800e20300009d
:020000040000fa
:04027c00e203000099
:020000040000fa
:04028000e203000095
:020000040000fa
:10040000cf2121000eff27000e0188000000000010
:10041000000020000000e000020032000001200087
:100420002002880014000700e80007000000e00038
:1004300003003a00600022000100200002003700a3
:100440000000200001002000810f70000100320038
:100450000f000700000020000000e0000200320052
:10046000000002000000000034090200000000004b
:100470000040da000000fe00600020000000e00004
:1004800002003200002020009001880000000600d9
:10049000a1028800800478000000eb001f003700f4
:1004a000e284440054a0b4009905ba00e2844400f8
:1004b00054a0b4009906ba00e284440054a0b400e9
:1004c0000006eb00476fde00fd07b200ae018800ba
:1004d000636ce10003003a000ad801000000eb0061
:1004e0000e003700606ce10008003a00004deb00a0
:1004f0000a05e800020039003420ec000af0a000f0
:100500008b05e900f9ff3e00040037006168e10057
:10051000010032000086eb000b00070019c7ba008b
:100520000e04e0001905ba0003003a000a00e000da
:10053000dbff3a0000000600fe07b200ae028800b2
:100540008a047800f5ff37000cd0a300e20f4d00bd
:100550001c00390089027800354dba000a05e80010
:10056000020039003420ec000af0a0008b05e900fd
:100570000f003200254dba000a05e80002003900dc
:100580003420ec000af0a0008b05e90008003200de
:100590000c00e0000600320015cdba000a05e800a4
:1005a000020039003420ec000af0a0008b05e900bd
:1005b0008984e80054a0b4000b00e000e2ff3a0098
:1005c000000006009902ba00055d78008b05e9007d
:1005d000f7ff3200c82ade00055d78008b05e900d0
:1005e000f3ff32000c00e000f1ff320019ddba0029
:1005f000eeff37000000fa000108a9000080fa00b1
:10060000004006003600f800809fbe00829fbe00ba
:10061000849fbe00869fbe000000fa000068a9000b
:100620002b0a0700f10d0700f4080700cd090700a9
:100630000080fa004f03be004f02be004f01be0013
:100640004f00be003600f900004006003600f800fa
:10065000809fbe00829fbe00849fbe00869fbe001a
:100660000000fa000368a900b0808000c18080000b
:1006700061004000e0804800b0808800c1808800b0
:10068000220307000080fa004f03be004f02be00a5
:100690004f01be004f00be003600f90000400600ca
:1006a000801f78000000fa0001a8a900001880004f
:1006b0009090880010188000a0908800201880007a
:1006c000b090880030188000c090880040188000ea
:1006d000d090880010c0b3002bf0b7000080fa0063
:1006e0004f007800004006003600f800809fbe00f2
:1006f000829fbe00849fbe00869fbe000000fa005d
:100700000188a900f1808000e0808000808f500087
:1007100002003200560d0700010037002070ef0084
:100720000080fa004f03be004f02be004f01be0022
:100730004f00be003600f900004006003600f80009
:10074000809fbe00829fbe00849fbe00869fbe0029
:100750000000fa000168a900101180006400600028
:100760000000e000010032002242a90010118000c8
:10077000620060000000e000060032002222a900b2
:10078000050037003011800000407800a70d0700f9
:1007900001003700000000001011800061006000bf
:1007a0000000e000f7ff3a000080fa004f03be00af
:1007b0004f02be004f01be004f00be003600f900e0
:1007c000004006000040da000000fe0000000500c6
:1007d00003f0a200889fbe008a9fbe008c1f780095
:1007e0007d010700840133006450e1004f003200b6
:1007f0006420e1005200320003826c0007003b00dd
:100800000905d0000306d000820f54000c065d00dd
:1008100002003900020032008901780003067800e6
:100820008582550004003d000003fd008103fd00aa
:100830008502ea008b854200840f720002003b00b3
:1008400060001000e08018006011b8000005eb00a7
:100850007a28e1000a00390006007800c75ddd0053
:10086000f707b200878075002d0037008281710084
:100870000a017800610560008180d1000080d3000a
:100880008502e900f9ff3b00060440008784480028
:1008900002003b0060041400e0841c000988a300ef
:1008a000070032008a817100828171006101640059
:1008b0008904d1000884d3008b05e80017003700b5
:1008c0000978a30013003a000b00e0001300340085
:1008d0008b05e9000804440089844c000a44740034
:1008e0000978a3000d003a000b00e0000700340077
:1008f0008b05e9000804440089844c0001003a009b
:100900000b0020000978a300f7ff32000001eb0084
:1009100002003700828171000a017800f3000700ad
:100920000cf0a70001f0a0003c0137006420e100ba
:1009300002003a00838f6c003c0133000801be00c6
:100940000200be00350137000081eb006e01370068
:10095000889fbe008a9fbe008c1f78001e01070082
:100960002501330003866c006450e1002e00320044
:100970006420e100330032006150e1002f003200ba
:100980006120e1003100320085855500eb07b000a1
:100990000900200008042000050037000804440076
:1009a00089844c000a0031000603430087834b0012
:1009b0000001530081815b00f8ff33000203be0099
:1009c0000800a0000804440089844c00f6ff3900a8
:1009d000c639dd00830173000100320013002000de
:1009e0008904d1000884d3000998a30005003200cf
:1009f0000800a7000300a0008904d1000884d300e8
:100a00008b05e8008904d1000884d3000001eb00c5
:100a10000281d200b500070001f0a1000cf0a70090
:100a200001f0a000fd0037006420e100ff0032006b
:100a30000801be000200be00f7ff37006120e100a0
:100a4000fa0032006000b800f3ff37000000200019
:100a500001f82700f0ff3700839f68000100e000e5
:100a600002003d0060001000e08018000300e0007c
:100a700002003d0060011100e08119008d010700b6
:100a80004f00e00002003b0060001000e080180012
:100a9000000006001400200096013700f4ff2f002c
:100aa000940137000001be00b60007000470a700e3
:100ab00003f0a1006509b100160032000d003500f9
:100ac0006828e10006003500f0ff2f00f1ff270045
:100ad0000300e00013003b000100280000000500b7
:100ae00000004000818048008502e900fcff3a00d8
:100af00008003700f88f420002003c008000eb0045
:100b0000000005008100d1000080d3008502e800cc
:100b1000fcff3a000300e00002003b006000100010
:100b2000e0801800000006000001be0095000700ec
:100b30000470a70003f0a10003f8a30013003a001b
:100b40006509b10010003200090035006928e10094
:100b500002003500010028000000050000004000f0
:100b6000818048008502e900fcff3a000000060091
:100b7000f88f4200050035008100d1000080d300cd
:100b80008502e800fcff3a00000006008000eb0050
:100b9000000005004f89de008201780070013700f7
:100ba0006011b8007e01370004002000000037000b
:100bb000889fbe008a9fbe008c1f78004f26dd00f4
:100bc000850007008c0033006120e1004300320003
:100bd0006250e10041003e003e0039006420e10027
:100be0003c003200058255000f003b000402e80083
:100bf00038003a00800f5300818f5b0035003400cd
:100c00000800be0003f0a10001f0a60003f0a00060
:100c10000cf0a700effe070080003700060343003a
:100c200087834b000c4646000005530081855b001e
:100c3000020033000a03be000c00a0000402e90019
:100c4000f6ff3b00850578000602430087824b00d3
:100c500004003a006000b80009f0a70001f0a0000d
:100c60006e0037000002520081825a000704e00043
:100c7000040033000603430087834b008b05e90023
:100c8000faff3700090578000604be000203be0023
:100c90006011b80015000700e00f5200e08f5a0005
:100ca0000700350002003c000c08a30004003200dd
:100cb0000601be0003f0a0000cf0a700c5fe07006f
:100cc0000a85680001f0a1000af0a70001f0a00069
:100cd000520037000800be0050003700100220000c
:100ce0000cf0a600708188005000370081002000c1
:100cf000618055000b003d000b00200061fe2f00bd
:100d00000100e1001d003400828171006101640076
:100d10008904d1000884d3000000e800faff3a00fb
:100d20007100200061006400030070000200600098
:100d30000900320061044400e0844c000988a500e9
:100d4000050032008b05e8006808e10002003a0067
:100d50008904d1000884d300f20f20000258e1007a
:100d600005003d00c75ddd00f907b2008980750010
:100d700008007800000006000bf827008b007800c0
:100d800000000500c70ade00f107b200f50fb2004f
:100d900008003200e1cf4200020032000170a000e2
:100da00024000500810f70000100320004080500d6
:100db00044000500810f700002003a001400050095
:100dc0008502e9000000400081c04800fcff3b00b4
:100dd0000170a000240005000004be00e9ff070028
:100de0000003be000405be000200be00e5ff0700d0
:100df000844f7500000006000200be006450e10050
:100e0000050036006420e100020036000968a300f6
:100e100001003a000800be000160a0004f06780003
:100e20004f05be004f04be0000000600f0ff2f007b
:100e3000f1ff2700f9ff3700889fbe008a9fbe00a0
:100e40008c1f7800e4ff0700ebff330003866c0083
:100e50006450e100240032006420e10027003200e9
:100e60006150e100220032006120e10021003200e7
:100e70008b854200eb07b1000134b800003ab8009e
:100e80000804420089844a00013ab8000030b800e2
:100e90008880400009014a0004003300000040003f
:100ea00081804800020149008b05e900c909dd0085
:100eb000830170000100320013002000c814de001e
:100ec0004814dd004709de001200b200c808de0049
:100ed0000884700085ff070001f0a1000cf0a70056
:100ee00001f0a000cdff37006120e100cfff32000c
:100ef0000801be000200be00f7ff37006150e100ac
:100f0000fcff3a00c9ff3700889fbe008a9fbe00e1
:100f10008c9fbe00820578000004be0099ff070088
:100f20000800be006420e1000700390002003a001a
:100f3000f1ff2700f0ff2f000160a0001202200047
:100f400072818800550037006120e10003003a00fb
:100f50000b00a70001f823005000370001f0a100aa
:100f60000200210093642400cafe07000800be00ae
:100f700004003500b2fd2000930c24000aff070096
:100f80000004be000005eb000b00a6004f0dde00c4
:100f900001f0a1000004be0032982f0023ea2300d4
:100fa000a5ff07000001eb0003f023000b00a700e2
:100fb00003f8230007fe0700bafe07000000a700a1
:100fc0000a00a200f3fe07000b00e000030032005d
:100fd0000200200003f02300fdfd070001f0a20045
:100fe0000006be00020020009304240092ff0700c8
:100ff0000801be00f7fd0700809fbe000c00be0088
:1010000022a22a00d3a723008bff07004f01be00b6
:10101000f0fd07000004be0001f0a1000200200066
:10102000039823009bfe07000800be00190035004e
:101030000001be0080ff07000006be00b2c5290007
:10104000e36223007cff070022222b00f3942b0095
:10105000e0fd07000c01be0077ff0700e2732800e7
:1010600083c02300dbfd07000c01be0072ff0700f8
:1010700042aa2a00a3e22b00d6fd07000c01be0005
:101080006dff07000801be006bff07000801be00ee
:10109000d0fd07000a00a70001f0a2004f06be0025
:1010a0004f05be004f04be00000006000001eb002b
:1010b00095ff37006022b800060220000000d00033
:1010c0008180d2000482d2008582d2000000a0007c
:1010d0000202520083825a000300310002024200e1
:1010e00083824a000000a1000603e900f3ff3a00f2
:1010f00000000600889fbe008a9fbe00841f780003
:1011000035ff07004f00780011003300f0ff2f007b
:10111000838f6c0006003b00040565000a00a700f1
:101120000800370009f0a600100020000800370072
:10113000820f5400838f5c000300390010002000f0
:1011400001003e000000200009f0a7000000ea00b6
:101150004f05be004f04be000000e0000000060086
:10116000881f7800030478000300e00007003d00ba
:1011700060001000e080180060011900e081190093
:1011800002003b0001f02d000300370004000700bf
:1011900008f0a70001f0a0004f047800000006004e
:1011a000889fbe008a9fbe0000827000040271000a
:1011b00004827100260032000004be000200be005e
:1011c0006011b8006b092000950220000182cf0059
:1011d0000a0039000541b1000082cf000700390044
:1011e0000541b1000982cf00040039000541b1007a
:1011f0000882cf00010039000541b10005425200cc
:10120000120032000a003b0082817100610164001b
:101210008100d1000080d3008984d3000884d300ea
:101220008b05e8000442e800f7ff3a0007003700aa
:101230000804440089844c00000048008180480074
:101240008b05e9000442e900f9ff3a00a7fe070018
:0c1250004f05be004f04be000000060069
:020000040000fa
:0c125c00736100006c750000740000005d
:020000040000fa
:101268000800fa00960b0700330b07006f0307000e
:10127800a2030700e4060700a00a07001e040700ef
:10128800ba0b0700bb070700c8050700d005070011
:101298000000eb00000f780003003700f40a070095
:1012a800210507001e0fe800120b07009e0f5000d3
:1012b800faff3c00f08e8000e10f50000f003a006a
:1012c800008f8000118f8000f4fd07001007980040
:1012d800208f8000318f8000f0fd070020079800e4
:1012e800418f8000310798003e019000ae009000c9
:1012f8001e00900073080700e5ff37009d070700f0
:10130800e3ff37000000fa0026d0bf000080fb0092
:10131800cf80de005201200003002000820f500021
:10132800838f5800f7003e000006010015003700c3
:10133800260037002f0037004100370042003700f1
:101348005400370055003700670037006800370041
:101358007a0037007b0037008d003700e90037003e
:10136800e8003700cb003700dd0037008a0037007f
:101378009c0037009d003700af003700b0003700f1
:10138800c20037001630ef001830ef006000b800d8
:10139800d08e8800e18e88006000b800b08e88008a
:1013a800c18e8800d08e8000e18e80000041eb0065
:1013b800b1060700b08e8000c18e800012c0b30055
:1013c800ad06070010c0b30026f0b700b280800059
:1013d800c3808000803e200001002000800f510063
:1013e800818f5900ca00360020c0b30026f0b7002c
:1013f800ca00370000002000811c2c00d08e880015
:10140800e18e880000002000811c2400b08e880036
:10141800c18e8800d08e8000e18e80000041eb00f4
:1014280095060700b08e8000c18e800012c0b30000
:101438009106070030c0b30026f0b700b7003700a8
:10144800b8000700b500370000002000811c2c0000
:10145800d08e8800e18e88000000200001172c0043
:10146800b08e8800c18e8800d08e8000e18e80000a
:101478000041eb0080060700b08e8000c18e80001e
:1014880012c0b3007c06070050c0b30026f0b700b6
:10149800a2003700a3000700a000370000002000ca
:1014a80001172400d08e8800e18e880000002000fb
:1014b800811c2400b08e8800c18e8800d08e8000e8
:1014c800e18e80000041eb006b060700b08e8000c3
:1014d800c18e800012c0b3006706070070c0b30059
:1014e80026f0b7008d0037008e0007008b0037000c
:1014f80000002000011a2c00d08e8800e18e8800a0
:1015080000002000011a2c00b08e8800c18e8800cf
:10151800d08e8000e18e80000041eb005606070067
:10152800b08e8000c18e800012c0b3005206070042
:1015380090c0b30026f0b7007800370079000700a4
:101548007600370000002000011a2400d08e8800a1
:10155800e18e880000002000011a2400b08e880067
:10156800c18e8800d08e8000e18e80000041eb00a3
:1015780041060700b08e8000c18e800012c0b30003
:101588003d060700b0c0b30026f0b700630037007f
:10159800640007006100370000002000011a2c00d9
:1015a800d08e8800e18e880000002000011a2400f7
:1015b800b08e8800c18e8800d08e8000e18e8000b9
:1015c8000041eb002c060700b08e8000c18e800021
:1015d80012c0b3002806070010c1b30026f0b700f8
:1015e8004e0037004f0007004c0037000000200075
:1015f80001172c00d08e8800e18e880000002000a2
:10160800010a2400b08e8800c18e8800d08e800028
:10161800e18e80000041eb0017060700b08e8000c5
:10162800c18e800012c0b3001306070030c1b3009a
:1016380026f0b700390037003a00070037003700b6
:101648000000200001172c00d08e8800e18e880051
:1016580000002000010a2400b08e8800c18e880096
:10166800d08e8000e18e80000041eb00020607006a
:10167800b08e8000c18e800012c0b300fe05070046
:1016880050c1b30026f0b70024003700250007003a
:101698002200370000002000811c2400d08e880022
:1016a800e18e880000002000811c2c00b08e88008c
:1016b800c18e8800d08e8000e18e80000041eb0052
:1016c800ed050700b08e8000c18e800012c0b30007
:1016d800e9050700f0c0b30026f0b7000f00370097
:1016e800b2808000c3808000803e2000010020007e
:1016f800800f5100818f590007003600090007004c
:10170800060037000700070000000000030037004c
:101718000000000001003700000000000080fa000f
:10172800000006000600fa00881f78000040eb0061
:10173800004f7800308e8000418e800018c0b300c2
:1017480002002000031a2400d0fc07000000e0007b
:10175800010035000044eb000804e0002f003200cf
:10176800508e8000618e800018c0b30002002000f7
:10177800031a2400c5fc07000000e0000100350042
:101788000044eb000804e00024003200708e800062
:10179800818e800018c0b30002002000031a2400c4
:1017a800bafc07000000e000010035000044eb002f
:1017b8000804e00019003200108e8000218e80009d
:1017c80018c0b30002002000031a2400affc070071
:1017d8000000e000010035000044eb000804e000d0
:1017e8000e003200908e8000a18e800018c0b300d9
:1017f80002002000031a2400a4fc07000000e000f7
:10180800010035000044eb000804e000030032004a
:1018180080c0b300004f780088013700308e800008
:10182800418e800018c0b30002002000031a240073
:1018380096fc07000000e000010035000044eb00c2
:101848000804e00019003200508e8000618e80008c
:1018580018c0b30002002000031a24008bfc070004
:101868000000e000010035000044eb000804e0003f
:101878000e003200708e8000818e800018c0b30088
:1018880002002000031a240080fc07000000e0008a
:10189800010035000044eb000804e00003003200ba
:1018a800c0c0b300004f780064013700308e80005c
:1018b800418e800018c0b30002002000031a2400e3
:1018c80074fc07000000e00001003c000044eb004d
:1018d8000804e0002f003200508e8000618e8000e6
:1018e80018c0b30002002000031f240069fc070091
:1018f8000000e00001003c000044eb000804e000a8
:1019080024003200708e8000818e800018c0b300e1
:1019180002002000031a24005efc07000000e0001b
:1019280001003c000044eb000804e000190032000c
:10193800108e8000218e800018c0b30002002000a5
:101948000312240051fc07000000e00001003500ec
:101958000044eb000804e0000e003200908e800086
:10196800a18e800018c0b3000200200003122400da
:1019780046fc07000000e000010035000044eb00d1
:101988000804e00003003200d0c0b300004f780024
:101998002a013700308e8000418e800018c0b300c5
:1019a800020020000312240038fc07000000e000b9
:1019b800010035000044eb000804e0001900320083
:1019c800508e8000618e800018c0b3000200200095
:1019d800031f24002ffc07000000e00001003c006a
:1019e8000044eb000804e0000e003200708e800016
:1019f800818e800018c0b30002002000031224006a
:101a080022fc07000000e000010035000044eb0064
:101a18000804e0000300320040c0b300004f780023
:101a280006013700308e8000418e800018c0b30058
:101a380002002000031f240014fc07000000e0003f
:101a4800010035000044eb000804e00019003200f2
:101a5800508e8000618e800018c0b3000200200004
:101a6800031f24000bfc07000000e00001003c00fd
:101a78000044eb000804e0000e003200708e800085
:101a8800818e800018c0b30002002000031f2400cc
:101a980000fc07000000e00001003c000044eb00ef
:101aa8000804e0000300320020c0b300004f7800b3
:101ab800e2003700308e8000418e800018c0b300ed
:101ac80002002000031f2400f2fb07000000e000d2
:101ad80001003c000044eb000804e000190032005b
:101ae800508e8000618e800018c0b3000200200074
:101af800031f2400e7fb07000000e00001003c0092
:101b08000044eb000804e0000e003200708e8000f4
:101b1800818e800018c0b30002002000031f24003b
:101b2800dafb07000000e000010035000044eb008c
:101b38000804e0000300320010c0b300004f780032
:101b4800be003700508e8000618e800018c0b30040
:101b580002002000031a2400ccfb07000000e0006c
:101b6800010035000044eb000804e00003003200e7
:101b780060c0b300004f7800b0003700508e80007e
:101b8800618e800018c0b30002002000831c24006e
:101b9800befb07000000e000010035000044eb0038
:101ba8000804e0000e003200508e8000618e800034
:101bb80018c0b30002002000031a2400b5fb070078
:101bc8000000e00001003c000044eb000804e000d5
:101bd8000300320070c0b300004f78009700370050
:101be800308e8000418e800018c0b30002002000b3
:101bf800031f2400a7fb07000000e00001003c00d1
:101c08000044eb000804e0002f003200508e8000f2
:101c1800618e800018c0b30002002000031f24005a
:101c28009cfb07000000e00001003c000044eb00c2
:101c38000804e00024003200708e8000818e80004d
:101c480018c0b30002002000031f240091fb070006
:101c58000000e00001003c000044eb000804e00044
:101c680019003200108e8000218e800018c0b30049
:101c780002002000031a240084fb07000000e00093
:101c8800010035000044eb000804e0000e003200bb
:101c9800908e8000a18e800018c0b3000200200042
:101ca800031f24007bfb07000000e00001003c004c
:101cb8000044eb000804e00003003200e0c0b30079
:101cc800004f78005d003700308e8000418e800024
:101cd80018c0b30002002000031f24006dfb07009a
:101ce8000000e00001003c000044eb000804e000b4
:101cf8002f003200508e8000618e800018c0b30023
:101d080002002000031f240062fb07000000e0001f
:101d180001003c000044eb000804e000240032000d
:101d2800708e8000818e800018c0b30002002000f1
:101d3800031f240057fb07000000e00001003c00df
:101d48000044eb000804e00019003200108e800007
:101d5800218e800018c0b30002002000031f240059
:101d68004cfb07000000e00001003c000044eb00d1
:101d78000804e0000e003200908e8000a18e8000e2
:101d880018c0b30002002000031a24003ffb07001c
:101d98000000e000010035000044eb000804e0000a
:101da80003003200f0c0b300004f78002300370072
:101db800308e8000418e800018c0b30002002000e1
:101dc800031f240033fb07000000e00001003c0073
:101dd8000044eb000804e00018003200508e800038
:101de800618e800018c0b30002002000031f240089
:101df80028fb07000000e00001003c000044eb0065
:101e08000804e0000d003200708e8000818e800092
:101e180018c0b30002002000031f24001dfb0700a8
:101e28000000e00001003c000044eb000804e00072
:101e3800020032000040eb00004f78001e4078009e
:101e4800e84f500003003a00e0c0b30027f0b700a5
:101e58004d0037001e407800ea4f500003003a005a
:101e680080c0b30027f0b700470037001e40780055
:101e7800eb4f500003003a0080c0b30027f0b700d2
:101e8800410037001e407800ec4f500003003a0034
:101e980080c0b30027f0b7003b0037001e40780031
:101ea800ed4f500003003a0000c1b30027f0b7001f
:101eb800350037001e407800e44f500003003a0018
:101ec80080c0b30027f0b7002f0037001e4078000d
:101ed800e34f500003003a0000c1b30027f0b700f9
:101ee800290037001e407800e24f500003003a00f6
:101ef80040c0b30027f0b700230037001e40780029
:101f0800e14f500003003a0060c0b30027f0b7006b
:101f18001d0037001e407800e64f500003003a00cd
:101f280080c0b30027f0b700170037001e407800c4
:101f3800e74f500003003a0000c1b30027f0b70094
:101f4800110037001e407800ee4f500003003a00a1
:101f580040c1b30027f0b7000b0037001e407800df
:101f6800ef4f500003003a0020c1b30027f0b7003c
:101f7800050037001e4078000004e00002003a0027
:101f880020c0b30027f0b70027d0bf008080fb0037
:101f980026d0bf000080fb000000e900808f5000c1
:101fa8001f00320027d0bf0026f0b70026d0bf00a0
:101fb80010479800b0808000c18080004808de008b
:101fc8000040780020479800b0808000c1808000e1
:101fd8004008de000040780030479800b08080005c
:101fe800c18080004809dd004800de000000710063
:101ff800c808de000040780040479800b0808000a4
:10200800c180800000407800504798000e00e8002a
:10201800000178005100200000052000650107003c
:102028004f0478000080fa00000006000400fa005f
:1020380013e1a90011e1a9001061a8001021a9006d
:1020480081088000f0fc2f00008060000040a000a4
:10205800800888000a21ef000621ef00404c20008c
:102068007008880000402b00600888008008800005
:102078004400de00634060000081fb008001eb004b
:10208800700880008000eb00c002dd000400200022
:10209800600880008000eb00040040008580480054
:1020a800809ab900828bb900860278000502420046
:1020b8000010b80001024200840078000001be0050
:1020c80000a025002126200061fa0700affa0700ca
:1020d800008fbe002142800080ff2f00008060003a
:1020e8000000a000204288000108a9002108a800db
:1020f80011e1a8000080fa00000006000000fa00c4
:1021080005e1a9000421a90000002000a13724004e
:10211800050007000068a9002068a80005e1a800dc
:102128000080fa00000006000400fa00881f78000a
:10213800008fbe0021088000f0fc2f0000806000a6
:10214800200888001e0178009e0190000068290080
:1021580081c12400fcf9070018c0b30002f02f0069
:10216800f37724004bfa07000000e00001003c0070
:102178000044eb000804e00054003200210880000d
:10218800f0fc2f00008060000040a00020088800bc
:102198001e0178009e0190000068290081c124007a
:1021a800e9f907000200200003102400e6f90700ff
:1021b80018c0b30002f02f00f377240035fa0700a7
:1021c8000000e00001003c000044eb000804e000cf
:1021d8003200320021088000f0fc2f0000806000ef
:1021e8000050a000200888001e0178009e01900081
:1021f8000068290081c12400d3f9070002002000eb
:1022080003282400d0f9070018c0b30002f02f00fb
:10221800f37724001ffa07000000e00001003c00eb
:102228000044eb000804e0001000320021088000a0
:102238000003200001007000200888001e017800bb
:102248009e0190000068290081c12400bef90700a2
:102258000200200003382400bbf907000ffa07002a
:102268000000780010088800200037001e01780060
:102278009e0190000068290081c12400b2f907007e
:102288000200200003282400aff9070003fa070022
:102298000000780010088800140037001e0178003c
:1022a8009e0190000068290081c12400a6f907005a
:1022b8000200200003102400a3f90700f7f9070023
:1022c8000000780010088800080037001e01780018
:1022d8009e0190000068290081c124009af9070036
:1022e800eef9070000007800100888004f04780015
:1022f8000080fa00000006000000fa00000020003c
:10230800a1472400070007001fe1a9001e21a9001a
:102318000368a9002368a8001fe1a8000080fa004c
:10232800000006000400fa00881f7800008fbe0035
:10233800f1088000f0fc2f0000806000f0088800a1
:102348001e0178009e0190000068290081c12400c8
:102358007df9070018c0b30002f02f00f3772400be
:10236800ccf907000000e00001003c000044eb004d
:102378000804e00054003200f1088000f0fc2f004f
:10238800008060000040a000f00888001e0178006e
:102398009e0190000068290081c124006af90700a5
:1023a800020020000310240067f9070018c0b300da
:1023b80002f02f00f3772400b6f907000000e000d0
:1023c80001003c000044eb000804e0003200320049
:1023d800f1088000f0fc2f00008060000050a00091
:1023e800f00888001e0178009e019000006829000e
:1023f80081c1240054f907000200200003282400aa
:1024080051f9070018c0b30002f02f00f377240039
:10241800a0f907000000e00001003c000044eb00c8
:102428000804e00010003200f108800000032000da
:1024380001007000f00888001e0178009e019000dd
:102448000068290081c124003ff90700020020002c
:10245800033824003cf9070090f9070000007800d1
:10246800d0088800200037001e0178009e019000e7
:102478000068290081c1240033f907000200200008
:102488000328240030f9070084f9070000007800c9
:10249800d0088800140037001e0178009e019000c3
:1024a8000068290081c1240027f9070002002000e4
:1024b8000310240024f9070078f9070000007800c9
:1024c800d0088800080037001e0178009e0190009f
:1024d8000068290081c124001bf907006ff9070073
:1024e80000007800d00888004f0478000080fa00c7
:1024f800000006000a00fa0020079800310798003b
:1025080042079800e0cfb300004f78002e009000fb
:102518004880de00804078001e40780000c06800d7
:10252800004f78002e009000804078001e40780010
:1025380000c06800004f78003e0090004880de0030
:10254800804078001e40780000c06800004f780086
:102558003e009000804078001e40780000c068006f
:10256800004f78000000eb00100798000000eb0017
:1025780010079800080037001e009000ce00900059
:1025880000804000104078001e4f68001e00900038
:102598000000e800100798009e0090003e009000a0
:1025a800808f5000f4ff35001e4078000080fa004c
:1025b800000006001000fa00889fbe00500798002f
:1025c80061079800720798000f0478000f007800e0
:1025d800800478006e009000660040008000e900ea
:1025e800210798000000e8000000e8000000d10082
:1025f800800040000f007800818747000000e80055
:102608000000d10000004000300798000000eb00f7
:10261800000f78003e0090001e004000e1cfb3009c
:10262800014878001e0fe8005e0090004880de0038
:10263800804078003e0090001e004000014878006d
:102648001e0fe8005e009000804078003e00900079
:102658001e004000014878001e0fe8006e00900040
:102668004880de00804078003e0090001e00400058
:10267800014878001e0fe8006e0090008040780046
:102688003e0090001e004000014878001e0fe80040
:102698000000eb00100798000000eb0010079800fe
:1026a8000b0037001e009000fe00900000804000e4
:1026b800904078003e0090001e00400001487800dd
:1026c8001e0fe8001e0090000000e80010079800a8
:1026d8009e0090006e009000808f5000f1ff350042
:1026e8007e019000ee0090005e00900081ff0700e0
:1026f800004f98003e0090001e0040008e48900059
:10270800014878001e0fe8003e0090009e00780007
:102718001905070089077800880778004f04be006c
:102728000080fa00000006000200fa00004f78005e
:1027380060808000e30f500028003200e30f500053
:1027480007003c00e10f500015003200e10f500077
:102758001b003c000000e000080032005300370076
:10276800e50f500031003200e50f5000230035001e
:10277800e60f50003b0032004c0037001e40780046
:10278800e24f40004c003a000230ef000430ef0006
:102798000630ef00100020006080880049003700f4
:1027a8001e80fb0010808800108080004800dd003b
:1027b80010808800200020006080880041003700d9
:1027c8009e80fb0010808000008040001080880000
:1027d80030002000608088003a0037001e80fb002f
:1027e80020808800208080004800dd00208088004c
:1027f8004000200060808800320037009e80fb0087
:102808002080800000804000208088002080800098
:102818000000e00002003a000c30ef002900370009
:10282800500020006080880026003700308080003b
:1028380001132100008040001e487800308080008d
:102848000000e8003080880031808000208080000f
:10285800808f50001a003a006000200060808800d5
:10286800180037001e80fb005080880021808000ff
:1028780010808000021321001eff07000080fb006b
:10288800408088004180800050808000808f500008
:1028980004003a002180800010808000021321008b
:1028a800200007000c30ef00060037000c30ef0066
:1028b800000000000300370000000000010037009e
:1028c800000000000080fa00000006000200fa0084
:1028d800000f78000080fa00000006000200fa00ed
:1028e800000f78001e0078001040780000f0b70054
:1028f80000d0bf000080fb00f08e8800f08e8000c2
:10290800e10f500003003a0010002000f08e88000c
:10291800020037000000eb00f08e88000080fa000b
:10292800000006000600fa00000f78001107980062
:10293800220798001e007800cf80de0093f8070079
:10294800008f8800118f88001e009000cf80de0065
:102958008ef80700208f8800318f8800ae00900025
:10296800418f88001e0078000000e0000c00320053
:1029780021052000810f500005003a002e0090002c
:10298800d6ff07000000eb00000f780005003700b5
:102998000000eb00000f7800000000000100370085
:1029a800000000000080fa00000006000000fa00a5
:1029b800c301a8000080eb00e00e88000080eb0057
:1029c800f00e8800c1e1a8000080fa0000000600af
:1029d8000000fa00c305a8000080eb00e02e880084
:1029e8000080eb00f02e8800c1e5a8000080fa0006
:1029f800000006002800fa00889fbe008a9fbe00db
:102a08007280800083808000028fbe0092808000e8
:102a1800a38080002207980033079800300e8000ba
:102a28008000eb004007980051079800500e800086
:102a38008000eb00c000dd00000020004e01900087
:102a4800de019000020040008380480040079800a3
:102a580051079800302e80008000eb006007980036
:102a680071079800502e80008000eb00c000dd0048
:102a7800000020006e019000fe019000020040005e
:102a88008380480060079800710798004e00900006
:102a9800de0090003df80700d25d2b0043c82300fc
:102aa800e3f80700000f9800110f98006e009000df
:102ab800fe00900035f80700d25d2b0043c82b00bc
:102ac800dbf80700200f9800310f98001e017800ee
:102ad8009e0190000e0890009e0890003af70700ab
:102ae800400f9800510f98002e019000be019000f1
:102af8002e089000be08900033f70700600f98007a
:102b0800710f98006e099000fe0990004e08900021
:102b1800de0890002cf70700a2992900c33824008a
:102b280089f7070000179800111798006e099000a0
:102b3800fe0990004e089000de08900023f7070079
:102b480002002000030024007ff7070020179800e8
:102b58003117980002002000a33724004e08900087
:102b6800de089000b2f80700508f8800618f880057
:102b780002002000a33724006e089000fe08900091
:102b8800abf80700708f8800818f8800548f800011
:102b9800658f8000708f8000818f80000001be00eb
:102ba8000400be0009f7070002002000030024000b
:102bb80065f70700908f8800a18f88000200200029
:102bc800a33724000e1090009e10900098f807007c
:102bd800b08f8800c18f8800f08f8000019080003e
:102be800d08f8800e18f880030908000419080006d
:102bf800109088002190880070908000819080005b
:102c08005090880061908800d88f8000e98f8000fc
:102c1800908f8000a18f800002002000a33724003d
:102c280083f807000005be00509080006190800086
:102c380043f707000001be000a00be007cf8070049
:102c48000001be000800be00e0f60700f08f880013
:102c5800019088001890800029908000908f800053
:102c6800a18f800002002000a337240070f807001d
:102c78000005be00509080006190800009f90700af
:102c88000001be000a00be0069f807000001be008e
:102c98000800be00cdf607003090880041908800fb
:102ca80050908000619080000e1190009e1190005d
:102cb800c6f60700709088008190880070908000a8
:102cc8008190800018c0b30062e5200093042400be
:102cd80070f707000000e00001003c000044eb0032
:102ce8000804e000070032007090800081908000a6
:102cf80062e52000930c2400b3f60700709088006a
:102d080081908800709080008190800018c0b30086
:102d180062e5200093042c005cf707000000e00047
:102d2800010035000044eb000804e0000700320011
:102d3800709080008190800062e52000930c240050
:102d4800a2f6070070908800819088004f05be00a9
:102d58004f04be000080fa00000006001800fa00c8
:102d6800b0808000c18080000001be008000eb00c0
:102d78000e0078004d030700f08f8000019080005e
:102d88000001be00410020000e0078002e0307005d
:102d980030908000419080000001be00810020003a
:102da8000e00780028030700709080008190800052
:102db8000001be00c10020000e00780022030700b9
:102dc800908f8000a18f80000001be0001012000cb
:102dd8000e0078001c030700b08f8000c18f8000b0
:102de8000001be00410120000e0078001603070014
:102df8000e0178008101200010062000edfd07007b
:102e08000080fa00000006000000fa00116080004f
:102e180080ff2f00008060001060880000fa20000a
:102e28002060880023aca800238ca80011618000d2
:102e3800f03f2f000080600000a0a0001061880013
:102e48003000200020618800c3aca800c38ca80013
:102e580011668000f03f2f000080600000a0a000f5
:102e680010668800300020002066880001eca80069
:102e78000080fa00000006000600fa00008fbe007d
:102e8800424798004e4090000004e00005003a00d8
:102e98001e0178009e019000d28d8800e38d880085
:102ea800070037004e409000e14f500004003a0000
:102eb8001e0178009e019000928d8800a38d8800e5
:102ec8000080fa00000006000000fa00889fbe009b
:102ed8008a9fbe00f48d8000058e8000d08d800012
:102ee800e18d800018c0b3000001be000400be00e0
:102ef800e6f607000000e000010035000044eb00a2
:102f08000804e0000f003200d88d8000e98d8000b1
:102f1800fa8d80000b8e800028d0bf000080fb0057
:102f2800cf80de0019f707000001be000a00be00ce
:102f380026f607000801be0034020700f08d88005d
:102f4800018e8800f48d8000058e8000d08d800071
:102f5800e18d800018c0b3000001be000400be006f
:102f6800ccf607000000e00001003c000044eb0044
:102f78000804e0000f003200d88d8000e98d800041
:102f8800fa8d80000b8e800028d0bf000080fb00e7
:102f9800cf80de00fdf607000001be000a00be007b
:102fa80009f607000801be0000020700f08d88003e
:102fb800018e8800f08d8000018e800018c0b3005b
:102fc8006011b800b3f607000000e00001003c0003
:102fd8000044eb000804e00004003200c3cca90060
:102fe80024eea800c3eca80003003700c3eca90036
:102ff80024cea800c3cca800f08d8000018e8000ec
:10300800d4010700020020000322240088f70700eb
:10301800c3f607000000780030668800b48d800091
:10302800c58d8000908d8000a18d800018c0b300f0
:103038000001be000400be0094f607000000e00096
:10304800010035000044eb000804e0000f003200e6
:10305800988d8000a98d8000ba8d8000cb8d80006e
:1030680028d0bf000080fb00cf80de00c7f6070035
:103078000001be000a00be00d4f507000801be002a
:10308800e2010700b08d8800c18d8800b48d8000f2
:10309800c58d8000908d8000a18d800018c0b30080
:1030a8000001be000400be007af607000000e00040
:1030b80001003c000044eb000804e0000f0032006f
:1030c800988d8000a98d8000ba8d8000cb8d8000fe
:1030d80028d0bf000080fb00cf80de00abf60700e1
:1030e8000001be000a00be00b7f507000801be00d7
:1030f800ae010700b08d8800c18d8800b08d8000ba
:10310800c18d800018c0b3006011b80061f60700d7
:103118000000e00001003c000044eb000804e0006f
:103128000400320023cca90015eea80023eca80067
:103138000300370023eca90015cea80023cca80073
:10314800b08d8000c18d8000820107000200200040
:103158000322240036f7070071f607000000780004
:10316800306188004f05be004f04be000080fa00a1
:10317800000006001200fa0022030700e14f500089
:10318800ce003a00230307001a030700100798002f
:103198001e0090000080e800100078008000eb001e
:1031a8007df60700323323003305240020f707009b
:1031b8000200200003582400e3f50700d2cc2c00bd
:1031c800c30424001af70700200798003107980065
:1031d8002e019000be0190000000200081202400f4
:1031e800d9f5070002002000030a240076f507003d
:1031f800308e8800418e88001e00900064004000d8
:10320800100078008000eb0063f6070032332300db
:103218003305240006f707000200200003582400a5
:10322800c9f50700d2cc2c00c304240000f707001e
:1032380020079800310798002e019000be019000e9
:103248000000200081202400bff5070002002000b4
:10325800030a24005cf50700508e8800618e880000
:103268001e00900068004000100078008000eb000d
:1032780049f607003233230033052400ecf6070033
:103288000200200003582400aff50700d2cc2c0020
:10329800c3042400e6f607002007980031079800c9
:1032a8002e019000be019000000020008120240023
:1032b800a5f5070002002000030a240042f50700d4
:1032c800708e8800818e88001e0090006600400085
:1032d800100078008000eb002ff60700323323003f
:1032e80033052400d2f6070002002000035824000a
:1032f80095f50700d2cc2c00c3042400ccf60700b7
:1033080020079800310798002e019000be01900018
:1033180000002000812024008bf507000200200017
:10332800030a240028f50700908e8800a18e8800e3
:103338001e009000100078008000eb0016f60700d1
:103348003233230033052400b9f6070002002000b9
:10335800035824007cf50700d2cc2c00c3042400b9
:10336800b3f6070020079800310798002e01900057
:10337800be019000000020008120240072f50700a3
:1033880002002000030a24000ff50700108e8800b1
:10339800218e8800e092280051002000f6010700e5
:1033a8000000eb00000f780006003700b0020700ad
:1033b800404f98006c00470011002000ee01070004
:1033c8001e0fe800cb0207009e0f5000f7ff3c00dd
:1033d80061818000a0002000000178001100090030
:1033e8008200d8008000fd000000e0002d003a00b7
:1033f800708e8000818e8000a8f50700004078005c
:10340800504f9800508e8000618e8000a3f5070011
:1034180000407800604f9800308e8000418e800018
:103428009ef5070000407800704f9800300020009b
:10343800400798006d00470000017800ce0090001a
:10344800000320005bfc0700b08e8000c18e800066
:1034580092f507000000780000f0a7000000ea00dd
:103468000040780000579800d08e8000e18e8000e0
:103478008af507000000780000f0a7000000ea00c5
:10348800004078001057980020002000500798004e
:103498007000470000017800de0090000004200062
:1034a80044fc0700608180000000e800608188001b
:1034b80000c4290001002000440307000080fa002e
:1034c800000006000600fa00000f780011079800b7
:1034d800220798000041eb006000b80066fe070074
:1034e80012c0b3006000b80063fe07002e01900010
:1034f8009e0090001e007800020007000080fa007d
:10350800000006000600fa00000f78001107980076
:10351800220798001e00780011052000810f500036
:103528000900320011052000810f500080003c0086
:103538000000e0008200320001022000810f5000ec
:10354800300032007a0037002e00900010407800da
:10355800e84f500008003a000041eb00000020004e
:10356800011a2c0044fe070012c0b300000020001e
:10357800011a2c0040fe07002e0090001040780031
:10358800ea4f500008003a000041eb00000020001c
:10359800011a240038fe070012c0b3000000200002
:1035a800011a240034fe07002e0090001040780015
:1035b800e24f500008003a000041eb0000002000f4
:1035c800011a2c002cfe070012c0b30000002000d6
:1035d800011a240028fe07002e00900010407800f1
:1035e800ec4f500058003a000041eb006000b80072
:1035f80021fe070012c0b3006000b8001efe0700dd
:10360800520037002e0090009040780090c4b3001c
:1036180080cf500007003a002e0090000000e8001c
:103628009040780010c3b30080cf500001003a00ea
:10363800254ea8002e00900090407800f0c4b300fa
:1036480080cf500007003a002e0090000000e800ec
:103658009040780010c3b30080cf500001003a00ba
:10366800254ea9002e0090009040780090c4b30029
:1036780080cf500007003a002e0090000000e800bc
:103688009040780020c3b30080cf500001003a007a
:1036980064cea8002e00900090407800f0c4b300db
:1036a80080cf500007003a002e0090000000e8008c
:1036b8009040780020c3b30080cf500001003a004a
:1036c80064cea9002e0090009040780090c4b3000a
:1036d80080cf500007003a002e0090000000e8005c
:1036e8009040780030c3b30080cf500001003a000a
:1036f80064eea8002e00900090407800f0c4b3005b
:1037080080cf500007003a002e0090000000e8002b
:103718009040780030c3b30080cf500001003a00d9
:1037280064eea9000000eb00000f780007003700e6
:103738000000eb00000f78000000000003003700d5
:103748000000000001003700000000000080fa00bf
:10375800000006000400fa00881f7800008fbe00f1
:1037680018c0b3006011b8001e0078009e009000d9
:10377800c8f407000000e00001003d000044eb0031
:103788000804e000030032001e0078009e0090004c
:10379800030037001e0078009e00900001f0a20090
:1037a8004f0478000080fa00000006000800fa00c4
:1037b800881f7800008fbe00220798003307980002
:1037c80018c0b3002e019000be0190001e007800c2
:1037d8009e009000aff407000000e00001003c00ec
:1037e8000044eb000804e000030032001e007800eb
:1037f8009e009000020037002e009000be0090004e
:103808004f0478000080fa00000006000800fa0063
:10381800881f7800008fbe002207980033079800a1
:1038280018c0b3002e019000be0190001e00780061
:103838009e00900095f407000000e00001003500ac
:103848000044eb000804e000030032001e0078008a
:103858009e009000020037002e009000be009000ed
:103868004f0478000080fa00000006000c00fa00ff
:10387800881f7800008fbe00220798003307980041
:10388800440798005507980018c0b3004e019000ef
:10389800de0190001e0078009e0090007df4070075
:1038a8000000e00001003c000044eb000804e000d8
:1038b800040032004e019000de019000028fbe002d
:1038c8000e00370018c0b3002e019000be01900012
:1038d8001e0078009e0090006cf407000000e000d5
:1038e800010035000044eb000804e000030032004a
:1038f8002e019000be019000028fbe001e007800cd
:103908009e0090004f0478000080fa000000060036
:103918000400fa00008fbe00b2fd200093042400ca
:103928001e0078009e00900007f4070002002000a7
:10393800433324003ef507000080fa00000006002b
:103948000400fa00008fbe00b2fd2000930424009a
:103958001e0078009e00900035f507000200200048
:1039680043332400f8f307000080fa000000060043
:103978000800fa002007980031079800b2fd2000df
:10398800930424002e009000be0090008ef30700e0
:10399800b2fd2000930c240081f40700b2fd200042
:1039a8009304240089f30700008fbe00b2fd2000b5
:1039b800930424001e0078009e00900083f3070003
:1039c800b2fd2000930c240075f40700b2fd20001e
:1039d800930424007cf307000080fa00000006002e
:1039e8000a00fa003007980041079800be009000ce
:1039f8004e009000008f40001e00780010017800f3
:103a08009001900012079800230798001e0090006c
:103a1800ae0090000080fa00000006000600fa00e0
:103a280010079800210798009e0090002e00900033
:103a3800008f40001e007800900090001000780071
:103a48000080fa00000006000c00fa002007980029
:103a5800310798004207980053079800680047000c
:103a6800100798000000eb00000f78000a003700ec
:103a78003e0090001e004000ae0090000080400014
:103a88009e0078001e01900081004100914078005e
:103a9800014878001e0fe8001e007800e30f500070
:103aa800f3ff34000080fa00000006000c00fa0062
:103ab800200798003107980042079800530798009c
:103ac80068004700100798000000eb00000f78001e
:103ad8000b0037003e0090001e004000ae00900032
:103ae80000804000320020009e0051001e0190001e
:103af8008100410091407800014878001e0fe800dd
:103b08001e007800e30f5000f2ff34000080fa0036
:103b1800000006000c00fa00200798003107980002
:103b2800420798005307980068004700100798005c
:103b38000000eb00000f78000a0037003e009000fc
:103b48001e004000ae009000008040009e007800fb
:103b58001e019000810041009140780001487800e2
:103b68001e0fe8001e007800e70f5000f3ff340036
:103b78000080fa00000006000600fa00100798000e
:103b8800210798000040eb00004f78005400070020
:103b9800ae009000810f5000110034000040eb008f
:103ba800004f7800060037001e80fb009e00900042
:103bb80000804000104078000b0007001e4fe8000e
:103bc8009e80fb002e009000808f5000f6ff35008d
:103bd8002e0007000004e00001003a002200070060
:103be8000080fa00000006000200fa00004f78008a
:103bf800e080800001032100008040001e4878001a
:103c0800e08080000000e800e0808800e18080001b
:103c1800f0072000808f5000010034001c30ef00b6
:103c28000080fa00000006000200fa00f080800020
:103c38000103210000804000104f7800f0808000d0
:103c48000000e800f0808800f1808000f007200084
:103c5800808f5000010034001e30ef001e407800b5
:103c68000080fa00000006000200fa0010c0b3004d
:103c780020f0b700ecff0700004f78001e80fb0023
:103c8800201188000080fa00000006000000fa00f9
:103c980020d0bf000080fa00000006000200fa00f1
:103ca800e1808000f0808000808f500004003500a3
:103cb800e1808000f0808000008f50000500370010
:103cc800e1808000f0808000008050000108200022
:103cd800010f40001e0078000080fa000000060076
:103ce8000200fa00edff070001082000008f5000d5
:103cf8001e0078000080fa00000006000000fa00ac
:103d080021e3a9002143a80001198000f0cf2f006a
:103d180000806000001988002043a9000119800074
:103d2800000e2000010070000019880011198000a1
:103d3800f0ff210000806000101988002343a800cc
:103d480011198000f0cf2f00008060001019880042
:103d58001119800030f82f00008060000040a0009a
:103d6800101988002203a9002223a90025e3a9002d
:103d7800f0c0b30024e3b70021198000f00f2e0033
:103d88008080600000f02000010070002019880089
:103d98003303a9002e0ea8002f6ea8006f2ea800ce
:103da8001e2ea8004feea80030c3a8003163a8005b
:103db8002e03a8003063a80031e3a8004119800051
:103dc80000fc2f00008060004019880028e3a9004b
:103dd80001a8a90021a8a80021e3a8000080fa00f2
:103de800000006000000fa002023a8000080fa0066
:103df800000006000000fa00202121000080fa00df
:103e0800000006000000fa002bd0bf000080fa0076
:103e1800000006000000fa002b70ef000080fa0096
:103e2800000006000200fa00004f78002a00070090
:103e38000000e0000c00340010818000010b21001c
:103e4800008040001e487800108180000000e800d3
:103e5800108188001181800000082000808f5000a8
:103e6800010034002230ef000080fa000000060054
:103e78000200fa0020818000010b21000080400030
:103e8800104f7800208180000000e8002081880021
:103e98002181800000082000808f5000010034003c
:103ea8002430ef001e4078000080fa000000060071
:103eb8000000fa001181800020818000808f50006e
:103ec8000200320010c0b300010037000040eb00d0
:103ed8000080fa00000006000200fa000500070052
:103ee80001082000008f50001e0078000080fa00b2
:103ef800000006000200fa00118180002081800085
:103f0800808f5000040035001181800020818000de
:103f1800008f50000500370011818000208180004b
:103f28000080500001082000010f40001e007800aa
:103f38000080fa00000006000000fa000e2eef00d4
:103f48001e2eef002e2eef003e2eef004e2eef001d
:103f58005e2eef006e2eef00214ea90060cea90064
:103f680060eea90011cea90011eea90020cea9008b
:103f780020eea9002136800000f82f0000806000a4
:103f88008001b300203688001134800000fc2f0027
:103f9800008060000000a000103488000136800016
:103fa80000f82f00808060001006200001007000db
:103fb8000036880001368000f00f280080806000fd
:103fc800000026000100700000368800e1358000fe
:103fd80000f82f008080600060042000010070005d
:103fe800e0358800e1358000f00f2800808060000f
:103ff8000050240001007000e03588000080fa00bd
:0440080000000600ae
:020000040000fa
:10400c0026100000020000008000000016100000c6
:10401c000600000080000000b011000062000000eb
:10402c008000000028100000020000008200000048
:10403c0007000000121200000a00000080000000bf
:10404c002a10000002000000800000003010000068
:10405c0080000000800000001c1000000600000022
:10406c0080000000b0100000800000008000000004
:10407c00221000000400000080000000301100003d
:10408c008000000080000000001000000e00000006
:10409c00800000002c1000000200000080000000d6
:1040ac000e10000008000000800000002e10000020
:0c40bc0002000000800000000000000076
:020000040000fa
:1040c8000000fa00f0032000303a8800213a80000e
:1040d800f0f32f0000806000203a8800213a800029
:1040e80000fe2f00008060000000a000203a880039
:1040f8001200200080072000a1092000337420004e
:10410800804978008149780082497800103a800017
:10411800000178000200a000600420007105200062
:10412800237420008049780081497800824978000a
:1041380000000000113a8000000027008080600025
:1041480000002100808f5000faff3a0000000000b4
:10415800113a800000022000008060000000e000aa
:10416800fbff32000080fa00000006000000fa00a1
:104178002002a9000111800090ff2f00008060003c
:104188000011880020a2a9002062a8005005200084
:104198004011880023a2a90023e2a9000188a900f0
:1041a8002188a80011118000f0f32f000080600022
:1041b800101188000168a9002168a80021e2a80060
:0c41c8002342a8000080fa00000006005e
:020000040000fa
:1041d400f03fb1000180b10006003500ee03090094
:1041e40000000000403fb1000180b100fbff3d0032
:1041f4001000b000203fb00002003500008009002c
:084204000000000000000600ac
:020000040000fa
:02000004000af0
:04afe000cfff00009f
:020000040000fa
:02000004000af0
:04afe400ffff00006b
:020000040000fa
:02000004000af0
:04afe8007fff0000e7
:020000040000fa
:02000004000af0
:04afec005fff000003
:020000040000fa
:02000004000af0
:04aff00038ff000026
:020000040000fa
:02000004000af0
:04aff400ffff00005b
:00000001FF
