:020000040000fa
:080000000002040000000000f2
:020000040000fa
:04000800e20300000f
:020000040000fa
:04000c00e20300000b
:020000040000fa
:04001000e203000007
:020000040000fa
:04001400e203000003
:020000040000fa
:04001800e2030000ff
:020000040000fa
:04001c00e2030000fb
:020000040000fa
:04002000e2030000f7
:020000040000fa
:04002400e2030000f3
:020000040000fa
:04002800e2030000ef
:020000040000fa
:04002c00e2030000eb
:020000040000fa
:04003000e2030000e7
:020000040000fa
:0400340006030000bf
:020000040000fa
:04003800e2030000df
:020000040000fa
:04003c00e2030000db
:020000040000fa
:04004000e2030000d7
:020000040000fa
:04004400e2030000d3
:020000040000fa
:04004800fe020000b4
:020000040000fa
:04004c00e2030000cb
:020000040000fa
:04005000e2030000c7
:020000040000fa
:040054009e03000007
:020000040000fa
:04005800740300002d
:020000040000fa
:04005c00500300004d
:020000040000fa
:04006000e2030000b7
:020000040000fa
:04006400e2030000b3
:020000040000fa
:04006800e2030000af
:020000040000fa
:04006c00e2030000ab
:020000040000fa
:04007000e2030000a7
:020000040000fa
:04007400e2030000a3
:020000040000fa
:04007800e20300009f
:020000040000fa
:04007c00e20300009b
:020000040000fa
:04008000e203000097
:020000040000fa
:04008400e203000093
:020000040000fa
:04008800e20300008f
:020000040000fa
:04008c00e20300008b
:020000040000fa
:04009000e203000087
:020000040000fa
:04009400260300003f
:020000040000fa
:04009800e20300007f
:020000040000fa
:04009c00e20300007b
:020000040000fa
:0400a000e203000077
:020000040000fa
:0400a400e203000073
:020000040000fa
:0400a800e20300006f
:020000040000fa
:0400ac00e20300006b
:020000040000fa
:0400b000e203000067
:020000040000fa
:0400b400e203000063
:020000040000fa
:0400b800e20300005f
:020000040000fa
:0400bc00e20300005b
:020000040000fa
:0400c000e203000057
:020000040000fa
:0400c400e203000053
:020000040000fa
:0400c800e20300004f
:020000040000fa
:0400cc00e20300004b
:020000040000fa
:0400d000e203000047
:020000040000fa
:0400d400e203000043
:020000040000fa
:0400d800e20300003f
:020000040000fa
:0400dc00e20300003b
:020000040000fa
:0400e000e203000037
:020000040000fa
:0400e400e203000033
:020000040000fa
:0400e800e20300002f
:020000040000fa
:0400ec00e20300002b
:020000040000fa
:0400f000e203000027
:020000040000fa
:0400f400e203000023
:020000040000fa
:0400f800e20300001f
:020000040000fa
:0400fc00e20300001b
:020000040000fa
:04010000e203000016
:020000040000fa
:04010400e203000012
:020000040000fa
:04010800e20300000e
:020000040000fa
:04010c00e20300000a
:020000040000fa
:04011000e203000006
:020000040000fa
:04011400e203000002
:020000040000fa
:04011800e2030000fe
:020000040000fa
:04011c00e2030000fa
:020000040000fa
:04012000e2030000f6
:020000040000fa
:04012400e2030000f2
:020000040000fa
:04012800e2030000ee
:020000040000fa
:04012c00e2030000ea
:020000040000fa
:04013000e2030000e6
:020000040000fa
:04013400e2030000e2
:020000040000fa
:04013800e2030000de
:020000040000fa
:04013c00e2030000da
:020000040000fa
:04014000e2030000d6
:020000040000fa
:04014400e2030000d2
:020000040000fa
:04014800e2030000ce
:020000040000fa
:04014c00e2030000ca
:020000040000fa
:04015000e2030000c6
:020000040000fa
:04015400e2030000c2
:020000040000fa
:04015800e2030000be
:020000040000fa
:04015c00e2030000ba
:020000040000fa
:04016000e2030000b6
:020000040000fa
:04016400e2030000b2
:020000040000fa
:04016800e2030000ae
:020000040000fa
:04016c00e2030000aa
:020000040000fa
:04017000e2030000a6
:020000040000fa
:04017400e2030000a2
:020000040000fa
:04017800e20300009e
:020000040000fa
:04017c00e20300009a
:020000040000fa
:04018000e203000096
:020000040000fa
:04018400e203000092
:020000040000fa
:04018800e20300008e
:020000040000fa
:04018c00e20300008a
:020000040000fa
:04019000e203000086
:020000040000fa
:04019400e203000082
:020000040000fa
:04019800e20300007e
:020000040000fa
:04019c00e20300007a
:020000040000fa
:0401a000e203000076
:020000040000fa
:0401a400e203000072
:020000040000fa
:0401a800e20300006e
:020000040000fa
:0401ac00e20300006a
:020000040000fa
:0401b000e203000066
:020000040000fa
:0401b400e203000062
:020000040000fa
:0401b800e20300005e
:020000040000fa
:0401bc00e20300005a
:020000040000fa
:0401c000e203000056
:020000040000fa
:0401c400e203000052
:020000040000fa
:0401c800e20300004e
:020000040000fa
:0401cc00e20300004a
:020000040000fa
:0401d000e203000046
:020000040000fa
:0401d400e203000042
:020000040000fa
:0401d800e20300003e
:020000040000fa
:0401dc00e20300003a
:020000040000fa
:0401e000e203000036
:020000040000fa
:0401e400e203000032
:020000040000fa
:0401e800e20300002e
:020000040000fa
:0401ec00e20300002a
:020000040000fa
:0401f000e203000026
:020000040000fa
:0401f400e203000022
:020000040000fa
:0401f800e20300001e
:020000040000fa
:0401fc00e20300001a
:020000040000fa
:04020000e203000015
:020000040000fa
:04020400e203000011
:020000040000fa
:04020800e20300000d
:020000040000fa
:04020c00e203000009
:020000040000fa
:04021000e203000005
:020000040000fa
:04021400e203000001
:020000040000fa
:04021800e2030000fd
:020000040000fa
:04021c00e2030000f9
:020000040000fa
:04022000e2030000f5
:020000040000fa
:04022400e2030000f1
:020000040000fa
:04022800e2030000ed
:020000040000fa
:04022c00e2030000e9
:020000040000fa
:04023000e2030000e5
:020000040000fa
:04023400e2030000e1
:020000040000fa
:04023800e2030000dd
:020000040000fa
:04023c00e2030000d9
:020000040000fa
:04024000e2030000d5
:020000040000fa
:04024400e2030000d1
:020000040000fa
:04024800e2030000cd
:020000040000fa
:04024c00e2030000c9
:020000040000fa
:04025000e2030000c5
:020000040000fa
:04025400e2030000c1
:020000040000fa
:04025800e2030000bd
:020000040000fa
:04025c00e2030000b9
:020000040000fa
:04026000e2030000b5
:020000040000fa
:04026400e2030000b1
:020000040000fa
:04026800e2030000ad
:020000040000fa
:04026c00e2030000a9
:020000040000fa
:04027000e2030000a5
:020000040000fa
:04027400e2030000a1
:020000040000fa
:04027800e20300009d
:020000040000fa
:04027c00e203000099
:020000040000fa
:04028000e203000095
:020000040000fa
:10040000af2021000eff27000e0188000000000031
:10041000000020000000e000020032000001200087
:100420002002880014000700e80007000000e00038
:1004300003003a0020ae2100010020000200370036
:100440000000200001002000810f70000100320038
:100450000f000700000020000000e0000200320052
:100460000000020000000000b807020000000000c9
:100470000040da000000fe00600020000000e00004
:1004800002003200002020009001880000000600d9
:10049000a1028800800478000000eb001f003700f4
:1004a000e284440054a0b4009905ba00e2844400f8
:1004b00054a0b4009906ba00e284440054a0b400e9
:1004c0000006eb00476fde00fd07b200ae018800ba
:1004d000636ce10003003a000ad801000000eb0061
:1004e0000e003700606ce10008003a00004deb00a0
:1004f0000a05e800020039003420ec000af0a000f0
:100500008b05e900f9ff3e00040037006168e10057
:10051000010032000086eb000b00070019c7ba008b
:100520000e04e0001905ba0003003a000a00e000da
:10053000dbff3a0000000600fe07b200ae028800b2
:100540008a047800f5ff37000cd0a300e20f4d00bd
:100550001c00390089027800354dba000a05e80010
:10056000020039003420ec000af0a0008b05e900fd
:100570000f003200254dba000a05e80002003900dc
:100580003420ec000af0a0008b05e90008003200de
:100590000c00e0000600320015cdba000a05e800a4
:1005a000020039003420ec000af0a0008b05e900bd
:1005b0008984e80054a0b4000b00e000e2ff3a0098
:1005c000000006009902ba00055d78008b05e9007d
:1005d000f7ff3200c82ade00055d78008b05e900d0
:1005e000f3ff32000c00e000f1ff320019ddba0029
:1005f000eeff37000e160400000000000000fa00b5
:100600000108a9000080fa00004006003600f8004a
:10061000809fbe00829fbe00849fbe00869fbe005a
:100620000000fa000068a90002080700320b07006a
:100630000080fa004f03be004f02be004f01be0013
:100640004f00be003600f900004006003600f800fa
:10065000809fbe00829fbe00849fbe00869fbe001a
:100660000000fa000368a90070808000818080008b
:1006700061004000e0804800708088008180880030
:10068000620207000080fa004f03be004f02be0066
:100690004f01be004f00be003600f90000400600ca
:1006a000801f78000000fa0001a8a900001880004f
:1006b000009088001018800010908800201880009a
:1006c000209088003018800030908800401880000a
:1006d0004090880010c0b30023f0b7000080fa00fb
:1006e0004f007800004006003600f800809fbe00f2
:1006f000829fbe00849fbe00869fbe000000fa005d
:100700000188a900b1808000a0808000808f500007
:1007100002003200990a0700010037001870ef004c
:100720000080fa004f03be004f02be004f01be0022
:100730004f00be003600f900004006003600f80009
:10074000809fbe00829fbe00849fbe00869fbe0029
:100750000000fa000168a900101180006400600028
:100760000000e000010032002242a90010118000c8
:10077000620060000000e000060032002222a900b2
:10078000050037003011800000407800ea0a0700b9
:1007900001003700000000001011800061006000bf
:1007a0000000e000f7ff3a000080fa004f03be00af
:1007b0004f02be004f01be004f00be003600f900e0
:1007c000004006000040da000000fe0000000500c6
:1007d00003f0a200889fbe008a9fbe008c1f780095
:1007e0002a010700310133006450e1004f0032005c
:1007f0006420e1005200320003826c0007003b00dd
:100800000905d0000306d000820f54000c065d00dd
:1008100002003900020032008901780003067800e6
:100820008582550004003d000003fd008103fd00aa
:100830008502ea008b854200840f720002003b00b3
:1008400060001000e08018006011b8000005eb00a7
:100850007a28e1000a00390006007800c75ddd0053
:10086000f707b200878075002d0037008281710084
:100870000a017800610560008180d1000080d3000a
:100880008502e900f9ff3b00060440008784480028
:1008900002003b0060041400e0841c000988a300ef
:1008a000070032008a817100828171006101640059
:1008b0008904d1000884d3008b05e80017003700b5
:1008c0000978a30013003a000b00e0001300340085
:1008d0008b05e9000804440089844c000a44740034
:1008e0000978a3000d003a000b00e0000700340077
:1008f0008b05e9000804440089844c0001003a009b
:100900000b0020000978a300f7ff32000001eb0084
:1009100002003700828171000a017800a000070000
:100920000cf0a70001f0a000e90037006420e1000e
:1009300002003a00838f6c00e90033000801be001a
:100940000200be00e2003700889fbe008a9fbe0002
:100950008c1f7800cd000700d400330003866c00a4
:100960006450e1002e0032006420e10033003200c8
:100970006150e1002f0032006120e10031003200bf
:1009800085855500eb07b000090020000804200011
:10099000050037000804440089844c000a00310037
:1009a0000603430087834b000001530081815b00f5
:1009b000f8ff33000203be000800a0000804440052
:1009c00089844c00f6ff3900c639dd0083017300cd
:1009d00001003200130020008904d1000884d300f4
:1009e0000998a300050032000800a7000300a0003a
:1009f0008904d1000884d3008b05e8008904d10064
:100a00000884d3000001eb000281d20064000700db
:100a100001f0a1000cf0a70001f0a000ac0037002d
:100a20006420e100ae0032000801be000200be00fa
:100a3000f7ff37006120e100a90032006000b80034
:100a4000f3ff37000000200001f82700f0ff370017
:100a5000839f68000100e00002003d00600010007c
:100a6000e08018000300e00002003d00600111007a
:100a7000e0811900d10007004f00e00002003b00b8
:100a800060001000e0801800000006001400200044
:100a9000da003700f4ff2f00d80037000001be0055
:100aa000650007000470a70003f0a1006509b1000c
:100ab000160032000d0035006828e1000600350000
:100ac000f0ff2f00f1ff27000300e00013003b00c0
:100ad000010028000000050000004000818048005f
:100ae0008502e900fcff3a0008003700f88f420059
:100af00002003c008000eb00000005008100d100f6
:100b00000080d3008502e800fcff3a000300e0000b
:100b100002003b0060001000e080180000000600aa
:100b20000001be00440007000470a70003f0a1000c
:100b300003f8a30013003a006509b1001000320069
:100b4000090035006928e100020035000100280095
:100b50000000050000004000818048008502e90097
:100b6000fcff3a0000000600f88f42000500350047
:100b70008100d1000080d3008502e800fcff3a002c
:100b8000000006008000eb00000005004f89de0039
:100b900082017800b40037006011b800c20037004d
:100ba00081002000618055000b003d000b002000fb
:100bb00061fe2f000100e1001d0034008281710000
:100bc000610164008904d1000884d3000000e800ba
:100bd000faff3a0071002000610064000300700019
:100be000020060000900320061044400e0844c000f
:100bf0000988a500050032008b05e8006808e100bf
:100c000002003a008904d1000884d300f20f2000ca
:100c10000258e10005003d00c75ddd00f907b200a4
:100c20008980750008007800000006000bf8270096
:100c30008b00780000000500c70ade00f107b20053
:100c4000f50fb20008003200e1cf4200020032008e
:100c50000170a00024000500810f70000100320027
:100c60000408050044000500810f700002003a00ee
:100c7000140005008502e9000000400081c0480022
:100c8000fcff3b000170a000240005000004be0032
:100c9000e9ff07000003be000405be000200be001d
:100ca000e5ff0700844f7500000006000200be004b
:100cb0006450e100050036006420e10002003600c7
:100cc0000968a30001003a000800be000160a0000e
:100cd0004f0678004f05be004f04be00000006001e
:100ce000f0ff2f00f1ff2700f9ff3700889fbe00bb
:100cf0008a9fbe008c1f7800e4ff0700ebff3300e3
:100d000003866c006450e100240032006420e1009e
:100d1000270032006150e100220032006120e10032
:100d2000210032008b854200eb07b1000134b8008e
:100d3000003ab8000804420089844a00013ab80029
:100d40000030b8008880400009014a0004003300e8
:100d50000000400081804800020149008b05e90045
:100d6000c909dd008301700001003200130020007a
:100d7000c814de004814dd004709de001200b2008e
:100d8000c808de000884700085ff070001f0a1009c
:100d90000cf0a70001f0a000cdff37006120e100ba
:100da000cfff32000801be000200be00f7ff37008f
:100db0006150e100fcff3a00c9ff37006022b80033
:100dc000060220000000d0008180d2000482d20000
:100dd0008582d2000000a0000202520083825a00e5
:100de000030031000202420083824a000000a10099
:100df0000603e900f3ff3a0000000600889fbe00ea
:100e00008a9fbe00841f7800a0ff07004f00780073
:100e100011003300f0ff2f00838f6c0006003b00b1
:100e2000040565000a00a7000800370009f0a600c5
:100e30001000200008003700820f5400838f5c00f0
:100e4000030039001000200001003e0000002000d7
:100e500009f0a7000000ea004f05be004f04be00e5
:100e60000000e00000000600881f780003047800fe
:100e70000300e00007003d0060001000e080180063
:100e800060011900e081190002003b0001f02d0013
:100e9000030037000400070008f0a70001f0a000dd
:100ea0004f04780000000600889fbe008a9fbe00a5
:100eb000008270000402710004827100260032007a
:100ec0000004be000200be006011b8006b092000e3
:100ed000950220000182cf000a0039000541b100cf
:100ee0000082cf00070039000541b1000982cf0020
:100ef000040039000541b1000882cf00010039002b
:100f00000541b10005425200120032000a003b00c8
:100f100082817100610164008100d1000080d300f2
:100f20008984d3000884d3008b05e8000442e800dc
:100f3000f7ff3a00070037000804440089844c009a
:100f400000004800818048008b05e9000442e90068
:100f5000f9ff3a0012ff07004f05be004f04be0024
:040f60000000060087
:020000040000fa
:0c0f6400736100006c7500007400000058
:020000040000fa
:100f70000800fa0068090700340907001d0307008c
:100f8000500307007b050700a1080700cc030700fa
:100f9000b5090700520607000000eb00000f7800bb
:100fa00003003700f7080700d10407001e0fe80010
:100fb000150907009e0f5000faff3c00608e80006c
:100fc000e10f50000f003a00708e8000818e80008b
:100fd000b2fe070010079800908e8000a18e80005e
:100fe000aefe070020079800b18e80003107980000
:100ff0003e019000ae0090001e009000f606070033
:10100000e5ff370036060700e3ff37000000fa006f
:101010001ed0bf000080fb00cf80de005201200008
:1010200003002000820f5000838f5800a7003e006d
:1010300000060100150037001e00370027003700aa
:1010400031003700320037003c0037003d003700e8
:101050004700370048003700520037005300370080
:101060005d00370099003700980037008300370093
:101070008d0037005a0037006400370065003700e4
:101080006f003700700037007a0037000e30ef0035
:101090001030ef000041eb006000b8005105070080
:1010a00012c0b3006000b8004e05070010c0b300c6
:1010b0001ef0b7007280800083808000803e200098
:1010c00001002000800f5100818f590082003600fe
:1010d00020c0b3001ef0b700820037000041eb00d3
:1010e00000002000811c2c003e05070012c0b30048
:1010f00000002000811c24003a05070030c0b30026
:101100001ef0b70077003700780007007500370041
:101110000041eb0000002000011a2c0031050700ff
:1011200012c0b30000002000010a2c002d050700aa
:1011300050c0b3001ef0b7006a0037006b00070014
:10114000680037000041eb0000002000010a240085
:101150002405070012c0b30000002000011a24007b
:101160002005070070c0b3001ef0b7005d00370017
:101170005e0007005b0037000041eb00000020002c
:1011800001172c001705070012c0b3000000200053
:1011900001172c001305070090c0b3001ef0b70024
:1011a00050003700510007004e0037000041eb00af
:1011b00000002000011724000a05070012c0b30038
:1011c000000020000117240006050700b0c0b3008e
:1011d0001ef0b7004300370044000700410037000d
:1011e0000041eb000000200001172c00fd04070067
:1011f00012c0b3000000200001172400f90407000a
:1012000010c1b3001ef0b7003600370037000700ea
:10121000340037000041eb000000200001122c00d8
:10122000f004070012c0b30000002000011a2400df
:10123000ec04070030c1b3001ef0b70029003700ee
:101240002a000700270037000041eb0000002000c3
:10125000011a2c00e304070012c0b30000002000b4
:1012600001122400df04070050c1b3001ef0b700d4
:101270001c0037001d0007001a0037000041eb007a
:101280000000200001122400d604070012c0b300a1
:101290000000200001122c00d2040700f0c0b300af
:1012a0001ef0b7000f00370072808000838080003e
:1012b000803e200001002000800f5100818f5900e6
:1012c0000700360009000700060037001e70ef0017
:1012d000000000000300370000000000010037009c
:1012e000000000000080fa00000006000600fa007e
:1012f000881f78000040eb00004f7800e08d8000f0
:10130000f18d800018c0b30002002000031a2400f1
:10131000defd07000000e000010035000044eb00a6
:101320000804e0002f003200008e8000118e800043
:1013300018c0b30002002000031a2400d3fd0700e8
:101340000000e000010035000044eb000804e0006c
:1013500024003200208e8000318e800018c0b3003f
:1013600002002000031a2400c8fd07000000e0006e
:10137000010035000044eb000804e00019003200d1
:10138000c08d8000d18d800018c0b3000200200005
:10139000031a2400bdfd07000000e0000100350035
:1013a0000044eb000804e0000e003200408e800094
:1013b000518e800018c0b30002002000031a2400e0
:1013c000b2fd07000000e000010035000044eb0022
:1013d0000804e0000300320080c0b300004f780032
:1013e00088013700e08d8000f18d800018c0b300c7
:1013f00002002000031a2400a4fd07000000e00002
:10140000010035000044eb000804e0001900320040
:10141000008e8000118e800018c0b30002002000f2
:10142000031a240099fd07000000e00001003500c8
:101430000044eb000804e0000e003200208e800023
:10144000318e800018c0b30002002000031a24006f
:101450008efd07000000e000010035000044eb00b5
:101460000804e00003003200c0c0b300004f780061
:1014700064013700e08d8000f18d800018c0b3005a
:1014800002002000031a240082fd07000000e00093
:1014900001003c000044eb000804e0002f00320093
:1014a000008e8000118e800018c0b3000200200062
:1014b000031f240077fd07000000e00001003c004e
:1014c0000044eb000804e00024003200208e80007d
:1014d000318e800018c0b30002002000031a2400df
:1014e0006cfd07000000e00001003c000044eb0040
:1014f0000804e00019003200c08d8000d18d80000a
:1015000018c0b30002002000031224005ffd070092
:101510000000e000010035000044eb000804e0009a
:101520000e003200408e8000518e800018c0b30043
:10153000020020000312240054fd07000000e00018
:10154000010035000044eb000804e0000300320015
:10155000d0c0b300004f78002a013700e08d800032
:10156000f18d800018c0b300020020000312240097
:1015700046fd07000000e000010035000044eb00dc
:101580000804e00019003200008e8000118e8000f7
:1015900018c0b30002002000031f24003dfd070017
:1015a0000000e00001003c000044eb000804e00003
:1015b0000e003200208e8000318e800018c0b300f3
:1015c000020020000312240030fd07000000e000ac
:1015d000010035000044eb000804e0000300320085
:1015e00040c0b300004f780006013700e08d800056
:1015f000f18d800018c0b30002002000031f2400fa
:1016000022fd07000000e000010035000044eb006f
:101610000804e00019003200008e8000118e800066
:1016200018c0b30002002000031f240019fd0700aa
:101630000000e00001003c000044eb000804e00072
:101640000e003200208e8000318e800018c0b30062
:1016500002002000031f24000efd07000000e00030
:1016600001003c000044eb000804e00003003200ed
:1016700020c0b300004f7800e2003700e08d80000a
:10168000f18d800018c0b30002002000031f240069
:1016900000fd07000000e00001003c000044eb00fa
:1016a0000804e00019003200008e8000118e8000d6
:1016b00018c0b30002002000031f2400f5fc07003f
:1016c0000000e00001003c000044eb000804e000e2
:1016d0000e003200208e8000318e800018c0b300d2
:1016e00002002000031f2400e8fc07000000e000c7
:1016f000010035000044eb000804e0000300320064
:1017000010c0b300004f7800be003700008e80008c
:10171000118e800018c0b30002002000031a2400bc
:10172000dafc07000000e000010035000044eb0097
:101730000804e0000300320060c0b300004f7800ee
:10174000b0003700008e8000118e800018c0b300fa
:1017500002002000831c2400ccfc07000000e000f5
:10176000010035000044eb000804e0000e003200e8
:10177000008e8000118e800018c0b300020020008f
:10178000031a2400c3fc07000000e00001003c0035
:101790000044eb000804e0000300320070c0b30016
:1017a000004f780097003700e08d8000f18d8000b9
:1017b00018c0b30002002000031f2400b5fc07007e
:1017c0000000e00001003c000044eb000804e000e1
:1017d0002f003200008e8000118e800018c0b300f0
:1017e00002002000031f2400aafc07000000e00004
:1017f00001003c000044eb000804e000240032003b
:10180000208e8000318e800018c0b30002002000be
:10181000031f24009ffc07000000e00001003c00c3
:101820000044eb000804e00019003200c08d800085
:10183000d18d800018c0b30002002000031a2400dc
:1018400092fc07000000e000010035000044eb00be
:101850000804e0000e003200408e8000518e8000af
:1018600018c0b30002002000031f240089fc0700f9
:101870000000e00001003c000044eb000804e00030
:1018800003003200e0c0b300004f78005d00370075
:10189000e08d8000f18d800018c0b30002002000b0
:1018a000031f24007bfc07000000e00001003c0057
:1018b0000044eb000804e0002f003200008e80009e
:1018c000118e800018c0b30002002000031f240006
:1018d00070fc07000000e00001003c000044eb0049
:1018e0000804e00024003200208e8000318e800049
:1018f00018c0b30002002000031f240065fc07008d
:101900000000e00001003c000044eb000804e0009f
:1019100019003200c08d8000d18d800018c0b30046
:1019200002002000031f24005afc07000000e00012
:1019300001003c000044eb000804e0000e0032000f
:10194000408e8000518e800018c0b300020020003d
:10195000031a24004dfc07000000e00001003500e0
:101960000044eb000804e00003003200f0c0b300c4
:10197000004f780023003700e08d8000f18d80005b
:1019800018c0b30002002000031f240041fc070020
:101990000000e00001003c000044eb000804e0000f
:1019a00018003200008e8000118e800018c0b30035
:1019b00002002000031f240036fc07000000e000a6
:1019c00001003c000044eb000804e0000d00320080
:1019d000208e8000318e800018c0b30002002000ed
:1019e000031f24002bfc07000000e00001003c0066
:1019f0000044eb000804e000020032000040eb006d
:101a0000004f78001e407800e84f500003003a0075
:101a1000e0c0b3001ff0b7004d0037001e40780053
:101a2000ea4f500003003a0080c0b3001ff0b70037
:101a3000470037001e407800eb4f500003003a008b
:101a400080c0b3001ff0b700410037001e4078008f
:101a5000ec4f500003003a0080c0b3001ff0b70005
:101a60003b0037001e407800ed4f500003003a0065
:101a700000c1b3001ff0b700350037001e407800ea
:101a8000e44f500003003a0080c0b3001ff0b700dd
:101a90002f0037001e407800e34f500003003a004b
:101aa00000c1b3001ff0b700290037001e407800c6
:101ab000e24f500003003a0040c0b3001ff0b700ef
:101ac000230037001e407800e14f500003003a0029
:101ad00060c0b3001ff0b7001d0037001e40780043
:101ae000e64f500003003a0080c0b3001ff0b7007b
:101af000170037001e407800e74f500003003a00ff
:101b000000c1b3001ff0b700110037001e4078007d
:101b1000ee4f500003003a0040c1b3001ff0b70081
:101b20000b0037001e407800ef4f500003003a00d2
:101b300020c1b3001ff0b700050037001e40780039
:101b40000004e00002003a0020c0b3001ff0b7001c
:101b50001fd0bf008080fb001ed0bf000080fb00b4
:101b60000000e900808f50001f0032001fd0bf002e
:101b70001ef0b7001ed0bf00104798007080800094
:101b8000818080004808de000040780020479800ef
:101b900070808000818080004008de000040780076
:101ba0003047980070808000818080004809dd0007
:101bb0004800de0000007100c808de000040780028
:101bc000404798007080800081808000004078004d
:101bd000504798000e00e8000001780051002000f6
:101be00000052000650107004f0478000080fa001e
:101bf000000006000400fa0013e1a90011e1a900a9
:101c00001061a8001021a90081088000f0fc2f00bd
:101c1000008060000040a000800888000a21ef00da
:101c20000621ef00404c20007008880000402b0087
:101c300060088800800880004400de006340600087
:101c40000081fb008001eb00700880008000eb0049
:101c5000c002dd0004002000600880008000eb006e
:101c60000400400085804800809ab900828bb9004a
:101c700086027800050242000010b800010242000e
:101c8000840078000001be0000a02500212620006d
:101c90006ffb0700bdfb0700008fbe0021428000e4
:101ca00080ff2f00008060000000a000204288001c
:101cb0000108a9002108a80011e1a8000080fa008d
:101cc000000006000000fa0005e1a9000421a900b7
:101cd00000002000a1372400050007000068a900cb
:101ce0002068a80005e1a8000080fa0000000600b6
:101cf0000400fa00881f7800008fbe0021088000d1
:101d0000f0fc2f0000806000200888001e01780091
:101d10009e0190000068290081c124000afb070091
:101d200018c0b30002f02f00f377240059fb07001e
:101d30000000e00001003c000044eb000804e0006b
:101d40005400320021088000f0fc2f000080600069
:101d50000040a000200888001e0178009e0190002d
:101d60000068290081c12400f7fa07000200200062
:101d700003102400f4fa070018c0b30002f02f008b
:101d8000f377240043fb07000000e00001003c0063
:101d90000044eb000804e00032003200210880001b
:101da000f0fc2f00008060000050a0002008880098
:101db0001e0178009e0190000068290081c1240066
:101dc000e1fa07000200200003282400defa0700e1
:101dd00018c0b30002f02f00f37724002dfb07009a
:101de0000000e00001003c000044eb000804e000bb
:101df0001000320021088000000320000100700064
:101e0000200888001e0178009e01900000682900cb
:101e100081c12400ccfa070002002000033824000e
:101e2000c9fa07001dfb07000000780010088800b1
:101e3000200037001e0178009e01900000682900f4
:101e400081c12400c0fa07000200200003282400fa
:101e5000bdfa070011fb0700000078001008880099
:101e6000140037001e0178009e01900000682900d0
:101e700081c12400b4fa07000200200003102400ee
:101e8000b1fa070005fb0700000078001008880081
:101e9000080037001e0178009e01900000682900ac
:101ea00081c12400a8fa0700fcfa070000007800ae
:101eb000100888004f0478000080fa000000060037
:101ec0000000fa0000002000a147240007000700de
:101ed0001fe1a9001e21a9000368a9002368a8002a
:101ee0001fe1a8000080fa00000006000400fa00cc
:101ef000881f7800008fbe00f1088000f0fc2f00e2
:101f000000806000f00888001e0178009e019000ab
:101f10000068290081c124008bfa070018c0b300b3
:101f200002f02f00f3772400dafa07000000e00047
:101f300001003c000044eb000804e00054003200c3
:101f4000f1088000f0fc2f00008060000040a0003d
:101f5000f00888001e0178009e01900000682900aa
:101f600081c1240078fa0700020020000310240039
:101f700075fa070018c0b30002f02f00f3772400b1
:101f8000c4fa07000000e00001003c000044eb0040
:101f90000804e00032003200f1088000f0fc2f005d
:101fa000008060000050a000f00888001e0178004a
:101fb0009e0190000068290081c1240062fa070098
:101fc00002002000032824005ffa070018c0b300b5
:101fd00002f02f00f3772400aefa07000000e000c3
:101fe00001003c000044eb000804e0001000320057
:101ff000f10880000003200001007000f008880054
:102000001e0178009e0190000068290081c1240013
:102010004dfa070002002000033824004afa0700a6
:102020009efa070000007800d008880020003700e2
:102030001e0178009e0190000068290081c12400e3
:1020400041fa070002002000032824003efa07009e
:1020500092fa070000007800d008880014003700ca
:102060001e0178009e0190000068290081c12400b3
:1020700035fa0700020020000310240032fa07009e
:1020800086fa070000007800d008880008003700b2
:102090001e0178009e0190000068290081c1240083
:1020a00029fa07007dfa070000007800d0088800b0
:1020b0004f0478000080fa00000006000a00fa00d1
:1020c000200798003107980042079800e0cfb3003e
:1020d000004f78002e0090004880de00804078009d
:1020e0001e40780000c06800004f78002e0090006d
:1020f000804078001e40780000c06800004f7800e3
:102100003e0090004880de00804078001e4078004d
:1021100000c06800004f78003e00900080407800ca
:102120001e40780000c06800004f78000000eb00ff
:10213000100798000000eb00100798000800370017
:102140001e009000ce0090000080400010407800fb
:102150001e4f68001e0090000000e8001007980065
:102160009e0090003e009000808f5000f4ff3500ec
:102170001e4078000080fa00000006001000fa00ff
:10218000889fbe005007980061079800720798006a
:102190000f0478000f007800800478006e00900033
:1021a000660040008000e900210798000000e80078
:1021b0000000e8000000d100800040000f0078001f
:1021c000818747000000e8000000d10000004000c7
:1021d000300798000000eb00000f78003e009000f0
:1021e0001e004000e1cfb300014878001e0fe80058
:1021f0005e0090004880de00804078003e00900045
:102200001e004000014878001e0fe8005e009000ac
:10221000804078003e0090001e0040000148780099
:102220001e0fe8006e0090004880de0080407800bd
:102230003e0090001e004000014878001e0fe8009c
:102240006e009000804078003e0090001e0040002c
:10225000014878001e0fe8000000eb00100798000e
:102260000000eb00100798000b0037001e009000e4
:10227000fe00900000804000904078003e009000fa
:102280001e004000014878001e0fe8001e0090006c
:102290000000e800100798009e0090006e0090007b
:1022a000808f5000f1ff35007e019000ee0090001d
:1022b0005e00900081ff0700004f98003e009000f4
:1022c0001e0040008e489000014878001e0fe80074
:1022d0003e0090009e0078006c030700890778009c
:1022e000880778004f04be000080fa000000060056
:1022f0000200fa00004f780060808000e30f500079
:1023000028003200e30f500007003c00e10f5000ae
:1023100015003200e10f50001b003c000000e000ff
:102320000800320053003700e50f50003100320042
:10233000e50f500023003500e60f50003b0032004f
:102340004c0037001e407800e24f40004c003a003d
:102350000230ef000430ef000630ef0010002000e4
:1023600060808800490037001e80fb0010808800d4
:10237000108080004800dd001080880020002000d0
:1023800060808800410037009e80fb001080800044
:1023900000804000108088003000200060808800ad
:1023a0003a0037001e80fb002080880020808000db
:1023b0004800dd0020808800400020006080880008
:1023c000320037009e80fb002080800000804000ab
:1023d00020808800208080000000e00002003a0099
:1023e0000c30ef002900370050002000608088008a
:1023f00026003700308080006112210000804000fc
:102400001e487800308080000000e800308088009e
:102410003180800020808000808f50001a003a00b8
:102420006000200060808800180037001e80fb00dc
:10243000508088002180800010808000621221007e
:102440001eff07000080fb00408088004180800064
:1024500050808000808f500004003a00218080006e
:102460001080800062122100200007000c30ef0075
:10247000060037000c30ef000000000003003700ba
:102480000000000001003700000000000080fa009a
:10249000000006000200fa00000f78000080fa0039
:1024a000000006000200fa00000f78001e0078000d
:1024b0001040780000f0b70000d0bf000080fb00a3
:1024c000608e8800608e8000e10f500003003a00ab
:1024d00010002000608e8800020037000000eb0032
:1024e000608e88000080fa00000006000600fa00f6
:1024f000000f780011079800220798001e0078004e
:10250000cf80de00a1f90700708e8800818e8800e0
:102510001e009000cf80de009cf90700908e88009e
:10252000a18e8800ae009000b18e88001e00780059
:102530000000e0000c00320021052000810f500057
:1025400005003a002e009000d6ff07000000eb00c7
:10255000000f7800050037000000eb00000f780046
:102560000000000001003700000000000080fa00b9
:10257000000006000000fa001160800080ff2f00bc
:10258000008060001060880000fa20002060880051
:1025900023aca800238ca80011618000f03f2f001d
:1025a0000080600000a0a0001061880030002000c2
:1025b00020618800c3aca800c38ca800116680000d
:1025c000f03f2f000080600000a0a000106688008f
:1025d000300020002066880001eca8000080fa008e
:1025e000000006000600fa00008fbe004247980077
:1025f0004e4090000004e00005003a001e01780003
:102600009e019000828d8800938d8800070037001e
:102610004e409000e14f500004003a001e01780047
:102620009e019000428d8800538d88000080fa0042
:10263000000006000000fa00889fbe008a9fbe00ce
:10264000a48d8000b58d8000808d8000918d8000ec
:1026500018c0b3000001be000400be000bf9070063
:102660000000e000010035000044eb000804e00039
:102670000f003200888d8000998d8000aa8d800027
:10268000bb8d800020d0bf000080fb00cf80de002b
:102690003ef907000001be000a00be004df8070029
:1026a0000801be0020020700a08d8800b18d8800bf
:1026b000a48d8000b58d8000808d8000918d80007c
:1026c00018c0b3000001be000400be00f1f807000e
:1026d0000000e00001003c000044eb000804e000c2
:1026e0000f003200888d8000998d8000aa8d8000b7
:1026f000bb8d800020d0bf000080fb00cf80de00bb
:1027000022f907000001be000a00be0030f80700f1
:102710000801be00ec010700a08d8800b18d880083
:10272000a08d8000b18d800018c0b3006011b8008a
:10273000d8f807000000e00001003c000044eb0076
:102740000804e00004003200c3cca90024eea80075
:10275000c3eca80003003700c3eca90024cea800f6
:10276000c3cca800a08d8000b18d8000c0010700ff
:1027700002002000032224005cf90700e8f80700ab
:102780000000780030668800648d8000758d8000c0
:10279000408d8000518d800018c0b3000001be0044
:1027a0000400be00b9f807000000e0000100350099
:1027b0000044eb000804e0000f003200488d800068
:1027c000598d80006a8d80007b8d800020d0bf00f5
:1027d0000080fb00cf80de00ecf807000001be00a7
:1027e0000a00be00fbf707000801be00ce0107008b
:1027f000608d8800718d8800648d8000758d8000eb
:10280000408d8000518d800018c0b3000001be00d3
:102810000400be009ff807000000e00001003c003b
:102820000044eb000804e0000f003200488d8000f7
:10283000598d80006a8d80007b8d800020d0bf0084
:102840000080fb00cf80de00d0f807000001be0052
:102850000a00be00def707000801be009a0107006b
:10286000608d8800718d8800608d8000718d800082
:1028700018c0b3006011b80086f807000000e0003f
:1028800001003c000044eb000804e00004003200ba
:1028900023cca90015eea80023eca8000300370004
:1028a00023eca90015cea80023cca800608d8000e1
:1028b000718d80006e0107000200200003222400b9
:1028c0000af9070096f807000000780030618800d8
:1028d0004f05be004f04be000080fa000000060055
:1028e0000e00fa00254ea9008b020700e14f5000b0
:1028f000b7003a008c020700830207001007980017
:102900001e0090000080e800100078008000eb00be
:10291000a1f807003233230033052400f3f8070041
:10292000020020000358240007f80700d2cc2c0036
:10293000c3042400edf80700200798003107980031
:102940002e019000be019000000020008120240094
:10295000fdf7070002002000030a24009cf707008f
:10296000e08d8800f18d88001e009000640040001a
:10297000100078008000eb0087f807003233230056
:1029800033052400d9f80700020020000358240072
:10299000edf70700d2cc2c00c3042400d3f80700c5
:1029a00020079800310798002e019000be0190008a
:1029b0000000200081202400e3f70700020020002f
:1029c000030a240082f70700008e8800118e880019
:1029d0001e00900068004000100078008000eb00ae
:1029e0006df807003233230033052400bff80700d9
:1029f0000200200003582400d3f70700d2cc2c009b
:102a0000c3042400b9f80700200798003107980094
:102a10002e019000be0190000000200081202400c3
:102a2000c9f7070002002000030a240068f7070026
:102a3000208e8800318e88001e00900066004000c5
:102a4000100078008000eb0053f8070032332300b9
:102a500033052400a5f807000200200003582400d5
:102a6000b9f70700d2cc2c00c30424009ff807005c
:102a700020079800310798002e019000be019000b9
:102a80000000200081202400aff707000200200092
:102a9000030a24004ef70700408e8800518e8800fc
:102aa0001e009000100078008000eb003af807004c
:102ab00032332300330524008cf807000200200085
:102ac00003582400a0f70700d2cc2c00c304240034
:102ad00086f8070020079800310798002e01900023
:102ae000be019000000020008120240096f707001e
:102af00002002000030a240035f70700c08d88007b
:102b0000d18d8800207b2800510020005f01070044
:102b10000000eb00000f78000600370019020700e4
:102b2000204f98006a00470011002000570107005d
:102b30001e0fe800340207009e0f5000f7ff3c0014
:102b400021818000a0002000000178001100090010
:102b50008200d8008000fd000000e00016003a006e
:102b6000208e8000318e8000ccf707000040780076
:102b7000304f9800008e8000118e8000c7f707004c
:102b800000407800404f9800e08d8000f18d80007b
:102b9000c2f7070000407800504f98003000200036
:102ba000400798006b00470000017800ce009000bd
:102bb0000003200071fd0700208180000000e80074
:102bc0002081880000c4290001002000be02070007
:102bd0000080fa00000006000600fa00000f7800ee
:102be00011079800220798000041eb006000b80030
:102bf0007cfe070012c0b3006000b80079fe070039
:102c0000e36021002e0190009e0090001e007800dd
:102c1000030001000080fa00000006000600fa0030
:102c2000000f780011079800220798001e00780016
:102c300011052000810f50000c003200110520000a
:102c4000810f500083003c000000e00004003200cf
:102c500001022000810f5000330032007d00370058
:102c60009e009000010f78007f0037002e0090003a
:102c700010407800e84f500008003a000041eb0097
:102c800000002000011a2c0056fe070012c0b300fd
:102c900000002000011a2c0052fe07002e009000b8
:102ca00010407800ea4f500008003a000041eb0065
:102cb00000002000011a24004afe070012c0b300e1
:102cc00000002000011a240046fe07002e0090009c
:102cd00010407800e24f500008003a000041eb003d
:102ce00000002000011a2c003efe070012c0b300b5
:102cf00000002000011a24003afe07002e00900078
:102d0000104078000004e00056003a000041eb005b
:102d10006000b80033fe070012c0b3006000b800c6
:102d200030fe0700500037002e00900090407800e1
:102d300090c4b30080cf500007003a002e009000ee
:102d40000000e8009040780010c3b30080cf50002e
:102d500001003a00254ea8002e0090009040780017
:102d6000f0c4b30080cf500007003a002e0090005e
:102d70000000e8009040780010c3b30080cf5000fe
:102d800001003a00254ea9002e00900090407800e6
:102d900090c4b30080cf500007003a002e0090008e
:102da0000000e8009040780020c3b30080cf5000be
:102db00001003a0064cea8002e00900090407800f8
:102dc000f0c4b30080cf500007003a002e009000fe
:102dd0000000e8009040780020c3b30080cf50008e
:102de00001003a0064cea9002e00900090407800c7
:102df00090c4b30080cf500007003a002e0090002e
:102e00000000e8009040780030c3b30080cf50004d
:102e100001003a0064eea8002e0090009040780077
:102e2000f0c4b30080cf500007003a002e0090009d
:102e30000000e8009040780030c3b30080cf50001d
:102e400001003a0064eea9000000eb00000f7800da
:102e5000050037000000eb00000f780000000000c4
:102e600001003700000000000080fa0000000600aa
:102e70000400fa00881f7800008fbe0018c0b3005d
:102e80006011b8001e0078009e00900001f7070056
:102e90000000e00001003d000044eb000804e000f9
:102ea000030032001e0078009e00900003003700ef
:102eb0001e0078009e00900001f0a2004f047800f0
:102ec0000080fa00000006000800fa00881f780061
:102ed000008fbe00220798003307980018c0b30087
:102ee0002e019000be0190001e0078009e00900010
:102ef000e8f607000000e00001003c000044eb00a1
:102f00000804e000030032001e0078009e009000dc
:102f1000020037002e009000be0090004f047800a1
:102f20000080fa00000006000800fa00881f780000
:102f3000008fbe00220798003307980018c0b30026
:102f40002e019000be0190001e0078009e009000af
:102f5000cef607000000e000010035000044eb0061
:102f60000804e000030032001e0078009e0090007c
:102f7000020037002e009000be0090004f04780041
:102f80000080fa00000006000c00fa00881f78009c
:102f9000008fbe002207980033079800440798006e
:102fa0005507980018c0b3004e019000de01900054
:102fb0001e0078009e009000b6f607000000e000ba
:102fc00001003c000044eb000804e0000400320073
:102fd0004e019000de019000028fbe000e0037000f
:102fe00018c0b3002e019000be0190001e007800b2
:102ff0009e009000a5f607000000e00001003500eb
:103000000044eb000804e000030032002e019000b1
:10301000be019000028fbe001e0078009e0090004e
:103020004f0478000080fa00000006000400fa0057
:10303000008fbe00b2fd2000930424001e00780023
:103040009e00900040f60700020020004333240059
:1030500026f707000080fa00000006000400fa00ce
:10306000008fbe00b2fd2000930424001e007800f3
:103070009e0090001df7070002002000433324004b
:1030800031f607000080fa00000006000600fa0092
:1030900010079800210798000040eb00004f7800cf
:1030a00054000700ae009000810f50001100340062
:1030b0000040eb00004f7800060037001e80fb0048
:1030c0009e00900000804000104078000b00070038
:1030d0001e4fe8009e80fb002e009000808f500065
:1030e000f6ff35002e0007000004e00001003a0062
:1030f000220007000080fa00000006000200fa002b
:10310000004f7800a0808000610221000080400014
:103110001e487800a08080000000e800a0808800a1
:10312000a1808000f0072000808f50000100340053
:103130001430ef000080fa00000006000200fa00e0
:10314000b08080006102210000804000104f7800b4
:10315000b08080000000e800b0808800b18080006e
:10316000f0072000808f5000010034001630ef007f
:103170001e4078000080fa00000006000200fa00fd
:1031800010c0b30018f0b700ecff0700004f780044
:103190001e80fb00201188000080fa00000006005d
:1031a0000000fa0018d0bf000080fa0000000600fe
:1031b0000200fa00a1808000b0808000808f500063
:1031c00004003500a1808000b0808000008f500096
:1031d00005003700a1808000b08080000080500092
:1031e00001082000010f40001e0078000080fa0056
:1031f000000006000200fa00edff070001082000b1
:10320000008f50001e0078000080fa0000000600c9
:103210000000fa0021e3a9002143a8000119800061
:10322000f0cf2f0000806000001988002043a90023
:1032300001198000000e20000100700000198800b4
:1032400011198000f0ff2100008060001019880033
:103250002343a80011198000f0cf2f0000806000e8
:10326000101988001119800030f82f0000806000cc
:103270000040a000101988002203a9002223a90001
:1032800025e3a900f0c0b30024e3b70021198000b2
:10329000f00f2e008080600000f020000100700020
:1032a000201988003303a9002e0ea8002f6ea80055
:1032b0006f2ea8001e2ea8004feea80030c3a80055
:1032c0003163a8002e03a8003063a80031e3a800f2
:1032d0004119800000fc2f00008060004019880028
:1032e00028e3a90001a8a90021a8a80021e3a800bb
:1032f0000080fa00000006000000fa002023a80069
:103300000080fa00000006000000fa000020210002
:103310000080fa00000006000000fa0023d0bf0081
:103320000080fa00000006000000fa002370ef00a1
:103330000080fa00000006000200fa00004f78004a
:103340002a0007000000e0000c003400d08080005c
:10335000610a2100008040001e487800d080800073
:103360000000e800d0808800d180800000082000a4
:10337000808f5000010034001a30ef000080fa0006
:10338000000006000200fa00e0808000610a2100cf
:1033900000804000104f7800e08080000000e800ce
:1033a000e0808800e180800000082000808f5000cd
:1033b000010034001c30ef001e4078000080fa004d
:1033c000000006000000fa00d1808000e08080004c
:1033d000808f50000200320010c0b300010037009f
:1033e0000040eb000080fa00000006000200fa0036
:1033f0000500070001082000008f50001e00780023
:103400000080fa00000006000200fa00d18080006f
:10341000e0808000808f500004003500d180800063
:10342000e0808000008f500005003700d1808000d0
:10343000e08080000080500001082000010f400063
:103440001e0078000080fa00000006000000fa006c
:103450000e2eef001e2eef002e2eef003e2eef0060
:103460004e2eef005e2eef006e2eef00214ea900d3
:1034700060cea90060eea90011cea90011eea9004e
:1034800020cea90020eea9002136800000f82f00f0
:10349000008060008001b300203688001134800075
:1034a00000fc2f00008060000000a00010348800a5
:1034b0000136800000f82f00808060001006200098
:1034c000010070000036880001368000f00f2800ef
:1034d0008080600000002600010070000036880037
:1034e000e135800000f82f0080806000600420003b
:1034f00001007000e0358800e1358000f00f280001
:10350000808060000050240001007000e0358800d9
:103510000080fa00000006000000fa00f00320001e
:10352000303a8800213a8000f0f32f0000806000dc
:10353000203a8800213a800000fe2f0000806000c1
:103540000000a000203a8800120020008007200020
:10355000a109200033742000804978008149780057
:1035600082497800103a8000000178000200a00033
:103570006004200071052000237420008049780039
:10358000814978008249780000000000113a8000eb
:10359000000027008080600000002100808f500024
:1035a000faff3a0000000000113a800000022000fb
:1035b000008060000000e000fbff32000080fa00a5
:0435c0000000060001
:020000040000fa
:1035c4001e10000002000000800000000e10000029
:1035d4000600000080000000a61100005a00000050
:1035e40080000000201000000200000082000000a3
:1035f40007000000001200000a0000008000000024
:1036040022100000020000008000000026100000cc
:10361400800000008000000014100000060000007c
:1036240080000000a6100000800000008000000060
:103634001a100000040000008000000026110000a1
:103644008000000080000000001000000e00000058
:103654008000000024100000020000008000000030
:043664000000000062
:020000040000fa
:103668000000fa002002a9000111800090ff2f003d
:10367800008060000011880020a2a9002062a80034
:10368800500520004011880023a2a90023e2a900c8
:103698000188a9002188a80011118000f0f32f00eb
:1036a80000806000101188000168a9002168a80046
:1036b80021e2a8002342a8000080fa0000000600ca
:020000040000fa
:1036c800f03fb1000180b10006003500ee030900ab
:1036d80000000000403fb1000180b100fbff3d0049
:1036e8001000b000203fb000020035000080090043
:0836f8000000000000000600c4
:020000040000fa
:02000004000af0
:04afe000cfff00009f
:020000040000fa
:02000004000af0
:04afe400ffff00006b
:020000040000fa
:02000004000af0
:04afe8007fff0000e7
:020000040000fa
:02000004000af0
:04afec005fff000003
:020000040000fa
:02000004000af0
:04aff00038ff000026
:020000040000fa
:02000004000af0
:04aff400ffff00005b
:00000001FF
