:020000040000fa
:080000000002040000000000f2
:020000040000fa
:04000800e40300000d
:020000040000fa
:04000c00e403000009
:020000040000fa
:04001000e403000005
:020000040000fa
:04001400e403000001
:020000040000fa
:04001800e4030000fd
:020000040000fa
:04001c00e4030000f9
:020000040000fa
:04002000e4030000f5
:020000040000fa
:04002400e4030000f1
:020000040000fa
:04002800e4030000ed
:020000040000fa
:04002c00e4030000e9
:020000040000fa
:04003000e4030000e5
:020000040000fa
:0400340006030000bf
:020000040000fa
:04003800e4030000dd
:020000040000fa
:04003c00e4030000d9
:020000040000fa
:04004000e4030000d5
:020000040000fa
:04004400e4030000d1
:020000040000fa
:04004800fe020000b4
:020000040000fa
:04004c00e4030000c9
:020000040000fa
:04005000e4030000c5
:020000040000fa
:04005400a003000005
:020000040000fa
:04005800760300002b
:020000040000fa
:04005c00520300004b
:020000040000fa
:04006000e4030000b5
:020000040000fa
:04006400e4030000b1
:020000040000fa
:04006800e4030000ad
:020000040000fa
:04006c00e4030000a9
:020000040000fa
:04007000e4030000a5
:020000040000fa
:04007400e4030000a1
:020000040000fa
:04007800e40300009d
:020000040000fa
:04007c00e403000099
:020000040000fa
:04008000e403000095
:020000040000fa
:04008400e403000091
:020000040000fa
:04008800e40300008d
:020000040000fa
:04008c00e403000089
:020000040000fa
:04009000e403000085
:020000040000fa
:04009400280300003d
:020000040000fa
:04009800e40300007d
:020000040000fa
:04009c00e403000079
:020000040000fa
:0400a000e403000075
:020000040000fa
:0400a400e403000071
:020000040000fa
:0400a800e40300006d
:020000040000fa
:0400ac00e403000069
:020000040000fa
:0400b000e403000065
:020000040000fa
:0400b400e403000061
:020000040000fa
:0400b800e40300005d
:020000040000fa
:0400bc00e403000059
:020000040000fa
:0400c000e403000055
:020000040000fa
:0400c400e403000051
:020000040000fa
:0400c800e40300004d
:020000040000fa
:0400cc00e403000049
:020000040000fa
:0400d000e403000045
:020000040000fa
:0400d400e403000041
:020000040000fa
:0400d800e40300003d
:020000040000fa
:0400dc00e403000039
:020000040000fa
:0400e000e403000035
:020000040000fa
:0400e400e403000031
:020000040000fa
:0400e800e40300002d
:020000040000fa
:0400ec00e403000029
:020000040000fa
:0400f000e403000025
:020000040000fa
:0400f400e403000021
:020000040000fa
:0400f800e40300001d
:020000040000fa
:0400fc00e403000019
:020000040000fa
:04010000e403000014
:020000040000fa
:04010400e403000010
:020000040000fa
:04010800e40300000c
:020000040000fa
:04010c00e403000008
:020000040000fa
:04011000e403000004
:020000040000fa
:04011400e403000000
:020000040000fa
:04011800e4030000fc
:020000040000fa
:04011c00e4030000f8
:020000040000fa
:04012000e4030000f4
:020000040000fa
:04012400e4030000f0
:020000040000fa
:04012800e4030000ec
:020000040000fa
:04012c00e4030000e8
:020000040000fa
:04013000e4030000e4
:020000040000fa
:04013400e4030000e0
:020000040000fa
:04013800e4030000dc
:020000040000fa
:04013c00e4030000d8
:020000040000fa
:04014000e4030000d4
:020000040000fa
:04014400e4030000d0
:020000040000fa
:04014800e4030000cc
:020000040000fa
:04014c00e4030000c8
:020000040000fa
:04015000e4030000c4
:020000040000fa
:04015400e4030000c0
:020000040000fa
:04015800e4030000bc
:020000040000fa
:04015c00e4030000b8
:020000040000fa
:04016000e4030000b4
:020000040000fa
:04016400e4030000b0
:020000040000fa
:04016800e4030000ac
:020000040000fa
:04016c00e4030000a8
:020000040000fa
:04017000e4030000a4
:020000040000fa
:04017400e4030000a0
:020000040000fa
:04017800e40300009c
:020000040000fa
:04017c00e403000098
:020000040000fa
:04018000e403000094
:020000040000fa
:04018400e403000090
:020000040000fa
:04018800e40300008c
:020000040000fa
:04018c00e403000088
:020000040000fa
:04019000e403000084
:020000040000fa
:04019400e403000080
:020000040000fa
:04019800e40300007c
:020000040000fa
:04019c00e403000078
:020000040000fa
:0401a000e403000074
:020000040000fa
:0401a400e403000070
:020000040000fa
:0401a800e40300006c
:020000040000fa
:0401ac00e403000068
:020000040000fa
:0401b000e403000064
:020000040000fa
:0401b400e403000060
:020000040000fa
:0401b800e40300005c
:020000040000fa
:0401bc00e403000058
:020000040000fa
:0401c000e403000054
:020000040000fa
:0401c400e403000050
:020000040000fa
:0401c800e40300004c
:020000040000fa
:0401cc00e403000048
:020000040000fa
:0401d000e403000044
:020000040000fa
:0401d400e403000040
:020000040000fa
:0401d800e40300003c
:020000040000fa
:0401dc00e403000038
:020000040000fa
:0401e000e403000034
:020000040000fa
:0401e400e403000030
:020000040000fa
:0401e800e40300002c
:020000040000fa
:0401ec00e403000028
:020000040000fa
:0401f000e403000024
:020000040000fa
:0401f400e403000020
:020000040000fa
:0401f800e40300001c
:020000040000fa
:0401fc00e403000018
:020000040000fa
:04020000e403000013
:020000040000fa
:04020400e40300000f
:020000040000fa
:04020800e40300000b
:020000040000fa
:04020c00e403000007
:020000040000fa
:04021000e403000003
:020000040000fa
:04021400e4030000ff
:020000040000fa
:04021800e4030000fb
:020000040000fa
:04021c00e4030000f7
:020000040000fa
:04022000e4030000f3
:020000040000fa
:04022400e4030000ef
:020000040000fa
:04022800e4030000eb
:020000040000fa
:04022c00e4030000e7
:020000040000fa
:04023000e4030000e3
:020000040000fa
:04023400e4030000df
:020000040000fa
:04023800e4030000db
:020000040000fa
:04023c00e4030000d7
:020000040000fa
:04024000e4030000d3
:020000040000fa
:04024400e4030000cf
:020000040000fa
:04024800e4030000cb
:020000040000fa
:04024c00e4030000c7
:020000040000fa
:04025000e4030000c3
:020000040000fa
:04025400e4030000bf
:020000040000fa
:04025800e4030000bb
:020000040000fa
:04025c00e4030000b7
:020000040000fa
:04026000e4030000b3
:020000040000fa
:04026400e4030000af
:020000040000fa
:04026800e4030000ab
:020000040000fa
:04026c00e4030000a7
:020000040000fa
:04027000e4030000a3
:020000040000fa
:04027400e40300009f
:020000040000fa
:04027800e40300009b
:020000040000fa
:04027c00e403000097
:020000040000fa
:04028000e403000093
:020000040000fa
:10040000ef2221000eff27000e01880000000000ef
:10041000000020000000e000020032000001200087
:100420002002880014000700e90007000000e00037
:1004300003003a0000e22100010020000200370022
:100440000000200001002000810f70000100320038
:100450000f000700000020000000e0000200320052
:100460000000020000000000360902000000000049
:100470000040da000000fe00600020000000e00004
:1004800002003200002020009001880000000600d9
:10049000a1028800800478000000eb001f003700f4
:1004a000e284440054a0b4009905ba00e2844400f8
:1004b00054a0b4009906ba00e284440054a0b400e9
:1004c0000006eb00476fde00fd07b200ae018800ba
:1004d000636ce10003003a000ad801000000eb0061
:1004e0000e003700606ce10008003a00004deb00a0
:1004f0000a05e800020039003420ec000af0a000f0
:100500008b05e900f9ff3e00040037006168e10057
:10051000010032000086eb000b00070019c7ba008b
:100520000e04e0001905ba0003003a000a00e000da
:10053000dbff3a0000000600fe07b200ae028800b2
:100540008a047800f5ff37000cd0a300e20f4d00bd
:100550001c00390089027800354dba000a05e80010
:10056000020039003420ec000af0a0008b05e900fd
:100570000f003200254dba000a05e80002003900dc
:100580003420ec000af0a0008b05e90008003200de
:100590000c00e0000600320015cdba000a05e800a4
:1005a000020039003420ec000af0a0008b05e900bd
:1005b0008984e80054a0b4000b00e000e2ff3a0098
:1005c000000006009902ba00055d78008b05e9007d
:1005d000f7ff3200c82ade00055d78008b05e900d0
:1005e000f3ff32000c00e000f1ff320019ddba0029
:1005f000eeff3700a2190400000000000000fa001e
:100600000108a9000080fa00004006003600f8004a
:10061000809fbe00829fbe00849fbe00869fbe005a
:100620000000fa000068a900cc090700fc0c0700d4
:10063000a40807000080fa004f03be004f02be006e
:100640004f01be004f00be003600f900004006001a
:100650003600f800809fbe00829fbe00849fbe00cf
:10066000869fbe000000fa000368a9007081800028
:100670008181800061004000e08048007081880036
:1006800081818800230307000080fa004f03be0029
:100690004f02be004f01be004f00be003600f90001
:1006a00000400600801f78000000fa0001a8a900a1
:1006b0000018800020918800101880003091880078
:1006c00020188000409188003018800050918800e8
:1006d000401880006091880010c0b30043f0b7005c
:1006e0000080fa004f007800004006003600f80055
:1006f000809fbe00829fbe00849fbe00869fbe007a
:100700000000fa000188a900b1818000a08180006a
:10071000808f500002003200620c07000100370099
:100720003870ef000080fa004f03be004f02be0099
:100730004f01be004f00be003600f9000040060029
:100740003600f800809fbe00829fbe00849fbe00de
:10075000869fbe000000fa000168a9001011800009
:10076000640060000000e000010032002242a900a5
:1007700010118000620060000000e00006003200fe
:100780002222a900050037003011800000407800c7
:10079000b30c0700010037000000000010118000ba
:1007a000610060000000e000f7ff3a000080fa00fe
:1007b0004f03be004f02be004f01be004f00be00ff
:1007c0003600f900004006000040da000000fe009c
:1007d0000000050003f0a200889fbe008a9fbe00b3
:1007e0008c1f78002c010700330133006450e100b6
:1007f0004f0032006420e1005200320003826c009e
:1008000007003b000905d0000306d000820f54000a
:100810000c065d00020039000200320089017800f8
:10082000030678008582550004003d000003fd00aa
:100830008103fd008502ea008b854200840f72006f
:1008400002003b0060001000e08018006011b8005a
:100850000005eb007a28e1000a0039000600780064
:10086000c75ddd00f707b200878075002d003700f7
:10087000828171000a017800610560008180d100e9
:100880000080d3008502e900f9ff3b000604400028
:100890008784480002003b0060041400e0841c00d0
:1008a0000988a300070032008a81710082817100eb
:1008b000610164008904d1000884d3008b05e8003d
:1008c000170037000978a30013003a000b00e0007e
:1008d000130034008b05e9000804440089844c00af
:1008e0000a4474000978a3000d003a000b00e000f0
:1008f000070034008b05e9000804440089844c009b
:1009000001003a000b0020000978a300f7ff320035
:100910000001eb0002003700828171000a017800bb
:10092000a20007000cf0a70001f0a000eb003700c8
:100930006420e10002003a00838f6c00eb0033007a
:100940000801be000200be00e40037000081eb0099
:100950001d013700889fbe008a9fbe008c1f780053
:10096000cd000700d400330003866c006450e10022
:100970002e0032006420e100330032006150e100bb
:100980002f0032006120e1003100320085855500e2
:10099000eb07b00009002000080420000500370024
:1009a0000804440089844c000a0031000603430017
:1009b00087834b000001530081815b00f8ff330007
:1009c0000203be000800a0000804440089844c0013
:1009d000f6ff3900c639dd008301730001003200e3
:1009e000130020008904d1000884d3000998a300d3
:1009f000050032000800a7000300a0008904d10010
:100a00000884d3008b05e8008904d1000884d30052
:100a10000001eb000281d2006400070001f0a10098
:100a20000cf0a70001f0a000ac0037006420e1004a
:100a3000ae0032000801be000200be00f7ff370022
:100a40006120e100a90032006000b800f3ff370028
:100a50000000200001f82700f0ff3700839f6800a6
:100a60000100e00002003d0060001000e08018007e
:100a70000300e00002003d0060011100e081190068
:100a80003c0107004f00e00002003b006000100046
:100a9000e080180000000600140020004501370027
:100aa000f4ff2f00430137000001be00650007007e
:100ab0000470a70003f0a1006509b1001600320020
:100ac0000d0035006828e10006003500f0ff2f001a
:100ad000f1ff27000300e00013003b0001002800a5
:100ae0000000050000004000818048008502e90008
:100af000fcff3a0008003700f88f420002003c007b
:100b00008000eb00000005008100d1000080d300d0
:100b10008502e800fcff3a000300e00002003b0011
:100b200060001000e0801800000006000001be0018
:100b3000440007000470a70003f0a10003f8a3001d
:100b400013003a006509b1001000320009003500b9
:100b50006928e100020035000100280000000500be
:100b600000004000818048008502e900fcff3a0057
:100b700000000600f88f4200050035008100d1001a
:100b80000080d3008502e800fcff3a000000060068
:100b90008000eb00000005004f89de008201780034
:100ba0001f0137006011b8002d01370081002000bf
:100bb000618055000b003d000b00200061fe2f00fe
:100bc0000100e1001d0034008281710061016400b8
:100bd0008904d1000884d3000000e800faff3a003d
:100be00071002000610064000300700002006000da
:100bf0000900320061044400e0844c000988a5002b
:100c0000050032008b05e8006808e10002003a00a8
:100c10008904d1000884d300f20f20000258e100bb
:100c200005003d00c75ddd00f907b2008980750051
:100c300008007800000006000bf827008b00780001
:100c400000000500c70ade00f107b200f50fb20090
:100c500008003200e1cf4200020032000170a00023
:100c600024000500810f7000010032000408050017
:100c700044000500810f700002003a0014000500d6
:100c80008502e9000000400081c04800fcff3b00f5
:100c90000170a000240005000004be00e9ff070069
:100ca0000003be000405be000200be00e5ff070011
:100cb000844f7500000006000200be006450e10091
:100cc000050036006420e100020036000968a30038
:100cd00001003a000800be000160a0004f06780045
:100ce0004f05be004f04be0000000600f0ff2f00bd
:100cf000f1ff2700f9ff3700889fbe008a9fbe00e2
:100d00008c1f7800e4ff0700ebff330003866c00c4
:100d10006450e100240032006420e100270032002a
:100d20006150e100220032006120e1002100320028
:100d30008b854200eb07b1000134b800003ab800df
:100d40000804420089844a00013ab8000030b80023
:100d50008880400009014a00040033000000400080
:100d600081804800020149008b05e900c909dd00c6
:100d7000830170000100320013002000c814de005f
:100d80004814dd004709de001200b200c808de008a
:100d90000884700085ff070001f0a1000cf0a70097
:100da00001f0a000cdff37006120e100cfff32004d
:100db0000801be000200be00f7ff37006150e100ed
:100dc000fcff3a00c9ff3700889fbe008a9fbe0023
:100dd0008c9fbe00820578000004be0099ff0700ca
:100de0000800be006420e1000700390002003a005c
:100df000f1ff2700f0ff2f000160a0001202200089
:100e000042828800550037006120e10003003a006b
:100e10000b00a70001f823005000370001f0a100eb
:100e200002002100936424001bff07000800be009d
:100e300004003500b2fd2000930c2400b700070029
:100e40000004be000005eb000b00a6004f0dde0005
:100e500001f0a1000004be0032982f0023ea230015
:100e6000a5ff07000001eb0003f023000b00a70023
:100e700003f8230058fe07000bff07000000a7003f
:100e80000a00a20044ff07000b00e000030032004c
:100e90000200200003f023004efe070001f0a20034
:100ea0000006be00020020009304240092ff070009
:100eb0000801be0048fe0700809fbe000c00be0077
:100ec00022a22a00d3a723008bff07004f01be00f8
:100ed00041fe07000004be0001f0a1000200200056
:100ee00003982300ecfe07000800be00190035003f
:100ef0000001be0080ff07000006be00b2c5290049
:100f0000e36223007cff070022222b00f3942b00d6
:100f100031fe07000c01be0077ff0700e2732800d6
:100f200083c023002cfe07000c01be0072ff0700e7
:100f300042aa2a00a3e22b0027fe07000c01be00f4
:100f40006dff07000801be006bff07000801be002f
:100f500021fe07000a00a70001f0a2004f06be0014
:100f60004f05be004f04be00000006000001eb006c
:100f700095ff37006022b800060220000000d00074
:100f80008180d2000482d2008582d2000000a000bd
:100f90000202520083825a00030031000202420022
:100fa00083824a000000a1000603e900f3ff3a0033
:100fb00000000600889fbe008a9fbe00841f780044
:100fc00035ff07004f00780011003300f0ff2f00bd
:100fd000838f6c0006003b00040565000a00a70033
:100fe0000800370009f0a6001000200008003700b4
:100ff000820f5400838f5c00030039001000200032
:1010000001003e000000200009f0a7000000ea00f7
:101010004f05be004f04be000000e00000000600c7
:10102000881f7800030478000300e00007003d00fb
:1010300060001000e080180060011900e0811900d4
:1010400002003b0001f02d00030037000400070000
:1010500008f0a70001f0a0004f047800000006008f
:10106000889fbe008a9fbe0000827000040271004b
:1010700004827100260032000004be000200be009f
:101080006011b8006b092000950220000182cf009a
:101090000a0039000541b1000082cf000700390085
:1010a0000541b1000982cf00040039000541b100bb
:1010b0000882cf00010039000541b100054252000d
:1010c000120032000a003b0082817100610164005d
:1010d0008100d1000080d3008984d3000884d3002c
:1010e0008b05e8000442e800f7ff3a0007003700ec
:1010f0000804440089844c000000480081804800b6
:101100008b05e9000442e900f9ff3a00a7fe070059
:101110004f05be004f04be00000006000400200082
:1011200000003700889fbe008a9fbe008c1f780099
:101130004f26dd00d8fe0700dffe33006120e1000e
:10114000430032006250e10041003e003e003900a1
:101150006420e1003c003200058255000f003b0096
:101160000402e80038003a00800f5300818f5b00d2
:10117000350034000800be0003f0a10001f0a60015
:1011800003f0a0000cf0a70093fd0700d3fe37008a
:101190000603430087834b000c46460000055300be
:1011a00081855b00020033000a03be000c00a00032
:1011b0000402e900f6ff3b008505780006024300c3
:1011c00087824b0004003a006000b80009f0a700d5
:1011d00001f0a000c1fe37000002520081825a00d7
:1011e0000704e000040033000603430087834b003c
:1011f0008b05e900faff3700090578000604be00f8
:101200000203be006011b80068fe0700e00f520044
:10121000e08f5a000700350002003c000c08a300d4
:10122000040032000601be0003f0a0000cf0a7008d
:1012300069fd07000a85680001f0a1000af0a70017
:1012400001f0a000a5fe37000800be00a3fe370095
:10125000100220000cf0a60040828800a3fe370098
:020000040000fa
:0c126000736100006c7500007400000059
:020000040000fa
:10126c000800fa00a60a07003f0a0700200307003f
:10127c005303070086060700ac090700cf030700dd
:10128c00ca0a07005d0707007905070081050700fa
:10129c000000eb00000f780004003700000a070084
:1012ac000080fb00d10407001e0fe8001d0a070098
:1012bc009e0f5000f9ff3c00808f8000e10f500022
:1012cc000f003a00908f8000a18f8000f3fd070083
:1012dc0010079800b08f8000c18f8000effd0700d1
:1012ec0020079800d18f8000310798003e019000b4
:1012fc00ae0090001e009000fe070700e4ff3700d0
:10130c003e070700e2ff37000000fa003ed0bf00a6
:10131c000080fb00cf80de00520120000300200083
:10132c00820f5000838f5800a7003e00000601007a
:10133c00150037001e00370027003700310037003a
:10134c00320037003c0037003d00370047003700c3
:10135c004800370052003700530037005d0037005b
:10136c009900370098003700830037008d00370054
:10137c005a00370064003700650037006f003700f3
:10138c00700037007a0037002e30ef003030ef005d
:10139c000041eb006000b8005906070012c0b30012
:1013ac006000b8005606070010c0b3003ef0b7004e
:1013bc007281800083818000803e2000010020002b
:1013cc00800f5100818f59008200360020c0b3007d
:1013dc003ef0b700820037000041eb000000200017
:1013ec00811c2c004606070012c0b3000000200030
:1013fc00811c24004206070030c0b3003ef0b70049
:10140c007700370078000700750037000041eb00cb
:10141c0000002000011a2c003906070012c0b3008e
:10142c0000002000010a2c003506070050c0b30054
:10143c003ef0b7006a0037006b0007006800370009
:10144c000041eb0000002000010a24002c060700dc
:10145c0012c0b30000002000011a24002806070067
:10146c0070c0b3003ef0b7005d0037005e000700af
:10147c005b0037000041eb000000200001172c003e
:10148c001f06070012c0b3000000200001172c003b
:10149c001b06070090c0b3003ef0b70050003700a9
:1014ac00510007004e0037000041eb000000200007
:1014bc00011724001206070012c0b3000000200020
:1014cc00011724000e060700b0c0b3003ef0b700b1
:1014dc004300370044000700410037000041eb0097
:1014ec000000200001172c000506070012c0b300f5
:1014fc0000002000011724000106070010c1b300f2
:10150c003ef0b700360037003700070034003700d4
:10151c000041eb000000200001122c00f805070030
:10152c0012c0b30000002000011a2400f4050700cb
:10153c0030c1b3003ef0b700290037002a00070085
:10154c00270037000041eb0000002000011a2c009e
:10155c00eb05070012c0b3000000200001122400ac
:10156c00e705070050c1b3003ef0b7001c00370080
:10157c001d0007001a0037000041eb00000020009e
:10158c0001122400de05070012c0b3000000200089
:10159c0001122c00da050700f0c0b3003ef0b700d2
:1015ac000f0037007281800083818000803e200014
:1015bc0001002000800f5100818f59000700360078
:1015cc0009000700060037003e70ef000000000025
:1015dc00030037000000000001003700000000008d
:1015ec000080fa00000006000600fa00881f780050
:1015fc000040eb00004f7800008f8000118f8000be
:10160c0018c0b30002002000031a24001ffd0700bd
:10161c000000e000010035000044eb000804e0008d
:10162c002f003200208f8000318f800018c0b30053
:10163c0002002000031a240014fd07000000e00043
:10164c00010035000044eb000804e00024003200e7
:10165c00408f8000518f800018c0b3000200200022
:10166c00031a240009fd07000000e000010035000a
:10167c000044eb000804e00019003200e08e80000a
:10168c00f18e800018c0b30002002000031a240061
:10169c00fefc07000000e000010035000044eb00f8
:1016ac000804e0000e003200608f8000718f800013
:1016bc0018c0b30002002000031a2400f3fc07003a
:1016cc000000e000010035000044eb000804e000dd
:1016dc000300320080c0b300004f7800880137004f
:1016ec00008f8000118f800018c0b3000200200012
:1016fc00031a2400e5fc07000000e000010035009f
:10170c000044eb000804e00019003200208f800038
:10171c00318f800018c0b30002002000031a24008f
:10172c00dafc07000000e000010035000044eb008b
:10173c000804e0000e003200408f8000518f8000c2
:10174c0018c0b30002002000031a2400cffc0700cd
:10175c000000e000010035000044eb000804e0004c
:10176c0003003200c0c0b300004f780064013700a2
:10177c00008f8000118f800018c0b3000200200081
:10178c00031a2400c3fc07000000e00001003c0029
:10179c000044eb000804e0002f003200208f800092
:1017ac00318f800018c0b30002002000031f2400fa
:1017bc00b8fc07000000e00001003c000044eb0016
:1017cc000804e00024003200408f8000518f80001c
:1017dc0018c0b30002002000031a2400adfc07005f
:1017ec000000e00001003c000044eb000804e000b5
:1017fc0019003200e08e8000f18e800018c0b3001a
:10180c000200200003122400a0fc07000000e000ee
:10181c00010035000044eb000804e0000e0032002b
:10182c00608f8000718f800018c0b3000200200010
:10183c000312240095fc07000000e00001003500b5
:10184c000044eb000804e00003003200d0c0b300f9
:10185c00004f78002a013700008f8000118f800024
:10186c0018c0b300020020000312240087fc0700fc
:10187c000000e000010035000044eb000804e0002b
:10188c0019003200208f8000318f800018c0b30007
:10189c0002002000031f24007efc07000000e00073
:1018ac0001003c000044eb000804e0000e00320094
:1018bc00408f8000518f800018c0b30002002000c0
:1018cc000312240071fc07000000e0000100350049
:1018dc000044eb000804e0000300320040c0b300f9
:1018ec00004f780006013700008f8000118f8000b8
:1018fc0018c0b30002002000031f240063fc070083
:10190c000000e000010035000044eb000804e0009a
:10191c0019003200208f8000318f800018c0b30076
:10192c0002002000031f24005afc07000000e00006
:10193c0001003c000044eb000804e0000e00320003
:10194c00408f8000518f800018c0b300020020002f
:10195c00031f24004ffc07000000e00001003c00c6
:10196c000044eb000804e0000300320020c0b30088
:10197c00004f7800e2003700008f8000118f80004c
:10198c0018c0b30002002000031f240041fc070014
:10199c000000e00001003c000044eb000804e00003
:1019ac0019003200208f8000318f800018c0b300e6
:1019bc0002002000031f240036fc07000000e0009a
:1019cc0001003c000044eb000804e0000e00320073
:1019dc00408f8000518f800018c0b300020020009f
:1019ec00031f240029fc07000000e0000100350063
:1019fc000044eb000804e0000300320010c0b30008
:101a0c00004f7800be003700208f8000318f80009f
:101a1c0018c0b30002002000031a24001bfc0700ae
:101a2c000000e000010035000044eb000804e00079
:101a3c000300320060c0b300004f7800b0003700e4
:101a4c00208f8000318f800018c0b300020020006e
:101a5c00831c24000dfc07000000e0000100350091
:101a6c000044eb000804e0000e003200208f8000e0
:101a7c00318f800018c0b30002002000031a24002c
:101a8c0004fc07000000e00001003c000044eb00f7
:101a9c000804e0000300320070c0b300004f78006f
:101aac0097003700008f8000118f800018c0b300a2
:101abc0002002000031f2400f6fb07000000e000da
:101acc0001003c000044eb000804e0002f00320051
:101adc00208f8000318f800018c0b30002002000de
:101aec00031f2400ebfb07000000e00001003c009a
:101afc000044eb000804e00024003200408f80001a
:101b0c00518f800018c0b30002002000031f240076
:101b1c00e0fb07000000e00001003c000044eb008b
:101b2c000804e00019003200e08e8000f18e800085
:101b3c0018c0b30002002000031a2400d3fb0700d6
:101b4c000000e000010035000044eb000804e00058
:101b5c000e003200608f8000718f800018c0b300bf
:101b6c0002002000031f2400cafb07000000e00055
:101b7c0001003c000044eb000804e00003003200cc
:101b8c00e0c0b300004f78005d003700008f80008c
:101b9c00118f800018c0b30002002000031f240026
:101bac00bcfb07000000e00001003c000044eb001f
:101bbc000804e0002f003200208f8000318f80005d
:101bcc0018c0b30002002000031f2400b1fb070063
:101bdc000000e00001003c000044eb000804e000c1
:101bec0024003200408f8000518f800018c0b30059
:101bfc0002002000031f2400a6fb07000000e000e9
:101c0c0001003c000044eb000804e0001900320025
:101c1c00e08e8000f18e800018c0b300020020001e
:101c2c00031f24009bfb07000000e00001003c00a8
:101c3c000044eb000804e0000e003200608f8000ce
:101c4c00718f800018c0b30002002000031a24001a
:101c5c008efb07000000e000010035000044eb00a3
:101c6c000804e00003003200f0c0b300004f78001d
:101c7c0023003700008f8000118f800018c0b30044
:101c8c0002002000031f240082fb07000000e0007c
:101c9c0001003c000044eb000804e0001800320096
:101cac00208f8000318f800018c0b300020020000c
:101cbc00031f240077fb07000000e00001003c003c
:101ccc000044eb000804e0000d003200408f80005f
:101cdc00518f800018c0b30002002000031f2400a5
:101cec006cfb07000000e00001003c000044eb002e
:101cfc000804e000020032000040eb00004f7800c6
:101d0c001e407800e84f500003003a00e0c0b300da
:101d1c003ff0b7004d0037001e407800ea4f5000ee
:101d2c0003003a0080c0b3003ff0b7004700370013
:101d3c001e407800eb4f500003003a0080c0b30007
:101d4c003ff0b700410037001e407800ec4f5000c8
:101d5c0003003a0080c0b3003ff0b7003b003700ef
:101d6c001e407800ed4f500003003a0000c1b30054
:101d7c003ff0b700350037001e407800e44f5000ac
:101d8c0003003a0080c0b3003ff0b7002f003700cb
:101d9c001e407800e34f500003003a0000c1b3002e
:101dac003ff0b700290037001e407800e24f50008a
:101dbc0003003a0040c0b3003ff0b70023003700e7
:101dcc001e407800e14f500003003a0060c0b300a1
:101ddc003ff0b7001d0037001e407800e64f500062
:101dec0003003a0080c0b3003ff0b7001700370083
:101dfc001e407800e74f500003003a0000c1b300ca
:101e0c003ff0b700110037001e407800ee4f500035
:101e1c0003003a0040c1b3003ff0b7000b0037009d
:101e2c001e407800ef4f500003003a0020c1b30071
:101e3c003ff0b700050037001e4078000004e000ba
:101e4c0002003a0020c0b3003ff0b7003fd0bf0003
:101e5c008080fb003ed0bf000080fb000000e9004a
:101e6c00808f50001f0032003fd0bf003ef0b70003
:101e7c003ed0bf00104798007081800081818000a7
:101e8c004808de00004078002047980070818000f0
:101e9c00818180004008de000040780030479800c7
:101eac0070818000818180004809dd004800de00df
:101ebc0000007100c808de00004078004047980020
:101ecc00708180008181800000407800504798002c
:101edc000e00e800000178005100200000052000f1
:101eec00650107004f0478000080fa00000006002e
:101efc000400fa0013e1a90011e1a9001061a80087
:101f0c001021a90081088000f0fc2f0000806000e7
:101f1c000040a000800888000a21ef000621ef0095
:101f2c00404c20007008880000402b00600888009e
:101f3c00800880004400de00634060000081fb00ec
:101f4c008001eb00700880008000eb00c002dd0017
:101f5c0004002000600880008000eb0004004000ba
:101f6c0085804800809ab900828bb900860278007f
:101f7c00050242000010b800010242008400780003
:101f8c000001be0000a0250021262000b0fa0700a9
:101f9c00fefa0700008fbe002142800080ff2f0058
:101fac00008060000000a000204288000108a90009
:101fbc002108a80011e1a8000080fa00000006002a
:101fcc000000fa0005e1a9000421a900000020008e
:101fdc00a1372400050007000068a9002068a800ac
:101fec0005e1a8000080fa00000006000400fa00d9
:101ffc00881f7800008fbe0021088000f0fc2f00a5
:10200c0000806000200888001e0178009e0190006e
:10201c000068290081c124004bfa070018c0b300e6
:10202c0002f02f00f37724009afa07000000e0007a
:10203c0001003c000044eb000804e00054003200b6
:10204c0021088000f0fc2f00008060000040a00000
:10205c00200888001e0178009e019000006829006d
:10206c0081c1240038fa070002002000031024006c
:10207c0035fa070018c0b30002f02f00f3772400e4
:10208c0084fa07000000e00001003c000044eb0073
:10209c000804e0003200320021088000f0fc2f0020
:1020ac00008060000050a000200888001e0178000d
:1020bc009e0190000068290081c1240022fa0700cb
:1020cc0002002000032824001ffa070018c0b300e8
:1020dc0002f02f00f37724006efa07000000e000f6
:1020ec0001003c000044eb000804e000100032004a
:1020fc0021088000000320000100700020088800e7
:10210c001e0178009e0190000068290081c1240006
:10211c000dfa070002002000033824000afa070019
:10212c005efa0700000078001008880020003700d5
:10213c001e0178009e0190000068290081c12400d6
:10214c0001fa07000200200003282400fef9070012
:10215c0052fa0700000078001008880014003700bd
:10216c001e0178009e0190000068290081c12400a6
:10217c00f5f907000200200003102400f2f9070013
:10218c0046fa0700000078001008880008003700a5
:10219c001e0178009e0190000068290081c1240076
:1021ac00e9f907003dfa07000000780010088800e4
:1021bc004f0478000080fa00000006000000fa00ce
:1021cc0000002000a1472400070007001fe1a90020
:1021dc001e21a9000368a9002368a8001fe1a8001c
:1021ec000080fa00000006000400fa00881f780046
:1021fc00008fbe00f1088000f0fc2f000080600012
:10220c00f00888001e0178009e01900000682900eb
:10221c0081c12400ccf9070018c0b30002f02f00d4
:10222c00f37724001bfa07000000e00001003c00db
:10223c000044eb000804e00054003200f108800078
:10224c00f0fc2f00008060000040a000f008880027
:10225c001e0178009e0190000068290081c12400b5
:10226c00b9f907000200200003102400b6f907009a
:10227c0018c0b30002f02f00f377240005fa070012
:10228c000000e00001003c000044eb000804e0000a
:10229c0032003200f1088000f0fc2f00008060005a
:1022ac000050a000f00888001e0178009e019000ec
:1022bc000068290081c12400a3f907000200200056
:1022cc0003282400a0f9070018c0b30002f02f0067
:1022dc00f3772400eff907000000e00001003c0058
:1022ec000044eb000804e00010003200f10880000c
:1022fc000003200001007000f00888001e01780027
:10230c009e0190000068290081c124008ef907000d
:10231c0002002000033824008bf90700dff90700c6
:10232c0000007800d0088800200037001e017800db
:10233c009e0190000068290081c1240082f90700e9
:10234c0002002000032824007ff90700d3f90700be
:10235c0000007800d0088800140037001e017800b7
:10236c009e0190000068290081c1240076f90700c5
:10237c00020020000310240073f90700c7f90700be
:10238c0000007800d0088800080037001e01780093
:10239c009e0190000068290081c124006af90700a1
:1023ac00bef9070000007800d00888004f047800c0
:1023bc000080fa00000006000a00fa0020079800ce
:1023cc003107980042079800e0cfb300004f780027
:1023dc002e0090004880de00804078001e4078007f
:1023ec0000c06800004f78002e00900080407800fc
:1023fc001e40780000c06800004f78003e0090003e
:10240c004880de00804078001e40780000c06800e4
:10241c00004f78003e009000804078001e4078000d
:10242c0000c06800004f78000000eb001007980017
:10243c000000eb0010079800080037001e00900009
:10244c00ce00900000804000104078001e4f6800c5
:10245c001e0090000000e800100798009e009000fd
:10246c003e009000808f5000f4ff35001e40780035
:10247c000080fa00000006001000fa00889fbe00e1
:10248c005007980061079800720798000f047800b5
:10249c000f007800800478006e0090006600400009
:1024ac008000e900210798000000e8000000e80027
:1024bc000000d100800040000f00780081874700a9
:1024cc000000e8000000d100000040003007980038
:1024dc000000eb00000f78003e0090001e00400052
:1024ec00e1cfb300014878001e0fe8005e009000b9
:1024fc004880de00804078003e0090001e004000c6
:10250c00014878001e0fe8005e00900080407800c3
:10251c003e0090001e004000014878001e0fe800ad
:10252c006e0090004880de00804078003e009000f5
:10253c001e004000014878001e0fe8006e0090005d
:10254c00804078003e0090001e004000014878005a
:10255c001e0fe8000000eb00100798000000eb00d5
:10256c00100798000b0037001e009000fe00900032
:10257c0000804000904078003e0090001e0040001b
:10258c00014878001e0fe8001e0090000000e800d3
:10259c00100798009e0090006e009000808f5000f5
:1025ac00f1ff35007e019000ee0090005e0090007f
:1025bc0081ff0700004f98003e0090001e00400075
:1025cc008e489000014878001e0fe8003e009000f5
:1025dc009e0078007404070089077800880778004b
:1025ec004f04be000080fa00000006000200fa0052
:1025fc00004f780060818000e30f5000280032000b
:10260c00e30f500007003c00e10f500015003200b2
:10261c00e10f50001b003c000000e00008003200fd
:10262c0053003700e50f500031003200e50f500029
:10263c0023003500e60f50003b0032004c00370001
:10264c001e407800e24f40004c003a002230ef0070
:10265c002430ef002630ef0010002000608188004d
:10266c00490037001e80fb0010818800108180001b
:10267c004800dd0010818800200020006081880067
:10268c00410037009e80fb001081800000804000dc
:10269c001081880030002000608188003a003700eb
:1026ac001e80fb0020818800208180004800dd0016
:1026bc0020818800400020006081880032003700b3
:1026cc009e80fb00208180000080400020818800db
:1026dc00208180000000e00002003a002c30ef0066
:1026ec002900370050002000608188002600370048
:1026fc0030818000a1142100008040001e48780029
:10270c00308180000000e800308188003181800039
:10271c0020818000808f50001a003a006000200059
:10272c0060818800180037001e80fb0050818800f3
:10273c002181800010818000a21421001eff07005f
:10274c000080fb0040818800418180005081800026
:10275c00808f500004003a0021818000108180009d
:10276c00a2142100200007002c30ef0006003700d7
:10277c002c30ef00000000000300370000000000c8
:10278c0001003700000000000080fa000000060085
:10279c000200fa00000f78000080fa00000006002a
:1027ac000200fa00000f78001e007800104078003c
:1027bc0020f0b70020d0bf000080fb00808f880085
:1027cc00808f8000e10f500003003a0010002000c1
:1027dc00808f8800020037000000eb00808f88009b
:1027ec000080fa00000006000600fa00000f7800d6
:1027fc0011079800220798001e007800cf80de0099
:10280c00e2f80700908f8800a18f88001e009000ce
:10281c00cf80de00ddf80700b08f8800c18f880004
:10282c00ae009000d18f88001e0078000000e00000
:10283c000c00320021052000810f500005003a00e9
:10284c002e009000d6ff07000000eb00000f780070
:10285c00050037000000eb00000f780000000000be
:10286c0001003700000000000080fa0000000600a4
:10287c000000fa00c301a8000080eb00e00e880005
:10288c000080eb00f00e8800c1e1a8000080fa0087
:10289c00000006000000fa00c305a8000080eb0051
:1028ac00e02e88000080eb00f02e8800c1e5a80027
:1028bc000080fa00000006000800fa00889fbe00a5
:1028cc008a9fbe00208080003180800000808800bc
:1028dc0011808800608080007180800040808800ba
:1028ec0051808800300e80008000eb00008fbe000d
:1028fc00500e80008000eb00c000dd0000002000c6
:10290c001e0f40005e974800302e80008000eb00c8
:10291c002007980031079800502e80008000eb00b3
:10292c00c000dd00000020002e019000be019000d0
:10293c00020040008380480020079800310798006f
:10294c001e0078009e00900090f80700d25d2b00ce
:10295c0043c82300e5f8070050f8070020808800e2
:10296c00318088002e009000be00900087f8070090
:10297c00d25d2b0043c82b00dcf8070047f807009a
:10298c006080880071808800228080003380800005
:10299c00008080001180800000005100818059006f
:1029ac008080880091808800628080007380800025
:1029bc0040808000518080000000510081805900cf
:1029cc00a0808800b1808800828080009380800085
:1029dc00a0808000b18080000000510081805900ef
:1029ec006af80700a2992900c3382400d6f707001b
:1029fc002af80700c0808800d1808800828080007f
:102a0c0093808000a0808000b18080000200400094
:102a1c00838048004f09de008001eb00020040007b
:102a2c00838048008180d1000080d300e080880042
:102a3c00f1808800308280006101b90080808000c4
:102a4c0091808000809ab900828bb9008602780050
:102a5c00050242000010b800010242008400780018
:102a6c004af80700e08f8800f18f880030828000e0
:102a7c006101b900a0808000b1808000809ab9000b
:102a8c00828bb90086027800050242000010b80063
:102a9c0001024200840078003cf807000090880096
:102aac0011908800e48f8000f58f800000908000ea
:102abc00119080000001be000400be0043f7070027
:102acc0002002000030024009ff7070020908800dc
:102adc0031908800308280006101b900c080800094
:102aec00d1808000809ab900828bb9008602780070
:102afc00050242000010b800010242008400780078
:102b0c0022f8070040908800519088008090800047
:102b1c00919080006090880071908800c090800037
:102b2c00d1908000a0908800b19088000091800026
:102b3c0011918000e0908800f1908800089180004d
:102b4c00199180004a9080005b9080003082800058
:102b5c00cf80de000df807000001be000a00be00a9
:102b6c0079f707000001be000800be0017f7070048
:102b7c0000918800119188000091800011918000d3
:102b8c0018c0b300b2fd200093042400c1f7070065
:102b9c000000e00001003c000044eb000804e000f1
:102bac00070032000091800011918000b2fd2000de
:102bbc00930c240004f70700009188001191880001
:102bcc00009180001191800018c0b300b2fd20006c
:102bdc0093042c00adf707000000e0000100350065
:102bec000044eb000804e000070032000091800074
:102bfc0011918000b2fd2000930c2400f3f6070025
:102c0c000091880011918800889080009990800034
:102c1c002a9080003b9080000091800011918000f0
:102c2c0047f707000001be000a00be002ff807009e
:102c3c000001be000800be00e4f60700809088008a
:102c4c0091908800c8908000d99080002a908000d4
:102c5c003b9080000091800011918000c0f807002b
:102c6c000001be000a00be0020f807000001be00f3
:102c7c000800be00d5f60700c0908800d1908800ef
:102c8c004f05be004f04be000080fa000000060095
:102c9c000000fa001160800080ff2f0000806000af
:102cac001060880000fa20002060880023aca80087
:102cbc00238ca80011618000f03f2f000080600081
:102ccc0000a0a00010618800300020002061880066
:102cdc00c3aca800c38ca80011668000f03f2f0085
:102cec000080600000a0a00010668800300020006a
:102cfc002066880001eca8000080fa0000000600a5
:102d0c000600fa00008fbe00424798004e4090002b
:102d1c000004e00005003a001e0178009e019000be
:102d2c00a28e8800b38e8800070037004e409000ba
:102d3c00e14f500004003a001e0178009e01900003
:102d4c00628e8800738e88000080fa0000000600f6
:102d5c000000fa00889fbe008a9fbe00c48e8000cf
:102d6c00d58e8000a08e8000b18e800018c0b3007c
:102d7c000001be000400be0044f707000000e000a4
:102d8c00010035000044eb000804e0000f003200a5
:102d9c00a88e8000b98e8000ca8e8000db8e8000e9
:102dac0040d0bf000080fb00cf80de0077f707002b
:102dbc000001be000a00be0084f607000801be0038
:102dcc0020020700c08e8800d18e8800c48e80003f
:102ddc00d58e8000a08e8000b18e800018c0b3000c
:102dec000001be000400be002af707000000e0004e
:102dfc0001003c000044eb000804e0000f0032002e
:102e0c00a88e8000b98e8000ca8e8000db8e800078
:102e1c0040d0bf000080fb00cf80de005bf70700d6
:102e2c000001be000a00be0067f607000801be00e4
:102e3c00ec010700c08e8800d18e8800c08e800007
:102e4c00d18e800018c0b3006011b80011f70700d4
:102e5c000000e00001003c000044eb000804e0002e
:102e6c0004003200c3cca90024eea800c3eca800d7
:102e7c0003003700c3eca90024cea800c3cca800e3
:102e8c00c08e8000d18e8000c0010700020020009f
:102e9c000322240095f7070021f7070000007800b3
:102eac0030668800848e8000958e8000608e800055
:102ebc00718e800018c0b3000001be000400be007b
:102ecc00f2f607000000e000010035000044eb00c2
:102edc000804e0000f003200688e8000798e8000bc
:102eec008a8e80009b8e800040d0bf000080fb004b
:102efc00cf80de0025f707000001be000a00be00ef
:102f0c0032f607000801be00ce010700808e880053
:102f1c00918e8800848e8000958e8000608e80005b
:102f2c00718e800018c0b3000001be000400be000a
:102f3c00d8f607000000e00001003c000044eb0064
:102f4c000804e0000f003200688e8000798e80004b
:102f5c008a8e80009b8e800040d0bf000080fb00da
:102f6c00cf80de0009f707000001be000a00be009a
:102f7c0015f607000801be009a010700808e880034
:102f8c00918e8800808e8000918e800018c0b300d6
:102f9c006011b800bff607000000e00001003c0023
:102fac000044eb000804e0000400320023cca9002c
:102fbc0015eea80023eca8000300370023eca900b1
:102fcc0015cea80023cca800808e8000918e8000a6
:102fdc006e010700020020000322240043f70700c3
:102fec00cff6070000007800306188004f05be0066
:102ffc004f04be000080fa00000006000e00fa002c
:10300c00254ea9008b020700e14f5000b7003a0093
:10301c008c02070083020700100798001e00900026
:10302c000080e800100078008000eb00daf6070062
:10303c0032332300330524002cf707000200200054
:10304c000358240040f60700d2cc2c00c304240003
:10305c0026f7070020079800310798002e019000f2
:10306c00be019000000020008120240036f60700ed
:10307c0002002000030a2400d3f50700008f88000b
:10308c00118f88001e009000640040001000780032
:10309c008000eb00c0f60700323323003305240018
:1030ac0012f70700020020000358240026f6070040
:1030bc00d2cc2c00c30424000cf707002007980086
:1030cc00310798002e019000be01900000002000f6
:1030dc00812024001cf6070002002000030a2400b3
:1030ec00b9f50700208f8800318f88001e009000f2
:1030fc0068004000100078008000eb00a6f6070086
:10310c003233230033052400f8f6070002002000b8
:10311c00035824000cf60700d2cc2c00c304240066
:10312c00f2f6070020079800310798002e01900056
:10313c00be019000000020008120240002f6070050
:10314c0002002000030a24009ff50700408f88002e
:10315c00518f88001e00900066004000100078001f
:10316c008000eb008cf6070032332300330524007b
:10317c00def607000200200003582400f2f50700d9
:10318c00d2cc2c00c3042400d8f6070020079800ea
:10319c00310798002e019000be0190000000200025
:1031ac0081202400e8f5070002002000030a240017
:1031bc0085f50700608f8800718f88001e009000d5
:1031cc00100078008000eb0073f607003233230008
:1031dc0033052400c5f60700020020000358240024
:1031ec00d9f50700d2cc2c00c3042400bff607008d
:1031fc0020079800310798002e019000be01900026
:10320c000000200081202400cff5070002002000e0
:10321c00030a24006cf50700e08e8800f18e88000c
:10322c0000932800510020005f0107000000eb0014
:10323c00000f78000600370019020700204f980095
:10324c006a00470011002000570107001e0fe8001c
:10325c00340207009e0f5000f7ff3c0021828000d3
:10326c00a000200000017800110009008200d800a5
:10327c008000fd000000e00016003a00408f800046
:10328c00518f800005f6070000407800304f980001
:10329c00208f8000318f800000f6070000407800fe
:1032ac00404f9800008f8000118f8000fbf50700c5
:1032bc0000407800504f98003000200040079800e4
:1032cc006b00470000017800ce0090000003200046
:1032dc0069fc0700208280000000e8002082880042
:1032ec0000c4290001002000c80207000080fa0079
:1032fc00000006000600fa00000f78001107980085
:10330c00220798000041eb006000b8007cfe07002b
:10331c0012c0b3006000b80079fe0700239a2100a8
:10332c002e0190009e0090001e007800030001000a
:10333c000080fa00000006000600fa00000f78007a
:10334c0011079800220798001e0078001105200034
:10335c00810f50000c00320011052000810f50002d
:10336c0083003c000000e000040032000102200059
:10337c00810f5000330032007d0037009e0090001a
:10338c00010f78007f0037002e009000104078006d
:10339c00e84f500008003a000041eb00000020000c
:1033ac00011a2c0056fe070012c0b30000002000ca
:1033bc00011a2c0052fe07002e00900010407800dd
:1033cc00ea4f500008003a000041eb0000002000da
:1033dc00011a24004afe070012c0b30000002000ae
:1033ec00011a240046fe07002e00900010407800c1
:1033fc00e24f500008003a000041eb0000002000b2
:10340c00011a2c003efe070012c0b3000000200081
:10341c00011a24003afe07002e009000104078009c
:10342c000004e00056003a000041eb006000b800d8
:10343c0033fe070012c0b3006000b80030fe070076
:10344c00500037002e0090009040780090c4b300dc
:10345c0080cf500007003a002e0090000000e800da
:10346c009040780010c3b30080cf500001003a00a8
:10347c00254ea8002e00900090407800f0c4b300b8
:10348c0080cf500007003a002e0090000000e800aa
:10349c009040780010c3b30080cf500001003a0078
:1034ac00254ea9002e0090009040780090c4b300e7
:1034bc0080cf500007003a002e0090000000e8007a
:1034cc009040780020c3b30080cf500001003a0038
:1034dc0064cea8002e00900090407800f0c4b30099
:1034ec0080cf500007003a002e0090000000e8004a
:1034fc009040780020c3b30080cf500001003a0008
:10350c0064cea9002e0090009040780090c4b300c7
:10351c0080cf500007003a002e0090000000e80019
:10352c009040780030c3b30080cf500001003a00c7
:10353c0064eea8002e00900090407800f0c4b30018
:10354c0080cf500007003a002e0090000000e800e9
:10355c009040780030c3b30080cf500001003a0097
:10356c0064eea9000000eb00000f780005003700a6
:10357c000000eb00000f7800000000000100370095
:10358c00000000000080fa00000006000400fa00b1
:10359c00881f7800008fbe0018c0b3006011b800ff
:1035ac001e0078009e0090003af507000000e00035
:1035bc0001003d000044eb000804e0000300320071
:1035cc001e0078009e009000030037001e0078005b
:1035dc009e00900001f0a2004f0478000080fa00d9
:1035ec00000006000800fa00881f7800008fbe005b
:1035fc00220798003307980018c0b3002e019000e2
:10360c00be0190001e0078009e00900021f507007e
:10361c000000e00001003c000044eb000804e00066
:10362c00030032001e0078009e009000020037005c
:10363c002e009000be0090004f0478000080fa002d
:10364c00000006000800fa00881f7800008fbe00fa
:10365c00220798003307980018c0b3002e01900081
:10366c00be0190001e0078009e00900007f5070038
:10367c000000e000010035000044eb000804e0000d
:10368c00030032001e0078009e00900002003700fc
:10369c002e009000be0090004f0478000080fa00cd
:1036ac00000006000c00fa00881f7800008fbe0096
:1036bc002207980033079800440798005507980094
:1036cc0018c0b3004e019000de0190001e0078007f
:1036dc009e009000eff407000000e00001003c00a9
:1036ec000044eb000804e000040032004e0190009e
:1036fc00de019000028fbe000e00370018c0b30030
:10370c002e019000be0190001e0078009e009000db
:10371c00def407000000e000010035000044eb007f
:10372c000804e000030032002e019000be0190005e
:10373c00028fbe001e0078009e0090004f0478009f
:10374c000080fa00000006000400fa00008fbe00a2
:10375c00b2fd2000930424001e0078009e0090000f
:10376c0079f4070002002000433324005ff50700c2
:10377c000080fa00000006000400fa00008fbe0072
:10378c00b2fd2000930424001e0078009e009000df
:10379c0056f5070002002000433324006af40700aa
:1037ac000080fa00000006000600fa0010079800de
:1037bc00210798000040eb00004f780054000700f0
:1037cc00ae009000810f5000110034000040eb005f
:1037dc00004f7800060037001e80fb009e00900012
:1037ec0000804000104078000b0007001e4fe800de
:1037fc009e80fb002e009000808f5000f6ff35005d
:10380c002e0007000004e00001003a00220007002f
:10381c000080fa00000006000200fa00004f780059
:10382c00a0818000a1042100008040001e48780087
:10383c00a08180000000e800a0818800a1818000a8
:10384c00f0072000808f5000010034003430ef006e
:10385c000080fa00000006000200fa00b08180002f
:10386c00a104210000804000104f7800b08180003e
:10387c000000e800b0818800b1818000f0072000d2
:10388c00808f5000010034003630ef001e4078006d
:10389c000080fa00000006000200fa0010c0b3001d
:1038ac0038f0b700ecff0700004f78001e80fb00db
:1038bc00201188000080fa00000006000000fa00c9
:1038cc0038d0bf000080fa00000006000200fa00a9
:1038dc00a1818000b0818000808f500004003500f1
:1038ec00a1818000b0818000008f5000050037005e
:1038fc00a1818000b0818000008050000108200070
:10390c00010f40001e0078000080fa000000060045
:10391c000200fa00edff070001082000008f5000a4
:10392c001e0078000080fa00000006000000fa007b
:10393c0021e3a9002143a80001198000f0cf2f003a
:10394c0000806000001988002043a9000119800044
:10395c00000e200001007000001988001119800071
:10396c00f0ff210000806000101988002343a8009c
:10397c0011198000f0cf2f00008060001019880012
:10398c001119800030f82f00008060000040a0006a
:10399c00101988002203a9002223a90025e3a900fd
:1039ac00f0c0b30024e3b70021198000f00f2e0003
:1039bc008080600000f02000010070002019880059
:1039cc003303a9002e0ea8002f6ea8006f2ea8009e
:1039dc001e2ea8004feea80030c3a8003163a8002b
:1039ec002e03a8003063a80031e3a8004119800021
:1039fc0000fc2f00008060004019880028e3a9001b
:103a0c0001a8a90021a8a80021e3a8000080fa00c1
:103a1c00000006000000fa002023a8000080fa0035
:103a2c00000006000000fa00402221000080fa008d
:103a3c00000006000000fa0043d0bf000080fa002e
:103a4c00000006000000fa004370ef000080fa004e
:103a5c00000006000200fa00004f78002a00070060
:103a6c000000e0000c003400d0818000a10c21008b
:103a7c00008040001e487800d08180000000e800e3
:103a8c00d0818800d181800000082000808f5000f8
:103a9c00010034003a30ef000080fa00000006000c
:103aac000200fa00e0818000a10c2100008040009f
:103abc00104f7800e08180000000e800e081880071
:103acc00e181800000082000808f5000010034004c
:103adc003c30ef001e4078000080fa000000060029
:103aec000000fa00d1818000e0818000808f5000be
:103afc000200320010c0b300010037000040eb00a0
:103b0c000080fa00000006000200fa000500070021
:103b1c0001082000008f50001e0078000080fa0081
:103b2c00000006000200fa00d1818000e0818000d4
:103b3c00808f500004003500d1818000e08180002e
:103b4c00008f500005003700d1818000e08180009b
:103b5c000080500001082000010f40001e0078007a
:103b6c000080fa00000006000000fa000e2eef00a4
:103b7c001e2eef002e2eef003e2eef004e2eef00ed
:103b8c005e2eef006e2eef00214ea90060cea90034
:103b9c0060eea90011cea90011eea90020cea9005b
:103bac0020eea9002136800000f82f000080600074
:103bbc008001b300203688001134800000fc2f00f7
:103bcc00008060000000a0001034880001368000e6
:103bdc0000f82f00808060001006200001007000ab
:103bec000036880001368000f00f280080806000cd
:103bfc00000026000100700000368800e1358000ce
:103c0c0000f82f008080600060042000010070002c
:103c1c00e0358800e1358000f00f280080806000de
:103c2c000050240001007000e03588000080fa008c
:043c3c00000006007e
:020000040000fa
:103c40003e10000002000000800000002e10000066
:103c50000600000080000000ca1100005a000000a9
:103c60008000000040100000020000008200000000
:103c700007000000241200000a000000800000007d
:103c80004210000002000000800000004a10000006
:103c900080000000800000003410000006000000da
:103ca00080000000ca1000008000000080000000ba
:103cb0003a10000004000000800000004a110000db
:103cc0008000000080000000201000000e000000b6
:103cd000800000004410000002000000800000008e
:103ce00000100000200000008000000046100000ce
:103cf0000200000082000000fa00000048100000ee
:0c3d000002000000800000000000000035
:020000040000fa
:103d0c000000fa00f0032000303a8800213a8000cd
:103d1c00f0f32f0000806000203a8800213a8000e8
:103d2c0000fe2f00008060000000a000203a8800f8
:103d3c001200200080072000a1092000337420000d
:103d4c00804978008149780082497800103a8000d7
:103d5c00000178000200a000600420007105200022
:103d6c0023742000804978008149780082497800ca
:103d7c0000000000113a80000000270080806000e5
:103d8c0000002100808f5000faff3a000000000074
:103d9c00113a800000022000008060000000e0006a
:103dac00fbff32000080fa00000006000000fa0061
:103dbc002002a9000111800090ff2f0000806000fc
:103dcc000011880020a2a9002062a8005005200044
:103ddc004011880023a2a90023e2a9000188a900b0
:103dec002188a80011118000f0f32f0000806000e2
:103dfc00101188000168a9002168a80021e2a80020
:0c3e0c002342a8000080fa00000006001d
:020000040000fa
:103e1800f03fb1000180b10006003500ee03090053
:103e280000000000403fb1000180b100fbff3d00f1
:103e38001000b000203fb0000200350000800900eb
:083e480000000000000006006c
:020000040000fa
:02000004000af0
:04afe000cfff00009f
:020000040000fa
:02000004000af0
:04afe400ffff00006b
:020000040000fa
:02000004000af0
:04afe8007fff0000e7
:020000040000fa
:02000004000af0
:04afec005fff000003
:020000040000fa
:02000004000af0
:04aff00038ff000026
:020000040000fa
:02000004000af0
:04aff400ffff00005b
:00000001FF
