:020000040000fa
:080000000002040000000000f2
:020000040000fa
:04000800de03000013
:020000040000fa
:04000c00de0300000f
:020000040000fa
:04001000de0300000b
:020000040000fa
:04001400de03000007
:020000040000fa
:04001800de03000003
:020000040000fa
:04001c00de030000ff
:020000040000fa
:04002000de030000fb
:020000040000fa
:04002400de030000f7
:020000040000fa
:04002800de030000f3
:020000040000fa
:04002c00de030000ef
:020000040000fa
:04003000de030000eb
:020000040000fa
:0400340002030000c3
:020000040000fa
:04003800de030000e3
:020000040000fa
:04003c00de030000df
:020000040000fa
:04004000de030000db
:020000040000fa
:04004400de030000d7
:020000040000fa
:04004800fa020000b8
:020000040000fa
:04004c00de030000cf
:020000040000fa
:04005000de030000cb
:020000040000fa
:040054009a0300000b
:020000040000fa
:040058007003000031
:020000040000fa
:04005c004c03000051
:020000040000fa
:04006000de030000bb
:020000040000fa
:04006400de030000b7
:020000040000fa
:04006800de030000b3
:020000040000fa
:04006c00de030000af
:020000040000fa
:04007000de030000ab
:020000040000fa
:04007400de030000a7
:020000040000fa
:04007800de030000a3
:020000040000fa
:04007c00de0300009f
:020000040000fa
:04008000de0300009b
:020000040000fa
:04008400de03000097
:020000040000fa
:04008800de03000093
:020000040000fa
:04008c00de0300008f
:020000040000fa
:04009000de0300008b
:020000040000fa
:040094002203000043
:020000040000fa
:04009800de03000083
:020000040000fa
:04009c00de0300007f
:020000040000fa
:0400a000de0300007b
:020000040000fa
:0400a400de03000077
:020000040000fa
:0400a800de03000073
:020000040000fa
:0400ac00de0300006f
:020000040000fa
:0400b000de0300006b
:020000040000fa
:0400b400de03000067
:020000040000fa
:0400b800de03000063
:020000040000fa
:0400bc00de0300005f
:020000040000fa
:0400c000de0300005b
:020000040000fa
:0400c400de03000057
:020000040000fa
:0400c800de03000053
:020000040000fa
:0400cc00de0300004f
:020000040000fa
:0400d000de0300004b
:020000040000fa
:0400d400de03000047
:020000040000fa
:0400d800de03000043
:020000040000fa
:0400dc00de0300003f
:020000040000fa
:0400e000de0300003b
:020000040000fa
:0400e400de03000037
:020000040000fa
:0400e800de03000033
:020000040000fa
:0400ec00de0300002f
:020000040000fa
:0400f000de0300002b
:020000040000fa
:0400f400de03000027
:020000040000fa
:0400f800de03000023
:020000040000fa
:0400fc00de0300001f
:020000040000fa
:04010000de0300001a
:020000040000fa
:04010400de03000016
:020000040000fa
:04010800de03000012
:020000040000fa
:04010c00de0300000e
:020000040000fa
:04011000de0300000a
:020000040000fa
:04011400de03000006
:020000040000fa
:04011800de03000002
:020000040000fa
:04011c00de030000fe
:020000040000fa
:04012000de030000fa
:020000040000fa
:04012400de030000f6
:020000040000fa
:04012800de030000f2
:020000040000fa
:04012c00de030000ee
:020000040000fa
:04013000de030000ea
:020000040000fa
:04013400de030000e6
:020000040000fa
:04013800de030000e2
:020000040000fa
:04013c00de030000de
:020000040000fa
:04014000de030000da
:020000040000fa
:04014400de030000d6
:020000040000fa
:04014800de030000d2
:020000040000fa
:04014c00de030000ce
:020000040000fa
:04015000de030000ca
:020000040000fa
:04015400de030000c6
:020000040000fa
:04015800de030000c2
:020000040000fa
:04015c00de030000be
:020000040000fa
:04016000de030000ba
:020000040000fa
:04016400de030000b6
:020000040000fa
:04016800de030000b2
:020000040000fa
:04016c00de030000ae
:020000040000fa
:04017000de030000aa
:020000040000fa
:04017400de030000a6
:020000040000fa
:04017800de030000a2
:020000040000fa
:04017c00de0300009e
:020000040000fa
:04018000de0300009a
:020000040000fa
:04018400de03000096
:020000040000fa
:04018800de03000092
:020000040000fa
:04018c00de0300008e
:020000040000fa
:04019000de0300008a
:020000040000fa
:04019400de03000086
:020000040000fa
:04019800de03000082
:020000040000fa
:04019c00de0300007e
:020000040000fa
:0401a000de0300007a
:020000040000fa
:0401a400de03000076
:020000040000fa
:0401a800de03000072
:020000040000fa
:0401ac00de0300006e
:020000040000fa
:0401b000de0300006a
:020000040000fa
:0401b400de03000066
:020000040000fa
:0401b800de03000062
:020000040000fa
:0401bc00de0300005e
:020000040000fa
:0401c000de0300005a
:020000040000fa
:0401c400de03000056
:020000040000fa
:0401c800de03000052
:020000040000fa
:0401cc00de0300004e
:020000040000fa
:0401d000de0300004a
:020000040000fa
:0401d400de03000046
:020000040000fa
:0401d800de03000042
:020000040000fa
:0401dc00de0300003e
:020000040000fa
:0401e000de0300003a
:020000040000fa
:0401e400de03000036
:020000040000fa
:0401e800de03000032
:020000040000fa
:0401ec00de0300002e
:020000040000fa
:0401f000de0300002a
:020000040000fa
:0401f400de03000026
:020000040000fa
:0401f800de03000022
:020000040000fa
:0401fc00de0300001e
:020000040000fa
:04020000de03000019
:020000040000fa
:04020400de03000015
:020000040000fa
:04020800de03000011
:020000040000fa
:04020c00de0300000d
:020000040000fa
:04021000de03000009
:020000040000fa
:04021400de03000005
:020000040000fa
:04021800de03000001
:020000040000fa
:04021c00de030000fd
:020000040000fa
:04022000de030000f9
:020000040000fa
:04022400de030000f5
:020000040000fa
:04022800de030000f1
:020000040000fa
:04022c00de030000ed
:020000040000fa
:04023000de030000e9
:020000040000fa
:04023400de030000e5
:020000040000fa
:04023800de030000e1
:020000040000fa
:04023c00de030000dd
:020000040000fa
:04024000de030000d9
:020000040000fa
:04024400de030000d5
:020000040000fa
:04024800de030000d1
:020000040000fa
:04024c00de030000cd
:020000040000fa
:04025000de030000c9
:020000040000fa
:04025400de030000c5
:020000040000fa
:04025800de030000c1
:020000040000fa
:04025c00de030000bd
:020000040000fa
:04026000de030000b9
:020000040000fa
:04026400de030000b5
:020000040000fa
:04026800de030000b1
:020000040000fa
:04026c00de030000ad
:020000040000fa
:04027000de030000a9
:020000040000fa
:04027400de030000a5
:020000040000fa
:04027800de030000a1
:020000040000fa
:04027c00de0300009d
:020000040000fa
:04028000de03000099
:020000040000fa
:100400002f2121000eff27000e01880000000000b0
:10041000000020000000e000020032000001200087
:100420002002880014000700e60007000000e0003a
:1004300003003a0080b721000100200002003700cd
:100440000000200001002000810f70000100320038
:100450000f000700000020000000e0000200320052
:100460000000020000000000b407020000000000cd
:100470000040da000000fe00600020000000e00004
:1004800002003200002020009001880000000600d9
:10049000a1028800800478000000eb001f003700f4
:1004a000e284440054a0b4009905ba00e2844400f8
:1004b00054a0b4009906ba00e284440054a0b400e9
:1004c0000006eb00476fde00fd07b200ae018800ba
:1004d000636ce10003003a000ad801000000eb0061
:1004e0000e003700606ce10008003a00004deb00a0
:1004f0000a05e800020039003420ec000af0a000f0
:100500008b05e900f9ff3e00040037006168e10057
:10051000010032000086eb000b00070019c7ba008b
:100520000e04e0001905ba0003003a000a00e000da
:10053000dbff3a0000000600fe07b200ae028800b2
:100540008a047800f5ff37000cd0a300e20f4d00bd
:100550001c00390089027800354dba000a05e80010
:10056000020039003420ec000af0a0008b05e900fd
:100570000f003200254dba000a05e80002003900dc
:100580003420ec000af0a0008b05e90008003200de
:100590000c00e0000600320015cdba000a05e800a4
:1005a000020039003420ec000af0a0008b05e900bd
:1005b0008984e80054a0b4000b00e000e2ff3a0098
:1005c000000006009902ba00055d78008b05e9007d
:1005d000f7ff3200c82ade00055d78008b05e900d0
:1005e000f3ff32000c00e000f1ff320019ddba0029
:1005f000eeff37000000fa000108a9000080fa00b1
:10060000004006003600f800809fbe00829fbe00ba
:10061000849fbe00869fbe000000fa000068a9000b
:10062000560807007f0b07000080fa004f03be004a
:100630004f02be004f01be004f00be003600f90061
:10064000004006003600f800809fbe00829fbe007a
:10065000849fbe00869fbe000000fa000368a900c8
:10066000708080008180800061004000e080480050
:100670007080880081808800620207000080fa0094
:100680004f03be004f02be004f01be004f00be0030
:100690003600f90000400600801f78000000fa00d4
:1006a00001a8a90000188000409088001018800060
:1006b00050908800201880006090880030188000da
:1006c00070908800401880008090880010c0b300af
:1006d00023f0b7000080fa004f00780000400600c9
:1006e0003600f800809fbe00829fbe00849fbe003f
:1006f000869fbe000000fa000188a900b18080003a
:10070000a0808000808f500002003200e60a0700bf
:10071000010037001870ef000080fa004f03be00a0
:100720004f02be004f01be004f00be003600f90070
:10073000004006003600f800809fbe00829fbe0089
:10074000849fbe00869fbe000000fa000168a900d9
:1007500010118000640060000000e0000100320021
:100760002242a90010118000620060000000e00039
:10077000060032002222a900050037003011800057
:1007800000407800370b0700010037000000000030
:1007900010118000610060000000e000f7ff3a00e7
:1007a0000080fa004f03be004f02be004f01be00a2
:1007b0004f00be003600f900004006000040da009d
:1007c0000000fe000000050003f0a200889fbe00ac
:1007d0008a9fbe008c1f78002a0107003101330078
:1007e0006450e1004f0032006420e100520032000a
:1007f00003826c0007003b000905d0000306d0000f
:10080000820f54000c065d00020039000200320025
:1008100089017800030678008582550004003d00b8
:100820000003fd008103fd008502ea008b85420084
:10083000840f720002003b0060001000e08018008e
:100840006011b8000005eb007a28e1000a003900c9
:1008500006007800c75ddd00f707b20087807500ed
:100860002d003700828171000a0178006105600067
:100870008180d1000080d3008502e900f9ff3b00b0
:10088000060440008784480002003b006004140016
:10089000e0841c000988a300070032008a817100ef
:1008a00082817100610164008904d1000884d30051
:1008b0008b05e800170037000978a30013003a0001
:1008c0000b00e000130034008b05e900080444002d
:1008d00089844c000a4474000978a3000d003a0092
:1008e0000b00e000070034008b05e9000804440019
:1008f00089844c0001003a000b0020000978a30015
:10090000f7ff32000001eb00020037008281710026
:100910000a017800a00007000cf0a70001f0a00079
:10092000e90037006420e10002003a00838f6c0088
:10093000e90033000801be000200be00e2003700fb
:10094000889fbe008a9fbe008c1f7800cd000700e4
:10095000d400330003866c006450e1002e003200a6
:100960006420e100330032006150e1002f003200ca
:100970006120e1003100320085855500eb07b000b1
:100980000900200008042000050037000804440086
:1009900089844c000a0031000603430087834b0022
:1009a0000001530081815b00f8ff33000203be00a9
:1009b0000800a0000804440089844c00f6ff3900b8
:1009c000c639dd00830173000100320013002000ee
:1009d0008904d1000884d3000998a30005003200df
:1009e0000800a7000300a0008904d1000884d300f8
:1009f0008b05e8008904d1000884d3000001eb00d6
:100a00000281d2006400070001f0a1000cf0a700f1
:100a100001f0a000ac0037006420e100ae0032001d
:100a20000801be000200be00f7ff37006120e100b0
:100a3000a90032006000b800f3ff3700000020007a
:100a400001f82700f0ff3700839f68000100e000f5
:100a500002003d0060001000e08018000300e0008c
:100a600002003d0060011100e0811900d100070083
:100a70004f00e00002003b0060001000e080180022
:100a80000000060014002000da003700f4ff2f00f9
:100a9000d80037000001be00650007000470a70001
:100aa00003f0a1006509b100160032000d00350009
:100ab0006828e10006003500f0ff2f00f1ff270055
:100ac0000300e00013003b000100280000000500c7
:100ad00000004000818048008502e900fcff3a00e8
:100ae00008003700f88f420002003c008000eb0055
:100af000000005008100d1000080d3008502e800dd
:100b0000fcff3a000300e00002003b006000100020
:100b1000e0801800000006000001be00440007004d
:100b20000470a70003f0a10003f8a30013003a002b
:100b30006509b10010003200090035006928e100a4
:100b40000200350001002800000005000000400000
:100b5000818048008502e900fcff3a0000000600a1
:100b6000f88f4200050035008100d1000080d300dd
:100b70008502e800fcff3a00000006008000eb0060
:100b8000000005004f89de0082017800b4003700c4
:100b90006011b800c200370081002000618055005c
:100ba0000b003d000b00200061fe2f000100e10062
:100bb0001d00340082817100610164008904d1004c
:100bc0000884d3000000e800faff3a00710020001a
:100bd0006100640003007000020060000900320040
:100be00061044400e0844c000988a500050032003f
:100bf0008b05e8006808e10002003a008904d10092
:100c00000884d300f20f20000258e10005003d00e7
:100c1000c75ddd00f907b200898075000800780023
:100c2000000006000bf827008b007800000005008c
:100c3000c70ade00f107b200f50fb200080032006b
:100c4000e1cf4200020032000170a0002400050044
:100c5000810f700001003200040805004400050007
:100c6000810f700002003a00140005008502e900bf
:100c70000000400081c04800fcff3b000170a00064
:100c8000240005000004be00e9ff07000003be00c9
:100c90000405be000200be00e5ff0700844f75009a
:100ca000000006000200be006450e10005003600ae
:100cb0006420e100020036000968a30001003a0048
:100cc0000800be000160a0004f0678004f05be007e
:100cd0004f04be0000000600f0ff2f00f1ff2700c8
:100ce000f9ff3700889fbe008a9fbe008c1f7800e6
:100cf000e4ff0700ebff330003866c006450e10063
:100d0000240032006420e100270032006150e1003d
:100d1000220032006120e100210032008b85420078
:100d2000eb07b1000134b800003ab80008044200f3
:100d300089844a00013ab8000030b8008880400039
:100d400009014a000400330000004000818048008f
:100d5000020149008b05e900c909dd00830170002b
:100d60000100320013002000c814de004814dd002a
:100d70004709de001200b200c808de0008847000d7
:100d800085ff070001f0a1000cf0a70001f0a00012
:100d9000cdff37006120e100cfff32000801be0027
:100da0000200be00f7ff37006150e100fcff3a008f
:100db000c9ff37006022b800060220000000d00002
:100dc0008180d2000482d2008582d2000000a0007f
:100dd0000202520083825a000300310002024200e4
:100de00083824a000000a1000603e900f3ff3a00f5
:100df00000000600889fbe008a9fbe00841f780006
:100e0000a0ff07004f00780011003300f0ff2f0013
:100e1000838f6c0006003b00040565000a00a700f4
:100e20000800370009f0a600100020000800370075
:100e3000820f5400838f5c000300390010002000f3
:100e400001003e000000200009f0a7000000ea00b9
:100e50004f05be004f04be000000e0000000060089
:100e6000881f7800030478000300e00007003d00bd
:100e700060001000e080180060011900e081190096
:100e800002003b0001f02d000300370004000700c2
:100e900008f0a70001f0a0004f0478000000060051
:100ea000889fbe008a9fbe0000827000040271000d
:100eb00004827100260032000004be000200be0061
:100ec0006011b8006b092000950220000182cf005c
:100ed0000a0039000541b1000082cf000700390047
:100ee0000541b1000982cf00040039000541b1007d
:100ef0000882cf00010039000541b10005425200cf
:100f0000120032000a003b0082817100610164001e
:100f10008100d1000080d3008984d3000884d300ed
:100f20008b05e8000442e800f7ff3a0007003700ad
:100f30000804440089844c00000048008180480077
:100f40008b05e9000442e900f9ff3a0012ff0700af
:0c0f50004f05be004f04be00000006006c
:020000040000fa
:0c0f5c00736100006c7500007400000060
:020000040000fa
:100f68000800fa00b50907008109070071030700a6
:100f7800a4030700cf050700ee08070020040700b8
:100f8800020a0700a60607000000eb00000f780021
:100f98000300370044090700250507001e0fe80075
:100fa800620907009e0f5000faff3c00a08e8000e7
:100fb800e10f50000f003a00b08e8000c18e800013
:100fc800b2fe070010079800d08e8000e18e8000e6
:100fd800aefe070020079800f18e800031079800c8
:100fe8003e019000ae0090001e0090004a070700e6
:100ff800e5ff37008a060700e3ff37000000fa0024
:101008001ed0bf000080fb00cf80de005201200010
:1010180003002000820f5000838f5800f5003e0027
:101028000006010015003700240037002d003700a6
:101038003f003700400037005200370053003700a8
:101048006500370066003700780037007900370000
:101058008b003700e7003700e6003700c90037008b
:10106800db003700880037009a0037009b00370004
:10107800ad003700ae003700c00037000e30ef007b
:101088001030ef006000b800808e8800918e8800d4
:101098006000b800608e8800718e88000041eb0007
:1010a8006000b8009f05070012c0b3006000b800d8
:1010b8009c05070010c0b3001ef0b70072808000c6
:1010c80083808000803e200001002000800f5100b6
:1010d800818f5900d000360020c0b3001ef0b70041
:1010e800d000370000002000811c2c00808e880072
:1010f800918e880000002000811c2400608e8800ea
:10110800718e88000041eb0000002000811c2c003b
:101118008405070012c0b30000002000811c2400d1
:101128008005070030c0b3001ef0b700bd003700cf
:10113800be000700bb00370000002000811c2c0007
:10114800808e8800918e880000002000010a2c0003
:10115800608e8800718e88000041eb00000020003e
:10116800011a2c006f05070012c0b3000000200010
:10117800010a2c006b05070050c0b3001ef0b70031
:10118800a8003700a9000700a600370000002000cb
:10119800010a2400808e8800918e880000002000bb
:1011a800011a2400608e8800718e88000041eb00cf
:1011b80000002000010a24005a05070012c0b300ed
:1011c80000002000011a24005605070070c0b30073
:1011d8001ef0b70093003700940007009100370015
:1011e8000000200001172c00808e8800918e880056
:1011f8000000200001172c00608e8800718e880086
:101208000041eb000000200001172c0045050700f5
:1012180012c0b3000000200001172c004105070090
:1012280090c0b3001ef0b7007e0037007f000700b3
:101238007c0037000000200001172400808e880001
:10124800918e88000000200001172400608e88001d
:10125800718e88000041eb00000020000117240077
:101268003005070012c0b300000020000117240059
:101278002c050700b0c0b3001ef0b70069003700a6
:101288006a000700670037000000200001172c00e3
:10129800808e8800918e88000000200001172400ad
:1012a800608e8800718e88000041eb0000002000ed
:1012b80001172c001b05070012c0b3000000200016
:1012c800011724001705070010c1b3001ef0b7006e
:1012d8005400370055000700520037000000200076
:1012e80001122c00808e8800918e8800000020005a
:1012f800011a2400608e8800718e88000041eb007e
:101308000000200001122c000605070012c0b300df
:1013180000002000011a24000205070030c1b300b4
:101328001ef0b7003f003700400007003d003700bf
:1013380000002000011a2c00808e8800918e880001
:101348000000200001122400608e8800718e880041
:101358000041eb0000002000011a2c00f1040700f6
:1013680012c0b3000000200001122400ed040700a1
:1013780050c1b3001ef0b7002a0037002b00070049
:10138800280037000000200001122400808e880009
:10139800918e88000000200001122c00608e8800c9
:1013a800718e88000041eb0000002000011224002b
:1013b800dc04070012c0b3000000200001122c005a
:1013c800d8040700f0c0b3001ef0b70015003700be
:1013d8007280800083808000803e20000100200011
:1013e800800f5100818f59000d0036000f00070053
:1013f8000c0037006000b800808e8800918e88004d
:101408006000b800608e8800718e880007000700b1
:101418000000000003003700000000000100370052
:10142800000000000080fa00000006000600fa0034
:10143800881f78000040eb00004f7800e08d8000a6
:10144800f18d800018c0b30002002000031a2400a8
:101458008afd07000000e000010035000044eb00b1
:101468000804e0002f003200008e8000118e8000fa
:1014780018c0b30002002000031a24007ffd0700f3
:101488000000e000010035000044eb000804e00023
:1014980024003200208e8000318e800018c0b300f6
:1014a80002002000031a240074fd07000000e00079
:1014b800010035000044eb000804e0001900320088
:1014c800c08d8000d18d800018c0b30002002000bc
:1014d800031a240069fd07000000e0000100350040
:1014e8000044eb000804e0000e003200408e80004b
:1014f800518e800018c0b30002002000031a240097
:101508005efd07000000e000010035000044eb002c
:101518000804e0000300320080c0b300004f7800e8
:1015280088013700e08d8000f18d800018c0b3007d
:1015380002002000031a240050fd07000000e0000c
:10154800010035000044eb000804e00019003200f7
:10155800008e8000118e800018c0b30002002000a9
:10156800031a240045fd07000000e00001003500d3
:101578000044eb000804e0000e003200208e8000da
:10158800318e800018c0b30002002000031a240026
:101598003afd07000000e000010035000044eb00c0
:1015a8000804e00003003200c0c0b300004f780018
:1015b80064013700e08d8000f18d800018c0b30011
:1015c80002002000031a24002efd07000000e0009e
:1015d80001003c000044eb000804e0002f0032004a
:1015e800008e8000118e800018c0b3000200200019
:1015f800031f240023fd07000000e00001003c0059
:101608000044eb000804e00024003200208e800033
:10161800318e800018c0b30002002000031a240095
:1016280018fd07000000e00001003c000044eb004a
:101638000804e00019003200c08d8000d18d8000c0
:1016480018c0b30002002000031224000bfd07009d
:101658000000e000010035000044eb000804e00051
:101668000e003200408e8000518e800018c0b300fa
:10167800020020000312240000fd07000000e00023
:10168800010035000044eb000804e00003003200cc
:10169800d0c0b300004f78002a013700e08d8000e9
:1016a800f18d800018c0b30002002000031224004e
:1016b800f2fc07000000e000010035000044eb00e8
:1016c8000804e00019003200008e8000118e8000ae
:1016d80018c0b30002002000031f2400e9fc070023
:1016e8000000e00001003c000044eb000804e000ba
:1016f8000e003200208e8000318e800018c0b300aa
:101708000200200003122400dcfc07000000e000b7
:10171800010035000044eb000804e000030032003b
:1017280040c0b300004f780006013700e08d80000c
:10173800f18d800018c0b30002002000031f2400b0
:10174800cefc07000000e000010035000044eb007b
:101758000804e00019003200008e8000118e80001d
:1017680018c0b30002002000031f2400c5fc0700b6
:101778000000e00001003c000044eb000804e00029
:101788000e003200208e8000318e800018c0b30019
:1017980002002000031f2400bafc07000000e0003c
:1017a80001003c000044eb000804e00003003200a4
:1017b80020c0b300004f7800e2003700e08d8000c1
:1017c800f18d800018c0b30002002000031f240020
:1017d800acfc07000000e00001003c000044eb0006
:1017e8000804e00019003200008e8000118e80008d
:1017f80018c0b30002002000031f2400a1fc07004a
:101808000000e00001003c000044eb000804e00098
:101818000e003200208e8000318e800018c0b30088
:1018280002002000031f240094fc07000000e000d1
:10183800010035000044eb000804e000030032001a
:1018480010c0b300004f7800be003700008e800043
:10185800118e800018c0b30002002000031a240073
:1018680086fc07000000e000010035000044eb00a2
:101878000804e0000300320060c0b300004f7800a5
:10188800b0003700008e8000118e800018c0b300b1
:1018980002002000831c240078fc07000000e00000
:1018a800010035000044eb000804e0000e0032009f
:1018b800008e8000118e800018c0b3000200200046
:1018c800031a24006ffc07000000e00001003c0040
:1018d8000044eb000804e0000300320070c0b300cd
:1018e800004f780097003700e08d8000f18d800070
:1018f80018c0b30002002000031f240061fc070089
:101908000000e00001003c000044eb000804e00097
:101918002f003200008e8000118e800018c0b300a6
:1019280002002000031f240056fc07000000e0000e
:1019380001003c000044eb000804e00024003200f1
:10194800208e8000318e800018c0b3000200200075
:10195800031f24004bfc07000000e00001003c00ce
:101968000044eb000804e00019003200c08d80003c
:10197800d18d800018c0b30002002000031a240093
:101988003efc07000000e000010035000044eb00c9
:101998000804e0000e003200408e8000518e800066
:1019a80018c0b30002002000031f240035fc070004
:1019b8000000e00001003c000044eb000804e000e7
:1019c80003003200e0c0b300004f78005d0037002c
:1019d800e08d8000f18d800018c0b3000200200067
:1019e800031f240027fc07000000e00001003c0062
:1019f8000044eb000804e0002f003200008e800055
:101a0800118e800018c0b30002002000031f2400bc
:101a18001cfc07000000e00001003c000044eb0053
:101a28000804e00024003200208e8000318e8000ff
:101a380018c0b30002002000031f240011fc070097
:101a48000000e00001003c000044eb000804e00056
:101a580019003200c08d8000d18d800018c0b300fd
:101a680002002000031f240006fc07000000e0001d
:101a780001003c000044eb000804e0000e003200c6
:101a8800408e8000518e800018c0b30002002000f4
:101a9800031a2400f9fb07000000e00001003500ec
:101aa8000044eb000804e00003003200f0c0b3007b
:101ab800004f780023003700e08d8000f18d800012
:101ac80018c0b30002002000031f2400edfb07002c
:101ad8000000e00001003c000044eb000804e000c6
:101ae80018003200008e8000118e800018c0b300ec
:101af80002002000031f2400e2fb07000000e000b2
:101b080001003c000044eb000804e0000d00320036
:101b1800208e8000318e800018c0b30002002000a3
:101b2800031f2400d7fb07000000e00001003c0071
:101b38000044eb000804e000020032000040eb0023
:101b4800004f78001e407800e84f500003003a002c
:101b5800e0c0b3001ff0b7004d0037001e4078000a
:101b6800ea4f500003003a0080c0b3001ff0b700ee
:101b7800470037001e407800eb4f500003003a0042
:101b880080c0b3001ff0b700410037001e40780046
:101b9800ec4f500003003a0080c0b3001ff0b700bc
:101ba8003b0037001e407800ed4f500003003a001c
:101bb80000c1b3001ff0b700350037001e407800a1
:101bc800e44f500003003a0080c0b3001ff0b70094
:101bd8002f0037001e407800e34f500003003a0002
:101be80000c1b3001ff0b700290037001e4078007d
:101bf800e24f500003003a0040c0b3001ff0b700a6
:101c0800230037001e407800e14f500003003a00df
:101c180060c0b3001ff0b7001d0037001e407800f9
:101c2800e64f500003003a0080c0b3001ff0b70031
:101c3800170037001e407800e74f500003003a00b5
:101c480000c1b3001ff0b700110037001e40780034
:101c5800ee4f500003003a0040c1b3001ff0b70038
:101c68000b0037001e407800ef4f500003003a0089
:101c780020c1b3001ff0b700050037001e407800f0
:101c88000004e00002003a0020c0b3001ff0b700d3
:101c98001fd0bf008080fb001ed0bf000080fb006b
:101ca8000000e900808f50001f0032001fd0bf00e5
:101cb8001ef0b7001ed0bf0010479800708080004b
:101cc800818080004808de000040780020479800a6
:101cd80070808000818080004008de00004078002d
:101ce8003047980070808000818080004809dd00be
:101cf8004800de0000007100c808de0000407800df
:101d08004047980070808000818080000040780003
:101d1800504798000e00e8000001780051002000ac
:101d280000052000650107004f0478000080fa00d4
:101d3800000006000400fa0013e1a90011e1a9005f
:101d48001061a8001021a90081088000f0fc2f0074
:101d5800008060000040a000800888000a21ef0091
:101d68000621ef00404c20007008880000402b003e
:101d780060088800800880004400de00634060003e
:101d88000081fb008001eb00700880008000eb0000
:101d9800c002dd0004002000600880008000eb0025
:101da8000400400085804800809ab900828bb90001
:101db80086027800050242000010b80001024200c5
:101dc800840078000001be0000a025002126200024
:101dd8001bfb070069fb0700008fbe002142800043
:101de80080ff2f00008060000000a00020428800d3
:101df8000108a9002108a80011e1a8000080fa0044
:101e0800000006000000fa0005e1a9000421a9006d
:101e180000002000a1372400050007000068a90081
:101e28002068a80005e1a8000080fa00000006006c
:101e38000400fa00881f7800008fbe002108800087
:101e4800f0fc2f0000806000200888001e01780048
:101e58009e0190000068290081c12400b6fa07009d
:101e680018c0b30002f02f00f377240005fb070029
:101e78000000e00001003c000044eb000804e00022
:101e88005400320021088000f0fc2f000080600020
:101e98000040a000200888001e0178009e019000e4
:101ea8000068290081c12400a3fa0700020020006d
:101eb80003102400a0fa070018c0b30002f02f0096
:101ec800f3772400effa07000000e00001003c006f
:101ed8000044eb000804e0003200320021088000d2
:101ee800f0fc2f00008060000050a000200888004f
:101ef8001e0178009e0190000068290081c124001d
:101f08008dfa070002002000032824008afa07003f
:101f180018c0b30002f02f00f3772400d9fa0700a5
:101f28000000e00001003c000044eb000804e00071
:101f3800100032002108800000032000010070001a
:101f4800200888001e0178009e0190000068290082
:101f580081c1240078fa0700020020000338240019
:101f680075fa0700c9fa0700000078001008880011
:101f7800200037001e0178009e01900000682900ab
:101f880081c124006cfa0700020020000328240005
:101f980069fa0700bdfa07000000780010088800f9
:101fa800140037001e0178009e0190000068290087
:101fb80081c1240060fa07000200200003102400f9
:101fc8005dfa0700b1fa07000000780010088800e1
:101fd800080037001e0178009e0190000068290063
:101fe80081c1240054fa0700a8fa0700000078000d
:101ff800100888004f0478000080fa0000000600ee
:102008000000fa0000002000a14724000700070094
:102018001fe1a9001e21a9000368a9002368a800e0
:102028001fe1a8000080fa00000006000400fa0082
:10203800881f7800008fbe00f1088000f0fc2f0098
:1020480000806000f00888001e0178009e01900062
:102058000068290081c1240037fa070018c0b300be
:1020680002f02f00f377240086fa07000000e00052
:1020780001003c000044eb000804e000540032007a
:10208800f1088000f0fc2f00008060000040a000f4
:10209800f00888001e0178009e0190000068290061
:1020a80081c1240024fa0700020020000310240044
:1020b80021fa070018c0b30002f02f00f3772400bc
:1020c80070fa07000000e00001003c000044eb004b
:1020d8000804e00032003200f1088000f0fc2f0014
:1020e800008060000050a000f00888001e01780001
:1020f8009e0190000068290081c124000efa0700a3
:1021080002002000032824000bfa070018c0b300bf
:1021180002f02f00f37724005afa07000000e000cd
:1021280001003c000044eb000804e000100032000d
:10213800f10880000003200001007000f00888000a
:102148001e0178009e0190000068290081c12400ca
:10215800f9f907000200200003382400f6f9070007
:102168004afa070000007800d008880020003700ed
:102178001e0178009e0190000068290081c124009a
:10218800edf907000200200003282400eaf90700ff
:102198003efa070000007800d008880014003700d5
:1021a8001e0178009e0190000068290081c124006a
:1021b800e1f907000200200003102400def90700ff
:1021c80032fa070000007800d008880008003700bd
:1021d8001e0178009e0190000068290081c124003a
:1021e800d5f9070029fa070000007800d008880010
:1021f8004f0478000080fa00000006000a00fa0088
:10220800200798003107980042079800e0cfb300f4
:10221800004f78002e0090004880de008040780053
:102228001e40780000c06800004f78002e00900023
:10223800804078001e40780000c06800004f780099
:102248003e0090004880de00804078001e40780004
:1022580000c06800004f78003e0090008040780081
:102268001e40780000c06800004f78000000eb00b6
:10227800100798000000eb001007980008003700ce
:102288001e009000ce0090000080400010407800b2
:102298001e4f68001e0090000000e800100798001c
:1022a8009e0090003e009000808f5000f4ff3500a3
:1022b8001e4078000080fa00000006001000fa00b6
:1022c800889fbe0050079800610798007207980021
:1022d8000f0478000f007800800478006e009000ea
:1022e800660040008000e900210798000000e8002f
:1022f8000000e8000000d100800040000f007800d6
:10230800818747000000e8000000d100000040007d
:10231800300798000000eb00000f78003e009000a6
:102328001e004000e1cfb300014878001e0fe8000e
:102338005e0090004880de00804078003e009000fb
:102348001e004000014878001e0fe8005e00900063
:10235800804078003e0090001e0040000148780050
:102368001e0fe8006e0090004880de008040780074
:102378003e0090001e004000014878001e0fe80053
:102388006e009000804078003e0090001e004000e3
:10239800014878001e0fe8000000eb0010079800c5
:1023a8000000eb00100798000b0037001e0090009b
:1023b800fe00900000804000904078003e009000b1
:1023c8001e004000014878001e0fe8001e00900023
:1023d8000000e800100798009e0090006e00900032
:1023e800808f5000f1ff35007e019000ee009000d4
:1023f8005e00900081ff0700004f98003e009000ab
:102408001e0040008e489000014878001e0fe8002a
:102418003e0090009e007800650307008907780059
:10242800880778004f04be000080fa00000006000c
:102438000200fa00004f780060808000e30f50002f
:1024480028003200e30f500007003c00e10f500065
:1024580015003200e10f50001b003c000000e000b6
:102468000800320053003700e50f500031003200f9
:10247800e50f500023003500e60f50003b00320006
:102488004c0037001e407800e24f40004c003a00f4
:102498000230ef000430ef000630ef00100020009b
:1024a80060808800490037001e80fb00108088008b
:1024b800108080004800dd00108088002000200087
:1024c80060808800410037009e80fb0010808000fb
:1024d8000080400010808800300020006080880064
:1024e8003a0037001e80fb00208088002080800092
:1024f8004800dd00208088004000200060808800bf
:10250800320037009e80fb00208080000080400061
:1025180020808800208080000000e00002003a004f
:102528000c30ef0029003700500020006080880040
:1025380026003700308080006112210000804000b2
:102548001e487800308080000000e8003080880055
:102558003180800020808000808f50001a003a006f
:102568006000200060808800180037001e80fb0093
:102578005080880021808000108080006212210035
:102588001eff07000080fb0040808800418080001b
:1025980050808000808f500004003a002180800025
:1025a8001080800062122100200007000c30ef002c
:1025b800060037000c30ef00000000000300370071
:1025c8000000000001003700000000000080fa0051
:1025d800000006000200fa00000f78000080fa00f0
:1025e800000006000200fa00000f78001e007800c4
:1025f8001040780000f0b70000d0bf000080fb005a
:10260800a08e8800a08e8000e10f500003003a00e1
:1026180010002000a08e8800020037000000eb00a8
:10262800a08e88000080fa00000006000600fa006c
:10263800000f780011079800220798001e00780004
:10264800cf80de004df90700b08e8800c18e88006b
:102658001e009000cf80de0048f90700d08e880069
:10266800e18e8800ae009000f18e88001e00780090
:102678000000e0000c00320021052000810f50000e
:1026880005003a002e009000d6ff07000000eb007e
:10269800000f7800050037000000eb00000f7800fd
:1026a8000000000001003700000000000080fa0070
:1026b800000006000000fa001160800080ff2f0073
:1026c800008060001060880000fa20002060880008
:1026d80023aca800238ca80011618000f03f2f00d4
:1026e8000080600000a0a000106188003000200079
:1026f80020618800c3aca800c38ca80011668000c4
:10270800f03f2f000080600000a0a0001066880045
:10271800300020002066880001eca8000080fa0044
:10272800000006000600fa00008fbe00424798002d
:102738004e4090000004e00005003a001e017800b9
:102748009e019000828d8800938d880007003700d5
:102758004e409000e14f500004003a001e017800fe
:102768009e019000428d8800538d88000080fa00f9
:10277800000006000000fa00889fbe008a9fbe0085
:10278800a48d8000b58d8000808d8000918d8000a3
:1027980018c0b3000001be000400be00b7f807006f
:1027a8000000e000010035000044eb000804e000f0
:1027b8000f003200888d8000998d8000aa8d8000de
:1027c800bb8d800020d0bf000080fb00cf80de00e2
:1027d800eaf807000001be000a00be00f9f707008a
:1027e8000801be0019020700a08d8800b18d88007d
:1027f800a48d8000b58d8000808d8000918d800033
:1028080018c0b3000001be000400be009df8070018
:102818000000e00001003c000044eb000804e00078
:102828000f003200888d8000998d8000aa8d80006d
:10283800bb8d800020d0bf000080fb00cf80de0071
:10284800cef807000001be000a00be00dcf7070052
:102858000801be00e5010700a08d8800b18d880041
:10286800a08d8000b18d800018c0b3006011b80041
:1028780084f807000000e00001003c000044eb0081
:102888000804e00004003200c3cca90024eea8002c
:10289800c3eca80003003700c3eca90024cea800ad
:1028a800c3cca800a08d8000b18d8000b9010700bd
:1028b800020020000322240008f9070094f807000a
:1028c8000000780030668800648d8000758d800077
:1028d800408d8000518d800018c0b3000001be00fb
:1028e8000400be0065f807000000e00001003500a4
:1028f8000044eb000804e0000f003200488d80001f
:10290800598d80006a8d80007b8d800020d0bf00ab
:102918000080fb00cf80de0098f807000001be00b1
:102928000a00be00a7f707000801be00c70107009c
:10293800608d8800718d8800648d8000758d8000a1
:10294800408d8000518d800018c0b3000001be008a
:102958000400be004bf807000000e00001003c0046
:102968000044eb000804e0000f003200488d8000ae
:10297800598d80006a8d80007b8d800020d0bf003b
:102988000080fb00cf80de007cf807000001be005d
:102998000a00be008af707000801be00930107007d
:1029a800608d8800718d8800608d8000718d800039
:1029b80018c0b3006011b80032f807000000e0004a
:1029c80001003c000044eb000804e0000400320071
:1029d80023cca90015eea80023eca80003003700bb
:1029e80023eca90015cea80023cca800608d800098
:1029f800718d800067010700020020000322240077
:102a0800b6f8070042f80700000078003061880037
:102a18004f05be004f04be000080fa00000006000b
:102a28000e00fa0085020700e14f5000b8003a0096
:102a3800860207007d020700100798001e0090001c
:102a48000080e800100078008000eb004ef80700d6
:102a58003233230033052400a0f8070002002000c9
:102a680003582400b4f70700d2cc2c00c304240078
:102a78009af8070020079800310798002e01900067
:102a8800be0190000000200081202400aaf7070062
:102a980002002000030a240049f70700e08d88009f
:102aa800f18d88001e00900064004000100078003e
:102ab8008000eb0034f8070032332300330524008c
:102ac80086f8070002002000035824009af7070040
:102ad800d2cc2c00c304240080f8070020079800fb
:102ae800310798002e019000be01900000002000e0
:102af8008120240090f7070002002000030a240028
:102b08002ff70700008e8800118e88001e009000a5
:102b180068004000100078008000eb001af80700f9
:102b280032332300330524006cf80700020020002c
:102b38000358240080f70700d2cc2c00c3042400db
:102b480066f8070020079800310798002e019000ca
:102b5800be019000000020008120240076f70700c5
:102b680002002000030a240015f70700208e8800c1
:102b7800318e88001e00900066004000100078002a
:102b88008000eb0000f807003233230033052400ef
:102b980052f80700020020000358240066f70700d7
:102ba800d2cc2c00c30424004cf80700200798005e
:102bb800310798002e019000be019000000020000f
:102bc800812024005cf7070002002000030a24008b
:102bd800fbf60700408e8800518e88001e0090008a
:102be800100078008000eb00e7f70700323323007d
:102bf8003305240039f80700020020000358240098
:102c08004df70700d2cc2c00c304240033f807008a
:102c180020079800310798002e019000be0190000f
:102c2800000020008120240043f707000200200054
:102c3800030a2400e2f60700c08d8800d18d8800c1
:102c4800e07a280051002000590107000000eb003d
:102c5800000f78000600370013020700204f980085
:102c68006a00470011002000510107001e0fe8000c
:102c78002e0207009e0f5000f7ff3c0021818000c4
:102c8800a000200000017800110009008200d8008f
:102c98008000fd000000e00017003a0064eea80084
:102ca800208e8000318e800078f707000040780081
:102cb800304f9800008e8000118e800073f7070057
:102cc80000407800404f9800e08d8000f18d800032
:102cd8006ef7070000407800504f98003000200041
:102ce800400798006b00470000017800ce00900074
:102cf8000003200071fd0700208180000000e8002b
:102d08002081880000c4290001002000b7020700c4
:102d18000080fa00000006000600fa00000f7800a4
:102d280011079800220798000041eb006000b800e6
:102d38007cfe070012c0b3006000b80079fe0700ef
:102d48002e0190009e0090001e00780002000700ef
:102d58000080fa00000006000600fa00000f780064
:102d680011079800220798001e007800e10f500014
:102d780007003200e20f5000340032000000e0008b
:102d88007d003a009e009000010f78007f00370018
:102d98002e00900010407800e84f500008003a00dc
:102da8000041eb0000002000011a2c005dfe070026
:102db80012c0b30000002000011a2c0059fe0700c1
:102dc8002e00900010407800ea4f500008003a00aa
:102dd8000041eb0000002000011a240051fe07000a
:102de80012c0b30000002000011a24004dfe0700a5
:102df8002e00900010407800e24f500008003a0082
:102e08000041eb0000002000011a2c0045fe0700dd
:102e180012c0b30000002000011a240041fe070080
:102e28002e009000104078000004e00056003a00a0
:102e38000041eb006000b8003afe070012c0b30082
:102e48006000b80037fe0700500037002e009000e1
:102e58009040780090c4b30080cf500007003a003b
:102e68002e0090000000e8009040780010c3b300e6
:102e780080cf500001003a00254ea8002e00900097
:102e880090407800f0c4b30080cf500007003a00ab
:102e98002e0090000000e8009040780010c3b300b6
:102ea80080cf500001003a00254ea9002e00900066
:102eb8009040780090c4b30080cf500007003a00db
:102ec8002e0090000000e8009040780020c3b30076
:102ed80080cf500001003a0064cea8002e00900078
:102ee80090407800f0c4b30080cf500007003a004b
:102ef8002e0090000000e8009040780020c3b30046
:102f080080cf500001003a0064cea9002e00900046
:102f18009040780090c4b30080cf500007003a007a
:102f28002e0090000000e8009040780030c3b30005
:102f380080cf500001003a0064eea8002e009000f7
:102f480090407800f0c4b30080cf500007003a00ea
:102f58002e0090000000e8009040780030c3b300d5
:102f680080cf500001003a0064eea9000000eb0099
:102f7800000f7800050037000000eb00000f780014
:102f88000000000001003700000000000080fa0087
:102f9800000006000400fa00881f7800008fbe00b9
:102fa80018c0b3006011b8001e0078009e009000a1
:102fb800b4f607000000e00001003d000044eb000b
:102fc8000804e000030032001e0078009e00900014
:102fd800030037001e0078009e00900001f0a20058
:102fe8004f0478000080fa00000006000800fa008c
:102ff800881f7800008fbe002207980033079800ca
:1030080018c0b3002e019000be0190001e00780089
:103018009e0090009bf607000000e00001003c00c5
:103028000044eb000804e000030032001e007800b2
:103038009e009000020037002e009000be00900015
:103048004f0478000080fa00000006000800fa002b
:10305800881f7800008fbe00220798003307980069
:1030680018c0b3002e019000be0190001e00780029
:103078009e00900081f607000000e0000100350086
:103088000044eb000804e000030032001e00780052
:103098009e009000020037002e009000be009000b5
:1030a8004f0478000080fa00000006000c00fa00c7
:1030b800881f7800008fbe00220798003307980009
:1030c800440798005507980018c0b3004e019000b7
:1030d800de0190001e0078009e00900069f607004f
:1030e8000000e00001003c000044eb000804e000a0
:1030f800040032004e019000de019000028fbe00f5
:103108000e00370018c0b3002e019000be019000d9
:103118001e0078009e00900058f607000000e000ae
:10312800010035000044eb000804e0000300320011
:103138002e019000be019000028fbe001e00780094
:103148009e0090004f0478000080fa0000000600fe
:103158000400fa00008fbe00b2fd20009304240092
:103168001e0078009e009000f3f507000200200082
:1031780043332400d9f607000080fa000000060057
:103188000400fa00008fbe00b2fd20009304240062
:103198001e0078009e009000d0f607000200200074
:1031a80043332400e4f507000080fa00000006001d
:1031b8000600fa0010079800210798000040eb006d
:1031c800004f780054000700ae009000810f5000b7
:1031d800110034000040eb00004f78000600370073
:1031e8001e80fb009e009000008040001040780088
:1031f8000b0007001e4fe8009e80fb002e00900089
:10320800808f5000f6ff35002e0007000004e00014
:1032180001003a00220007000080fa0000000600c2
:103228000200fa00004f7800a080800061022100af
:10323800008040001e487800a08080000000e80060
:10324800a0808800a1808000f0072000808f5000b7
:10325800010034001430ef000080fa00000006007e
:103268000200fa00b0808000610221000080400066
:10327800104f7800b08080000000e800b08088001f
:10328800b1808000f0072000808f500001003400da
:103298001630ef001e4078000080fa00000006009b
:1032a8000200fa0010c0b30018f0b700ecff0700e6
:1032b800004f78001e80fb00201188000080fa0073
:1032c800000006000000fa0018d0bf000080fa00d5
:1032d800000006000200fa00a1808000b080800093
:1032e800808f500004003500a1808000b0808000ed
:1032f800008f500005003700a1808000b08080005a
:103308000080500001082000010f40001e007800d6
:103318000080fa00000006000200fa00edff070036
:1033280001082000008f50001e0078000080fa007d
:10333800000006000000fa0021e3a9002143a800cc
:1033480001198000f0cf2f0000806000001988006c
:103358002043a90001198000000e20000100700020
:103368000019880011198000f0ff2100008060001a
:10337800101988002343a80011198000f0cf2f00ee
:1033880000806000101988001119800030f82f00a3
:10339800008060000040a000101988002203a900e6
:1033a8002223a90025e3a900f0c0b30024e3b70055
:1033b80021198000f00f2e008080600000f02000ae
:1033c80001007000201988003303a9002e0ea80000
:1033d8002f6ea8006f2ea8001e2ea8004feea80082
:1033e80030c3a8003163a8002e03a8003063a800ea
:1033f80031e3a8004119800000fc2f000080600024
:103408004019880028e3a90001a8a90021a8a8005c
:1034180021e3a8000080fa00000006000000fa007e
:103428002023a8000080fa00000006000000fa002f
:10343800802021000080fa00000006000000fa0049
:1034480023d0bf000080fa00000006000000fa0048
:103458002370ef000080fa00000006000200fa0066
:10346800004f78002a0007000000e0000c0034003c
:10347800d0808000610a2100008040001e4878004a
:10348800d08080000000e800d0808800d1808000d3
:1034980000082000808f5000010034001a30ef002f
:1034a8000080fa00000006000200fa00e0808000b8
:1034b800610a210000804000104f7800e080800001
:1034c8000000e800e0808800e1808000000820001b
:1034d800808f5000010034001c30ef001e4078003f
:1034e8000080fa00000006000000fa00d180800089
:1034f800e0808000808f50000200320010c0b300ce
:10350800010037000040eb000080fa0000000600d0
:103518000200fa000500070001082000008f500093
:103528001e0078000080fa00000006000200fa0081
:10353800d1808000e0808000808f5000040035003a
:10354800d1808000e0808000008f500005003700a7
:10355800d1808000e08080000080500001082000b9
:10356800010f40001e0078000080fa0000000600ed
:103578000000fa000e2eef001e2eef002e2eef0098
:103588003e2eef004e2eef005e2eef006e2eef0067
:10359800214ea90060cea90060eea90011cea900b5
:1035a80011eea90020cea90020eea9002136800046
:1035b80000f82f00008060008001b30020368800ea
:1035c8001134800000fc2f00008060000000a00083
:1035d800103488000136800000f82f0080806000d9
:1035e80010062000010070000036880001368000b7
:1035f800f00f2800808060000000260001007000a5
:1036080000368800e135800000f82f0080806000d7
:103618006004200001007000e0358800e13580007a
:10362800f00f280080806000005024000100700026
:10363800e03588000080fa00000006000000fa006b
:10364800f0032000303a8800213a8000f0f32f0080
:1036580000806000203a8800213a800000fe2f0098
:10366800008060000000a000203a880012002000be
:1036780080072000a10920003374200080497800c9
:103688008149780082497800103a8000000178006a
:103698000200a000600420007105200023742000af
:1036a800804978008149780082497800000000004c
:1036b800113a80000000270080806000000021008f
:1036c800808f5000faff3a0000000000113a800095
:1036d80000022000008060000000e000fbff3200d4
:0836e8000080fa00000006005a
:020000040000fa
:1036f0001e10000002000000800000000e100000fc
:103700000600000080000000a6110000620000001a
:103710008000000020100000020000008200000075
:1037200007000000081200000a00000080000000ee
:10373000221000000200000080000000261000009f
:10374000800000008000000014100000060000004f
:1037500080000000a6100000800000008000000033
:103760001a10000004000000800000002611000074
:103770008000000080000000001000000e0000002b
:103780008000000024100000020000008000000003
:043790000000000035
:020000040000fa
:103794000000fa002002a9000111800090ff2f0010
:1037a400008060000011880020a2a9002062a80007
:1037b400500520004011880023a2a90023e2a9009b
:1037c4000188a9002188a80011118000f0f32f00be
:1037d40000806000101188000168a9002168a80019
:1037e40021e2a8002342a8000080fa00000006009d
:020000040000fa
:1037f400f03fb1000180b10006003500ee0309007e
:1038040000000000403fb1000180b100fbff3d001b
:103814001000b000203fb000020035000080090015
:08382400000000000000060096
:020000040000fa
:02000004000af0
:04afe000cfff00009f
:020000040000fa
:02000004000af0
:04afe400ffff00006b
:020000040000fa
:02000004000af0
:04afe8007fff0000e7
:020000040000fa
:02000004000af0
:04afec005fff000003
:020000040000fa
:02000004000af0
:04aff00038ff000026
:020000040000fa
:02000004000af0
:04aff400ffff00005b
:00000001FF
